:100000000C9438000C9442000C9442000C94420072
:100010000C9442000C9442000C9442000C94420058
:100020000C9442000C9442000C9442000C94420048
:100030000C9442000C9442000C9442000C94420038
:100040000C9442000C9442000C9442000C94420028
:100050000C9442000C9442000C9442000C94420018
:100060000C9442000C9442000C9442000C94420008
:1000700011241FBECFEFD0E1DEBFCDBF0E944500EF
:100080000C9457000C940000089582E084B920E09D
:1000900032E040E65AEE04C0CA010197F1F72F5F43
:1000A0002A30D4F385B1832785B920E0F5CFF894C1
:0200B000FFCF80
:00000001FF
