:100000003EC100000C94B40E58C1000056C100005F
:1000100054C1000052C1000050C100004EC1000098
:100020004CC100004AC1000048C1000046C10000A8
:1000300044C100000C94E80F40C100003EC1000024
:1000400002C300003AC1000038C1000036C1000000
:100050000C9440190C94741930C100002EC100009A
:100060002CC100002AC1000028C1000026C10000E8
:1000700024C1000022C1000020C100001EC10000F8
:100080001CC100001AC1000018C100006DC6184252
:10009000FB0443EA01461F08697C134175095ABDF8
:1000A0000B475A074DE906529E0554B41656F704FD
:1000B000572F0558A212657805667F186C200574C5
:1000C000BE03780C0300000000030F1E262700006B
:1000D00000030F1E2536386700030F256740605068
:1000E00000030F275188838100030F2750C8C3C224
:1000F0000027000000000000006700000000000072
:10010000005000000000000000810000000000001E
:1001100000C20000000000000D2E2D07D3913D0409
:10012000320000060021656A55E43023B90007005B
:1001300018146C070090876BF85611E92A001F41CC
:1001400000072E050DD391FF080500000C00216566
:100150006A2D3B1322F862073F181D1CC700B087A9
:100160006BF8B611EA2A001F4100202F2000203D25
:1001700020005620312E35372043534D3836380075
:10018000202F2000203D20004C4F56460D0A000035
:1001900007022E030D04E905CA070C0B060D210EFC
:1001A000650F6A10C8119312031534173318181904
:1001B000161B4321562500261129592C812D353E29
:1001C000C30007024604C605260B0610C811931289
:1001D0000313221534173F182819161B43215625DF
:1001E0000026110D210E650F6A070C160720F81E58
:1001F000871F6B29592C812D353EC3FF004C454E7E
:100200004552520D0A004C4F56460D0A004C454EC1
:100210004552520D0A00424F56460D0A000D2E2D32
:1002200007D3913D04320000060010B07155E43050
:1002300023B900070018146C070090876BF856115B
:10024000E92A001F410000535300547D7DFFFF4BFE
:100250004B7E7E00454F420D0A004E2F41004E2F2F
:10026000410020697320756E6B6E6F776E29205583
:100270007365206F6E65206F66003F202800112493
:100280001FBECFEFD0E4DEBFCDBF11E0A0E0B1E0F4
:10029000ECE1F5E300E00BBF02C007900D92A43142
:1002A000B107D9F714E0A4E1B1E001C01D92A93370
:1002B000B107E1F703D00C948C1AA2CE88E10FB6F7
:1002C000F89480936000109260000FBE099A119A12
:1002D0000E941E1A80E091E00BD489EF87BD84E074
:1002E00085BD82E084BD80936E00109280008AE01C
:1002F0008093810080E090E020E10FB6F894209395
:100300006100809361000FBE84B7877F84BF2FE0B8
:1003100088E190E00FB6F894A895809360000FBE36
:100320002093600089E190E80E941A190E949316B8
:100330000E94020C8BED99E190930C0380930B03C8
:1003400081E0809317011198789481E280931503DE
:100350000E9498120E942C190E946010B6D10E942F
:100360001C1870D60E944A0BF5CF8EBD0DB407FE47
:10037000FDCF8EB508952C98806C8EBD0DB407FE10
:10038000FDCF8EB51EBC0DB407FEFDCF8EB52C9AE9
:1003900008952C9880648EBD0DB407FEFDCF8EB5F8
:1003A0006EBD0DB407FEFDCF8EB52C9A08952C9826
:1003B0008EBD0DB407FEFDCF8EB52C9A08952C98F6
:1003C00086E38EBD0DB407FEFDCF8EB52C9A10923C
:1003D0000D030895A1E0B0E0E0EFF1E00C94631AA2
:1003E0000196BE016F5F7F4F41E098D2892B41F1AA
:1003F0008981893989F400E010E0802FBCDF47D281
:10040000C80187709070079709F4E7D10F5F1F4FFD
:100410000033110591F714C0AEDF182F83E4CAD161
:10042000898135D28EE691E0DCD1812F30D28AE607
:1004300091E0D7D1812F90E062E040E22CD2CDD183
:100440002196E4E00C947F1A0F931F931FEF04E3AF
:100450002C980EBD0DB407FEFDCF8EB52C9A8AE008
:1004600090E099D11150A1F7E89A1F910F9108954A
:100470000F931F93E8982C9886E38EBD0DB407FE6A
:10048000FDCF8EB52C9A1FEF05E32C980EBD0DB451
:1004900007FEFDCF8EB52C9A8AE090E07CD11150FA
:1004A000A1F71F910F910895EF92FF920F93CF93B1
:1004B000DF93082F8A3008F008E0C02FD0E083E0F7
:1004C000CC0FDD1F8A95E1F7C853DF4F8BE290E038
:1004D0007C010894E11CF11CFE01649171D221960B
:1004E000C70183339105A1F70550053010F067E18E
:1004F00001C061E184E290E063D2DF91CF910F917E
:10050000FF90EF900895CF93DF9382E090E0EC01AD
:100510002196FE01EB5EFE4FE4916E2F51D2CB325D
:10052000D10511F0CE01F3CF87E390E0EC012196E5
:10053000FE01E75FFE4FE4916E2F42D2C036D10537
:1005400011F0CE01F3CF88E0AFDFDF91CF910895B6
:100550000F931F93CF93DF938C0110921D01E898A6
:10056000249A2C9A8EE190E016D12C988EE190E09E
:1005700012D12C9A8DE290E00ED12C9880E38EBDA2
:100580000DB407FEFDCF8EB52C9A84E690E003D122
:100590002C9880E48EBD0DB407FEFDCF8EB5C0E073
:1005A000D0E0C8018C0F9D1F1AD28EBD0DB407FE7E
:1005B000FDCF8EB52196C932D10599F72C9A2C988A
:1005C0008EE78EBD0DB407FEFDCF8EB58BE290E0B9
:1005D000EC01219604D28EBD0DB407FEFDCF8EB581
:1005E000C333D10511F0CE01F3CF2C9A2C9883E3BD
:1005F0008EBD0DB407FEFDCF8EB52C9A81E0D0D014
:10060000DF91CF911F910F91089582E090E0A0DFDC
:1006100081E080930D030895A1E0B0E0E2E1F3E012
:100620000C94651A22E029830196BE016F5F7F4F0B
:1006300041E074D1898138DF82E090E089DF219642
:10064000E2E00C94811A1F920F920FB60F921124C0
:100650008F939F93AF93BF9380910F03909110035B
:10066000A0911103B09112030196A11DB11D8093B9
:100670000F0390931003A0931103B0931203809182
:100680000E038F5F80930E0380910E038D3710F061
:1006900010920E0380911A0390911B03009729F08A
:1006A000019790931B0380931A0380912D038F3F32
:1006B00019F0815080932D03BF91AF919F918F913D
:1006C0000F900FBE0F901F90189580910F0390917F
:1006D0001003A0911103B091120320911501281766
:1006E00009F44BC080910F0390911003A091110366
:1006F000B091120380931501A8958091030182FDAA
:10070000119880911A0390911B03892B11F40E9478
:10071000301680912D03882311F40E9417168091C2
:100720000E03882351F580910301282F81FF04C017
:1007300082B192E0892782B922FD119A8091130338
:100740009091140323E08438920728F40196909343
:10075000140380931303809114018F5F809314011D
:100760008C3359F410921401809117038F5F80939A
:1007700017038C3310F01092170308958091120321
:1007800086D08091110383D08091100380D0809116
:100790000F037DD022C0880F991F0197F1F70895AC
:1007A00020ED37E004C0F9013197F1F7815088233B
:1007B000D1F70895682F8091170180FF0DC08091B7
:1007C00031038E3730F087FD07C06D3011F06A308D
:1007D00019F48FE293E0EEC108958DE0EBDF8AE03B
:1007E000E9CFCF93DF93EC0102C0E4DF2196FE0155
:1007F00084918823D1F7DF91CF910895CF93DF9330
:10080000EC0102C02196D6DF88818823D9F7DF91D9
:10081000CF910895A5E0B0E0E0E1F4E00C94651A12
:100820001D82FE01349624E0582F5F7021505A300B
:1008300018F4352F305D02C0352F395C308334E039
:10084000969587953A95E1F761503197009761F752
:100850002150822F992787FD90952F5FFE013196B9
:10086000E80FF91F03C0215040833197615067FDA5
:1008700002C01216C4F3332727FD3095CE0101962E
:10088000820F931FBBDF2596E2E00C94811A90E063
:1008900062E040E3BFCFA6E0B0E0E1E5F4E00C9415
:1008A000631A9C01162F042F1E82FE01359645E027
:1008B0004150C9016AE070E00E942E1A805D808379
:1008C000C9016AE070E00E942E1A9B011150611567
:1008D000710559F44150842F992787FD90954F5FFA
:1008E000FE013196E80FF91F07C03197442301F745
:1008F000F1CF415000833197115017FD02C01416FB
:10090000C4F3242F332727FD3095CE010196820FA3
:10091000931F74DF2696E4E00C947F1ADC01FB0140
:1009200023C0822F80538A3010F050E002C0382B51
:1009300051E0822F8154863020F42753322B295CDA
:1009400051E0822F8156863018F42755322B07C08C
:10095000552329F4203271F02A3361F00EC0992317
:1009600031F03193415049F030E090E003C03295CE
:10097000307F91E02D912223A1F6CF01861B970BAA
:100980000895FC01DB0120E030E014C0842F805387
:100990008A3080F4C90163E0880F991F6A95E1F7F6
:1009A000220F331F820F931F242F30E0205330403B
:1009B000280F391F4191442349F72D933C93089503
:1009C0009C01F999FECF1FBA32BD21BD60BD0FB6A3
:1009D000F894FA9AF99A0FBEF999FECF08959C01FE
:1009E000F999FECF32BD21BDF89A80B5089582E70E
:1009F00091E0F7DEF2CEA1E0B0E0E1E0F5E00C94AA
:100A0000651A1982009731F00196BE016F5F7F4F22
:100A100041E084DF8981882321F083E390E061E075
:100A2000CFDF10926E00F89428E088E190E00FB6D6
:100A3000F894A895809360000FBE20936000FFCFCC
:100A4000019663E071E041E069DF6091030160FFBE
:100A500002C0119A01C0119884E390E0B1CFA6E0E2
:100A6000B0E0E5E3F5E00C945F1A6C010196BE017D
:100A70006F5F7F4F43E052DF082F8230A8F129815A
:100A8000823019F4E22EFF2407C0922F80E02A81E1
:100A9000E22EFF24E82AF92A10E0FE01E00FF11F00
:100AA000C70160818DDF000F111F0F5F1F4F0C0DFD
:100AB0001D1D0894E11CF11C6E010894C11CD11C81
:100AC0000FC0C801B60141E029DF892B69F0C701D9
:100AD000698176DF0E5F1F4F82E090E0E80EF91E1D
:100AE000F8018081882369F72696E8E00C947B1A48
:100AF0000F931F938C0180E090E061E061DF81E063
:100B000090E069E35DDFFFDC80E690E060E058DFC5
:100B100081E690E060E054DF83E390E060E050DF46
:100B200084E390E062E04CDFF8018181883719F0BE
:100B300080E090E060DF1F910F910895EF92FF92A7
:100B40001F93DF93CF9300D0CDB7DEB71A821982FF
:100B50000196BE016F5F7F4F42E0E0DE2981823067
:100B600041F4922F80E02A81E22EFF24E82AF92A1C
:100B700002C0E22EFF24C70132DF182F82E51ADE01
:100B8000C70164E040E346DE84E891E02ADE812F7D
:100B90007EDE80E891E025DE812F90E062E040E299
:100BA0007ADE1BDE0F900F90CF91DF911F91FF90A7
:100BB000EF900895DC0112968C91129787FD0EC07C
:100BC0008F5F12968C9312978C91FD01E80FF11DA7
:100BD00063838F5F8C93803809F41C920895DC0145
:100BE00012968C911297882311F490E013C08150D3
:100BF00012968C93129711968C911197FD01E80F24
:100C0000F11D93818F5F11968C931197803811F4A9
:100C100011961C92892F0895CF93DF93DB01EA018F
:100C2000322F4881882369F0FB01E40FF11D81E038
:100C300090E002C0880F991F2A95E2F72081282BA7
:100C40002083332319F0832F815009C0842F8F5FB5
:100C50008C3008F48883A80FB11D1C9287E090E0C7
:100C6000DF91CF9108951F93182F299A882319F0A7
:100C700080911A0102C08091180190E034E0880F41
:100C8000991F3A95E1F787DD2998112319F0809192
:100C90001B0102C08091190190E024E0880F991F88
:100CA0002A95E1F778DD1F910895A0E0B0E0EBE52B
:100CB000F6E00C94571A4C01562ED42E122FC02E4B
:100CC0004E2C209113033091140382E0D80ED09E55
:100CD000802D11249EEFD90E992787FD9095281716
:100CE000390720F488E891E07CDD6EC0281B390BC1
:100CF0003093140320931303119A80911D018823CC
:100D000011F4EE2408C010921D0184E091E00E94CD
:100D1000A212EE24E39480910D03882309F475DC7C
:100D2000A7DB41E0642E712CA12EBB2410E003C090
:100D300080E099DF1F5F1515D9F7552011F081E08C
:100D400092DF8401FF2415C0C7E0D0E093010C2E90
:100D500002C0220F331F0A94E2F7F8018081822338
:100D600082DF2197FFEFCF3FDF0781F7F3940F5F1B
:100D70001F4FFD1449F7C7E0D0E00D2D112707FDE7
:100D80001095080D191D0CC093010C2E02C0220FE6
:100D9000331F0A94E2F7F8018081822364DF2197F0
:100DA000AC16BD068CF3842DFBDCCA9409F0BECFD3
:100DB00080911503882311F047DB02C086E3F7DA40
:100DC000EE2009F0A2D21198CDB7DEB7E0E10C9485
:100DD000731AA9E1B0E0EFEEF6E00C94591AFEE0C8
:100DE000EF2EF12CEC0EFD1E0196B7014BE096DDC7
:100DF000893009F05BC089E1809319018093180163
:100E000080931A0182E380931B01C70169E01DD51D
:100E10008F8B19821A8207E0A7E010E0E7E06E2EC0
:100E2000712C71E0872E912C570162E0C62ED12CD7
:100E3000CC0EDD1E7E010894E11CF11C01C007E010
:100E4000802F992787FD90959301281B390BC401AA
:100E500002C0880F991F2A95E2F79C01F501E10F66
:100E6000F11D80818223B601A7012A2FD5DEA82F8C
:100E7000002311F00150E4CF81E0B601A7012A2F31
:100E8000CBDEA82F1F5F1A30D0F2882319F0282F4D
:100E9000215004C089818F5F898327E0CE010296AB
:100EA0006CE0498103E05AE0E52EFFDE6996EEE052
:100EB0000C94751AEF920F93DF93CF93CDB7DEB7F3
:100EC00060970FB6F894DEBF0FBECDBF0196BE018E
:100ED0006F5F7F4F40E122DD69814A810B818C8108
:100EE000809318018D81809319018E8180931A015E
:100EF0008F8180931B01242F2F70E02EE294AFE0AE
:100F0000EA22CE01089642954F700F70CEDE6096B1
:100F10000FB6F894DEBF0FBECDBFCF91DF910F911A
:100F2000EF900895AEE0B0E0E8E9F7E00C94551AD0
:100F30007C01162F842F2E87B701412F7AD4F70119
:100F4000E10FF11D8083A12EA39419821A8247011B
:100F5000BB24E7E091E0292E312C82E0482E512C71
:100F60004C0E5D1E3E010894611C711C2FC007E0F1
:100F700010E06701CB0CD11C9101002E02C0220FA2
:100F8000331F0A94E2F7D6018C918223B201A301A8
:100F90002E2F42DEE82F01501040BFEF0F3F1B07FE
:100FA00059F7D4018D914D01082E82958025082E88
:100FB00086958695802590E0019695958795817018
:100FC000B201A3012E2F28DEE82FB394BA1478F2D1
:100FD000EE2319F02E2F215004C089818F5F898361
:100FE00027E089E1809319018093180185E28093BD
:100FF0001B0180931A01CE0102966CE049810E8597
:10100000BAE0EB2E52DE2E96E2E10C94711AACE0BF
:10101000B0E0EDE0F8E00C94611AF62EE42E0196B3
:101020008E010F5F1F4FB8014BE078DC682FC801BD
:101030004F2D2E2D77DF2C96E6E00C947D1A66E07E
:1010400043E0E5CFACE3B0E0E8E2F8E00C94601AEE
:1010500080911C01882309F490C04A9B80C08FE3D3
:101060008AD98F778E3108F080C089832C988FEFD2
:101070007CD910E022E0E22EF12CEC0EFD1E07C020
:1010800080E073D9F701E10FF11D80831F5F0981B3
:101090001017B0F380E069D9D82E80E066D92C9A79
:1010A00084E385D985E367D98D30D1F70F8F8A81A5
:1010B00096E7892788A312E0BE01615E7F4FAE01EB
:1010C0004F5F5F4F0FC0DB01A20FB31FFE01E20FA6
:1010D000F31F80818452240F351FF90190818927E5
:1010E0008C931F5F8F8D212F30E0181760F3620FF4
:1010F000731F420F531FFA01808199A18927FB01B9
:1011000080838091150384FF12C081E653DB0F8D2D
:1011100010E09FE1E92EF12CEC0EFD1EF701E10F2E
:10112000F11D808147DB1F5F0117C0F718C081E404
:1011300041DB0F8D10E08FE1E82EF12CEC0EFD1E4F
:10114000F701E10FF11D8081A2DB1F5F0117C0F7DE
:101150008091150385FF02C08D2D99DB3EDB85E371
:101160000AD9813021F0813141F48AE320D986E324
:101170001ED98DE31CD984E31AD9EC96E7E00C94D0
:101180007C1ACF93DF93E898249A2C9A8EE190E012
:1011900002DB2C988EE190E0FEDA2C9A8DE290E052
:1011A000FADA80E304D984E690E0F5DACFE8D1E01A
:1011B000FE0184912196FE016491EBD82196F1E025
:1011C000C13CDF07A9F783E3F2D884E0E9DA84E3DE
:1011D000EED885E3D0D88D30D1F7DF91CF91089547
:1011E000ACE3B0E0E6EFF8E00C94601A0196BE01C3
:1011F000615E7F4F4DE192DBD82E282F30E02150E9
:1012000030408F8D90E02817390709F06AC080912F
:101210001C01882319F4B5DF83E0C2DA4F8D4983BE
:1012200088A196E789278A83DE0112969E012F5DA9
:101230003F4F52E00BC08C918452F90191919F0174
:10124000892711968C9311975F5F1196541798F325
:10125000E52FF0E0DE01AE0FBF1FFD01878D99A1E4
:10126000892711968C9385E3A2D885E384D88331AE
:10127000D1F789A184FF06C088E792DA88E790DA7F
:1012800088E701C08AE08CDA2C988FE76ED87E015F
:101290000894E11CF11C870104C0F80181918F01C1
:1012A00064D8802F8E198D15C0F32C9A85E363D8EE
:1012B0008331E1F385E35FD8863131F48BE377D86E
:1012C00086E375D88DE373D880911C01882339F0AB
:1012D00084E36DD885E34FD88D30D1F702C00E94EA
:1012E0009812EC96E7E00C947C1AFC01019621819F
:1012F000223729F446DF81E080931C0108952337CB
:1013000009F46ECF10921C0108951F93CF93DF93C1
:10131000E898249A2C9A8EE190E03DDA2C988EE1A0
:1013200090E039DA2C9A8DE290E035DA80E33FD80C
:1013300084E690E030DAC1ECD1E0FE0184918134A2
:1013400048F42196FE01649124D82196F1E0CD3F26
:10135000DF0799F783E32BD884E022DA10E01150FD
:1013600031F084E324D88AE090E015DAF8CF81E008
:1013700080931D01DF91CF911F910895EF92FF920D
:101380000F931F93CF93DF937C01EB01FC0100814E
:101390000F5F6115710519F420E030E002C024E60A
:1013A00030E0802F90E043E0880F991F4A95E1F7E5
:1013B0006AE070E00E94421A260F371FA9016627D3
:1013C00057FD6095762F2091130330911403C901C6
:1013D000A0E0B0E084179507A607B70720F486E0E1
:1013E00092E0FFD9B9C0241B350B3093140320932E
:1013F000130380911D01882309F487DF85E30E9490
:10140000BB018D3051F08AE5D5D985E4D3D982E589
:10141000D1D982E5CFD981E345C080912401909153
:101420002501A0912601B09127010097A105B105E2
:1014300019F428C081E0B4D980910F039091100372
:10144000A0911103B0911203209124013091250144
:10145000409126015091270182179307A407B507F1
:1014600049F380910F0390911003A0911103B09163
:1014700012032F5F3F4F4F4F5F4F82179307A40711
:10148000B507C1F20E94380285E30E94BB01833197
:1014900089F08AE58FD985E48DD982E58BD982E5FB
:1014A00089D982E387D985E30E94BB01F0D995D918
:1014B0002CDF52C0CD2B41F0C0E0D0E084E670D9E3
:1014C0002196CA30D105D1F72C988FE70E94B5013B
:1014D000E70110E004C089910E94B5011F5F101759
:1014E000D0F32C9A10E085E30E94BB018D3051F0BF
:1014F00085E30E94BB01833129F481E051D91F5F4C
:10150000183C89F785E30E94BB018D3081F08AE5A4
:1015100051D985E44FD982E54DD982E54BD983E392
:1015200049D985E30E94BB01B2D957D9EEDE80913B
:101530001D01882309F4FCD780910F0390911003BB
:10154000A0911103B091120380932401909325017F
:10155000A0932601B0932701CDB7DEB7E6E00C9447
:101560007D1AEF92FF920F93DF93CF93CDB7DEB743
:101570002C970FB6F894DEBF0FBECDBFFC018BE0F9
:10158000898381818A831B8282E08C8387818D831A
:1015900080858E8381858F838481888785818987F3
:1015A00086818A871B861C8684E1FAD87E0108948E
:1015B000E11CF11CC70160E070E0E0DE8AE5FAD8CA
:1015C00000E005C0EE0DFF1D808161D90F5FE02FA7
:1015D000F0E0898190E08E179F07A4F780911503B2
:1015E00085FF02C080E053D9F8D82C960FB6F89446
:1015F000DEBF0FBECDBFCF91DF910F91FF90EF9077
:101600000895CF93DF93EC0190911E01992341F44B
:1016100080911F01882321F4809120018823B1F457
:101620008B81803321F0803411F0803579F48F8103
:10163000891761F4988580911F01981739F499856D
:1016400080912001981711F4CE018BDF9091210138
:10165000992341F480912201882321F48091230170
:101660008823A9F088818B3091F48B81803479F4C0
:101670008F81891761F4988580912201981739F438
:10168000998580912301981711F4CE016ADFDF91CB
:10169000CF910895AEE1B0E0E0E5FBE00C94611A73
:1016A00080911D01882309F464C04A9B54C08FE3D4
:1016B0000E94BB018F7789838E3110F08DE1898381
:1016C0002C988FEF0E94B50110E052E0E52EF12C2E
:1016D000EC0EFD1E08C080E00E94B501F701E10F8D
:1016E000F11D80831F5F89811817A8F380E00E9495
:1016F000B501082F80E00E94B5012C9A7E01089464
:10170000E11CF11CC7017DDF8091150384FF0EC031
:101710008AE750D810E006C0F701E10FF11D808183
:1017200049D81F5F89818117B8F723C08AE542D85D
:1017300010E006C0F701E10FF11D8081A8D81F5FFE
:1017400089818117B8F78091150385FF02C0802F2A
:101750009ED843D80EC085E30E94BB01813149F475
:101760008AE30E94D70186E30E94D70184E30E94A6
:10177000D7016E96E6E00C947D1AAEE1B0E0E3ECA2
:10178000FBE00C94631A8C01FC018181823711F417
:10179000BCDD34C0833711F08636F1F4C8010296FF
:1017A000BE016F5F7F4F4DE1B9D890E0019729816D
:1017B00030E08217930721F08DEF91E012D81EC020
:1017C00060E070E0F8018181833711F461E070E03E
:1017D000CE010196D3DD12C0813629F4C8010296EC
:1017E0006EE171E006C0873739F4C801029661E204
:1017F00071E043E093D802C010921D016E96E4E0C0
:101800000C947F1A219A29985298E9E6F0E0808199
:101810008160808382EC91E09093140380931303A2
:10182000109244011092600110927C0110920D03FD
:101830000895982F06C04150FB01E40FF11D8081EF
:10184000980F4423C1F7892F0895AC0120E006C00A
:101850006150FA01E60FF11D808128276623C1F748
:10186000822F0895A0E0B0E0E8E3FCE00C945F1A5A
:10187000DC011092B00110929B0197E013968C91BD
:101880001397981B11961C911197110F110F110F9F
:10189000190F10929C01FF24EE2407E057E040E06E
:1018A00070E0E7E0CE2ED12CC1E0D0E07FC0FD019A
:1018B000EE0DF11D848190E0002E02C09595879574
:1018C0000A94E2F7282F2170002311F0015002C082
:1018D000E39407E06B3469F4533059F47723B9F596
:1018E000222311F071E062C040939B011092B0017D
:1018F0001EC05F3F69F56634E1F4E42FF0E0E45682
:10190000FE4F8081082E82958025082E869586952B
:10191000802590E00196959587958170907030E0D4
:101920008217930761F040939B017093B00180E0B0
:1019300057C0653411F06B3411F42223A1F34F5FCB
:10194000E42FF0E0E456FE4F108257E02FC070E025
:10195000222359F1663479F4E42FF0E0E456FE4F87
:101960009E01052E02C0220F331F0A94E2F78081E8
:10197000822B80831AC0653411F06B34B1F4E42FEC
:10198000F0E0E456FE4F852F992787FD909596014C
:10199000281B390BC9019E0102C0220F331F8A95F3
:1019A000E2F7C9012081282B20835150F3948F2D19
:1019B0008150811708F47BCF40939B017093B00155
:1019C0001F1508F0B4CF653411F45F3F11F0772391
:1019D00019F04F5F40939B0180919B01811181E041
:1019E000CDB7DEB7E8E00C947B1ADC0112968C913F
:1019F0001297ED91FC911197E80FF11DE08113967C
:101A00002C911397215013962C9313972F5F39F431
:101A10008F5F12968C93129787E013968C938E2F7C
:101A200090E002C0959587952A95E2F78170089518
:101A3000A0E0B0E0EEE1FDE00C945B1A6C01962EA4
:101A4000842EFF24C0E0D0E0F1E0AF2EB12C062FB1
:101A500010E00150104019C0C601C7DF8823A1F073
:101A6000882059F0C8018C1B9D0B950102C0220FE4
:101A7000331F8A95E2F7C90106C0C50102C0880F6D
:101A8000991FEA94E2F7F82A2196EC2EC91520F363
:101A90008F2DCDB7DEB7ECE00C94771AA4E0B0E060
:101AA000E4E5FDE00C945D1AFC0187E08C8334963C
:101AB000FA83E983349710929B01818190E023E0BF
:101AC000880F991F2A95E1F72381821B9109CE97F0
:101AD0000CF45AC01B82CC24DD245E010894A11CA6
:101AE000B11C2EC0ED2CFF24C50168E040E0A0DF52
:101AF000082F8CE991E0E80EF91EF7010083002E13
:101B000002950025002E069506950025C5016DDF7E
:101B100010E00F5F1F4F159507950170107090E052
:101B20000817190731F4C50160DF9D2D9F5F8823D9
:101B300019F0D0929B0128C0F7018081C826D92EC8
:101B4000F5E0FD1578F6D0929B01C50168E040E014
:101B50006FDFF82E082F002E02950025002E069527
:101B600006950025C50141DF10E00F5F1F4F159559
:101B700007950170107090E00817190729F480E0AC
:101B8000CF1419F481E001C080E02496EAE00C94BF
:101B9000791AA4E0B0E0EFECFDE00C945D1AFC01D2
:101BA0001B8287E08C833496FA83E9833497109202
:101BB0009B018081853009F053C0818190E043E032
:101BC000880F991F4A95E1F72381821B9109893873
:101BD000910509F045C019E83FE0C32E30EFD32E40
:101BE00080E05E010894A11CB11C10C0C50168E032
:101BF00041E01EDFC80ED11C2CE931E0E20EF31EDD
:101C00001827F7011083182F1C5D802FE82EFF2462
:101C1000082F0F5F8F3050F3C50168E041E008DF07
:101C2000182F2CE931E0E20EF31E8095F701808336
:101C300000939B01C50168E041E0FADE082FC10E68
:101C4000D11CC50168E041E0F3DE40E0302F20E028
:101C5000C21AD30A90E0C816D90619F441E001C0AF
:101C600040E0842F2496EAE00C94791AFC018181EB
:101C7000A82FB0E050E0E081CD01841B950B0B96BE
:101C80004797D8F48E2F90E070E09C01261B370B0D
:101C90002C30310594F4255F3F4F7CF08A0F9B1F59
:101CA000861B970B841B950B8C30910534F420E038
:101CB000855F9F4F1CF021E001C020E0822F089536
:101CC000282F30E0C901880F991F820F931F860FBC
:101CD000911D95958795959587950895DC011196A9
:101CE0008C9111978431A8F080916F008D7F809343
:101CF0006F008091980190E02CE130E0829FF0012C
:101D0000839FF00D929FF00D1124E85DFE4F10822D
:101D10000895662381F0FD01E80FF11D81E090E058
:101D200013960C90139702C0880F991F0A94E2F73C
:101D30002481282B248313968C911397815013961A
:101D40008C9313978F5F79F487E013968C93139796
:101D500011968C9111978F5F11968C931197A80F04
:101D6000B11D14961C9208951F920F920FB60F92F8
:101D70000BB60F921124EF92FF920F931F932F93A4
:101D80003F934F935F936F937F938F939F93AF9303
:101D9000BF93CF93DF93EF93FF938091150383FF5E
:101DA0001DC0C0918400D0918500109285001092D2
:101DB00084004A9902C082E701C086E60E94DA03E5
:101DC0008091150384FF08C0F4E0D695C795FA9575
:101DD000E1F78C2F0E94DA03E09AE1C080912E0394
:101DE000882321F082E080932E03D9C08091840063
:101DF00090918500E4E096958795EA95E1F7182F94
:101E0000E09098018CE1E89EE0011124C85DDE4F6E
:101E10008881843031F41E3208F4C1C01F3448F088
:101E2000ABC0853031F4173108F4B9C0183208F06E
:101E3000A3C0982F94504A990CC0923038F4CE0128
:101E400061E04CDF10928500109284001093CA016B
:101E5000A6C00091CA01F12EF01AF092CB011092A7
:101E6000850010928400923020F4CE0160E036DFCD
:101E700096C0B19A882371F4053608F090C084E6C4
:101E80008F1508F48CC0088FF98E81E08A8382E078
:101E9000888385C0823009F049C0CE014896602F02
:101EA0004F2DE4DE1A81882359F0888D602F08DFDA
:101EB000888F898D6F2D04DF898F1F5F1A836FC014
:101EC000143090F180EA9FE090938900809388001D
:101ED0001C3050F0298D888D90E0820F911D853641
:101EE000910514F084E013C01A3080F0298D888D9C
:101EF00090E0820F911D85974CF485E0888388EEF1
:101F000093E0909389008093880002C083E08883E7
:101F10000A8FFB8E198287E08B831C8280916F0071
:101F2000826080936F003BC01882A6CFCE014A9694
:101F3000602F4F2D9BDE882361F0CE0161E0CEDE65
:101F40008A8D602FBDDE8A8F8B8D6F2DB9DE8B8FD2
:101F500026C0CE014896602F4F2D88DE882361F081
:101F6000CE0160E0BBDE888D602FAADE888F898D70
:101F70006F2DA6DE898F13C080916F008D7F8093B7
:101F80006F002E2D30E08CE190E0289FF001299F1A
:101F9000F00D389FF00D1124E85DFE4F1082FF9187
:101FA000EF91DF91CF91BF91AF919F918F917F91F1
:101FB0006F915F914F913F912F911F910F91FF90E2
:101FC000EF900F900BBE0F900FBE0F901F901895C3
:101FD0001F920F920FB60F920BB60F9211242F93F0
:101FE0003F934F935F936F937F938F939F93AF93A1
:101FF000BF93EF93FF9310926F008091150383FFBF
:1020000003C08EE20E94DA0340919801242F30E051
:102010008CE190E0289FF001299FF00D389FF00D92
:102020001124E85DFE4F8081833018F08181823079
:1020300040F480916F008D7F80936F008CE190E081
:1020400016C080919A018330E9F48091150382FFD4
:1020500004C086E192E00E94F10380916F008D7FC1
:1020600080936F008091980190E02CE130E0829F96
:10207000F001839FF00D929FF00D1124E85DFE4F5B
:1020800010820BC08F5F80939A01842F8F5F8093A3
:102090009801843011F410929801FF91EF91BF9153
:1020A000AF919F918F917F916F915F914F913F91F0
:1020B0002F910F900BBE0F900FBE0F901F90189591
:1020C0000F931F93CF93DF938091CB018823E9F087
:1020D0008091150387FF17C084E30E94BB018058DD
:1020E000803410F480E00CC0803C10F08FE008C019
:1020F00090E08055904033E0959587953A95E1F7CB
:102100008F590E94DA031092CB0180919A018823A3
:1021100009F409C2119A909199018CE1989FE0010C
:102120001124C85DDE4FCE0134DD882311F003E5B4
:1021300099C0CE0166E496DB882309F4D3C14091AF
:102140009B01415040939B01942F56E007C0915052
:10215000E92FF0E0E456FE4F8081580F9923B9F73C
:10216000A42FB0E0FD01E456FE4F6081561711F434
:10217000443068F4852F90E00196262F30E08217D6
:10218000930779F4443068F0A456BE4F5C9306E49C
:1021900069C09150E92FF0E0E456FE4F8081280F8E
:1021A00002C0942F2CE09923A1F7261709F09AC1B9
:1021B000443008F497C19DC180919B018150809368
:1021C0009B01893009F097C199E020E09150E92FF7
:1021D000F0E0E456FE4F808128279923B9F78091DB
:1021E000A501281709F087C105E43CC040919B0177
:1021F000415040939B016091B001342F50E095E035
:1022000020E014C03150E32FF0E0E456FE4FE081AF
:102210008E2F82958F702827980F662311F05523F3
:1022200021F08E2F8F702827980F5F5F332351F78F
:10223000920F9295907F922BE42FF0E0E61BF1092C
:10224000E456FE4F8081981761F08B818F5F8B83FE
:102250008150873009F065C11B8289818150898353
:1022600060C10BE480911503782F80FFB4C081FF1B
:1022700002C020E05BC04091B10160919B01461714
:1022800091F51092B10120E00EC0E22FF0E0322F64
:102290003F5FDF01A456BE4FEE54FE4F90818C91FC
:1022A000981719F4232F241780F32093B1012617D0
:1022B000D1F480910F0390911003A0911103B0917C
:1022C00012032091C6013091C7014091C80150917D
:1022D000C901821B930BA40BB50B8697A105B10511
:1022E00010F421E001C020E01092B10190E00AC09A
:1022F000E92FF0E0DF01A456BE4F8C91EE54FE4F63
:1023000080839F5F9617A0F39093B10180910F0394
:1023100090911003A0911103B09112038093C60114
:102320009093C701A093C801B093C9010435E9F4A3
:1023300076FD1BC080919B018530B8F080919E0195
:102340008B3409F448C0893609F445C0833509F453
:1023500042C0843509F43FC08D37E9F18E37D9F199
:1023600080919F0180778037B1F12223A1F5802FE2
:102370000E94DA038091B001882329F080919B01AB
:10238000815080939B0110E008C0E12FF0E0E456FB
:10239000FE4F80810E9447041F5FE0919B011E1742
:1023A000A0F38091B001882359F0F0E0E456FE4F8D
:1023B000808190E08F70907061E040E30E940A0499
:1023C0008091150385FF05C084E30E94BB010E9434
:1023D00047040E94ED038091150382FF6DC080E7E2
:1023E0000E94DA03888190E062E040E20E944B04A0
:1023F000888D90E024E0880F991F2A95E1F765E029
:1024000040E20E944B04898D90E014E0880F991FF0
:102410001A95E1F765E040E20E944B048A8D90E056
:10242000B4E0880F991FBA95E1F765E040E20E9499
:102430004B048B8D90E0A4E0880F991FAA95E1F7DB
:1024400065E040E20E944B048A8190E063E040E254
:102450000E944B04898190E063E040E20E944B04BB
:102460002B8187E090E0821B910962E040E20E94AC
:102470004B0480E20E94DA038091150385FF08C0B7
:1024800084E30E94BB010E94470480E20E94DA03B9
:102490008B81873019F089818F5F898310E007C0B5
:1024A000FE01E10FF11D84810E9447041F5F8981B5
:1024B0001817B0F30E94ED03188280919A018150A1
:1024C00080939A01809199018F5F80939901843064
:1024D00011F4109299011198043529F58CE991E0D5
:1024E000CAD221C0CE0165E4BDD9882309F064CEEB
:1024F00002C004E5B7CECE01D1DA882311F008E49A
:10250000B1CECE014A966091CA014B8DAFDB682FE8
:10251000CE01E4DBCE016BE4A5D9882309F495CE86
:1025200065CE00E058CFDF91CF911F910F910895B4
:1025300080911503882321F00E9405030C94240246
:102540000C94DF01FC018181882371F480911503D3
:102550000E944704809113039091140365E040E2C8
:102560000E944B040C94ED03CF01019665E173E0EA
:1025700041E00E948E04DCCF282F813091F4299A0B
:102580002091070130910801C901880F991F820F1E
:10259000931F0E94CB032998809107019091080115
:1025A00034C08091070190910801222309F5299AEE
:1025B0000E94CB0329982091070130910801C9019D
:1025C000880F991F820F931F0E94CB03299A809135
:1025D0000701909108010E94CB03299820910701DF
:1025E00030910801C901880F991F820F931F20C0E5
:1025F000299A0E94CB032998209107013091080164
:10260000C901880F991F820F931F0E94CB03299A3B
:102610002091070130910801C901880F991F820F8D
:10262000931F0E94CB032998809107019091080184
:102630000C94CB030F931F93CF93DF93E898249AC6
:102640002C9A8EE190E00E94CB032C988EE190E0D2
:102650000E94CB032C9A8DE290E00E94CB0380E392
:102660000E94D70184E690E00E94CB032C9880E47E
:102670000E94B501CDE1D2E0FE0184910E94B50136
:102680002196F2E0CA32DF07B9F780910B010E9470
:10269000B50180910C010E94B50180910D010E944D
:1026A000B5012396FE0184910E94B5012196F2E0C6
:1026B000C634DF07B9F72C9A2C988EE70E94B50133
:1026C0008BE290E08C010F5F1F4F0E94EF040E948D
:1026D000B501C80103331105A9F72C9A83E30E94C1
:1026E000D70181E00E94D00381E080930D03DF9148
:1026F000CF911F910F910895CF92DF92EF92FF92A9
:102700001F93CF93DF937C01FC018181843759F4BF
:10271000C701029667E071E00E94C1048091070141
:102720009091080111C0833709F0A6C0F70182819A
:10273000823789F4C701039669E071E00E94C10401
:102740008091090190910A0160E040E20E944B04EF
:102750000E94ED03FEC0119A8091CE018823B1F44E
:1027600080911C01882329F081E08093CC01109294
:102770001C0180911D01882329F081E08093CD0107
:1027800010921D0157DF83E00E94D00386E30E9470
:10279000D7018AE30E94D7018BE30E94D7010E94F0
:1027A0003802CC24DD2424C08A81803311F480E0F7
:1027B00005C0813311F481E001C082E0DDDE1F5FDE
:1027C00021961D3089F7299A80910701909108017F
:1027D0000E94CB03299810E0809107019091080195
:1027E0000E94CB031F5F1F31B9F70894C11CD11C95
:1027F0008091090190910A01C816D90618F4E701E1
:1028000011E0D2CF8091CE01882341F08091150351
:10281000882379F486E30E94D70118C08091CC0107
:10282000882351F01092CC010E94C10881E080936E
:102830001C010E9424020AC08091CD01882329F046
:102840001092CD010E94850901C072DE119889E6BF
:102850000E94DA0383E70E94DA03E70111E08A812C
:10286000803319F0813309F086E40E94DA031F5F98
:1028700021961D30A1F76CCF8237B9F480911C01ED
:10288000882329F081E08093CC0110921C01809173
:102890001D01882329F081E08093CD0110921D0154
:1028A000C9DE81E08093CE0154C0863659F5F70128
:1028B0008281803351F480E180930B0180EB80931F
:1028C0000C0181E780930D0107C0C70102966BE000
:1028D00071E043E00E948E0489E60E94DA0386E6F6
:1028E0000E94DA038AE30E94DA0380910B010E94BE
:1028F000470480910C010E94470480910D010E94C1
:10290000470426CF883729F58091CC01882341F0F0
:102910001092CC010E94C10881E080931C0111C07B
:102920008091CD01882329F01092CD010E94850964
:102930000EC082E090E00E94A802809115038823D7
:1029400019F00E94240203C086E30E94D70110926E
:10295000CE01DF91CF911F91FF90EF90DF90CF904C
:102960000895DC01E7EDF1E00EC0109751F0918180
:102970008C91981731F4928111968C911197981738
:10298000A1F0E20FF11D2081222321F082E0E53841
:10299000F80758F382E0E538F80719F010F0E5E899
:1029A000F2E0AB2B11F0E0E0F0E0CF010895CF931F
:1029B000DF93EC01D6DFFC01009779F0909185025E
:1029C0008081981750F4E90FF11D80818A8389E78F
:1029D0008B8381818C8381E001C080E0DF91CF9186
:1029E00008950F931F93CF93DF938C01809115036C
:1029F00086FF18C084E50E94DA03C0E0D0E0F80149
:102A0000EC0FFD1F80810E9447042196C530D1053F
:102A1000B1F78091150385FF03C08AEF0E94470438
:102A20000E94ED03DF91CF911F910F91089586E3EE
:102A30000E94D7018091D201833511F08BE401C04F
:102A40008BE90E94D00380ED91E065E04CE021E04D
:102A50000E9492070E94240280ED91E0C2CFE7DF3E
:102A60008091D201893631F081E08093D60189E2EC
:102A700080932D0308951F93FC01408131811281C1
:102A8000938124818FE580932D031092D60150917C
:102A90001603552329F480912C03882309F4C5C01B
:102AA0008091D001841721F48091D101831771F0B6
:102AB000109218031092CF0183E0809385028FEF6C
:102AC00080932D034093D0013093D101809118035E
:102AD0008F3F09F4AAC01093D2019093D3012093A1
:102AE000D4011123E1F08823D1F4251761F02436B5
:102AF00051F0812F8355823010F01D3721F48FEF74
:102B00008093180392C0143509F48FC0892F807FF9
:102B1000803609F08AC090679093D30185C080ED1C
:102B200091E045DF882329F480911803882309F474
:102B30007CC09091CF01992311F0892F06C0E091BC
:102B40001803F0E0EA5BFD4F8491833541F41435BE
:102B500031F4809118038E5F809318030DC08117A4
:102B600059F0109218031092CF0183E080938502F0
:102B70008FEF80932D0359C0992379F080918502BE
:102B80008E5F8093850280ED91E011DF882371F4E0
:102B9000809118038E5F8093180390911803E92F9A
:102BA000F0E0E95BFD4F14911F3F59F48091D20191
:102BB0008093CF018436C1F5809117038093D401AF
:102BC00033C01093D20187E78093D301809116031D
:102BD0008093D401892F8E5F809318031092CF01C8
:102BE0008E3001F580ED91E0BCDEFC01009781F0B4
:102BF000808190E025E832E0281B390BDF01A80F27
:102C0000B91F02C08D918193E217F307D8F31082A8
:102C1000109218031092CF0183E0809385028FEF0A
:102C200080932D03112309F01ADF1F9108958091DD
:102C3000D601882351F0FBDE89E280932D03809139
:102C4000D60181508093D6010895109218031092F6
:102C5000CF0183E0809385028FEF80932D03089549
:102C6000A6E0B0E0E5E3F6E12AC440912C038091B0
:102C70001903882341F0833019F08DE790E015C0E7
:102C800087E791E012C0842F90E0877090702DE765
:102C900030E0BC01629FC001639F900D729F900D58
:102CA0001124825B9F489595879590931B03809391
:102CB0001A034A831B820CE113E0FF246E0108947F
:102CC000C11CD11C8CE2E82EF80190819F3FB1F02D
:102CD000809116038F0D898380911903882311F049
:102CE000EC8203C09C83F80181818D83C60165E07D
:102CF0004CE021E00E949207C60173DEF3940E5F60
:102D00001F4FF8E0FF1601F780911903882341F067
:102D1000833019F41092190303C082508093190371
:102D20002696E8E0E8C385E390E00E94EF048093F4
:102D3000160386E390E00E94EF0480932C03ECE1FD
:102D4000F3E09FEF9083329683E0EC32F807D1F7FF
:102D5000109218031092CF0183E080938502909324
:102D60002D031092D70108956F927F929F92AF9298
:102D7000BF92CF92DF92EF92FF920F931F93DF9358
:102D8000CF9300D000D000D0CDB7DEB73C017C019E
:102D90000894E11CF11CC701BE016F5F7F4F45E045
:102DA0000E948E04E981843008F0ACC0E130A9F4BF
:102DB000833061F485E390E06A810E94E00486E359
:102DC00090E06B810E94E004AEDF22C18091160387
:102DD0000E94470480912C0390C0E23009F04DC05E
:102DE000813029F020E030E08A81813011F421E047
:102DF00030E0E22E8091D701882321F48EE592E025
:102E00000E94F10307ED11E02EC081E0073D180795
:102E100019F080E20E94DA03F80181810E944704E0
:102E2000F80182810E944704EE20C9F08AE30E94E3
:102E3000DA0353E0F52E0FC0F3E0FF1528F4F0FE9F
:102E400003C08CE20E94DA03F801EF0DF11DF39448
:102E500080810E944704F8018081F81668F3F80128
:102E60008081080F111DF8018081882309F447C073
:102E7000F2E005381F0748F242C0E33049F480E031
:102E800090E06FDD27ED31E02255281B822F35C001
:102E9000E03149F50CE113E0EE24FF24F8018081D4
:102EA0008F3FA1F0EE2019F080E20E94DA038F2D0F
:102EB0000E9447048AE30E94DA03F80180810E949D
:102EC0004704F80181810E944704E3940E5F1F4F7D
:102ED000F394F8E0FF1611F7EE2089F48AE592E00A
:102EE0000E94F1030CC0E13151F480911A039091DA
:102EF0001B036DE770E0B2D2862F0E9447040E9448
:102F0000ED0386C080911603E817D0F1482F50E0FA
:102F1000F0E0CA0107968E179F0794F19A8180917D
:102F20002C03981769F58C818F3231F4C3016CE062
:102F300042E00E9407086CC02D818C32C1F42093BE
:102F4000190381E090E090931B0380931A0330E013
:102F5000220F331F220F331F80911303909114030C
:102F6000820F931F909314038093130351C0E41BAB
:102F7000F50BEE0FF0E0E45EFC4F8083218348C048
:102F800080E090E0EEDC8C01D7010D900020E9F7A5
:102F90001197AE19BF09B695A7959A2E9394890DEE
:102FA000911D875D91408F3A910574F5F8019082EB
:102FB0007801DD24D394CC24C3941BC0570108941A
:102FC000A11CB11CC3018C0D911DB50141E00E94F3
:102FD0008E04F2E0FD1548F4D0FC07C0F7018081B3
:102FE000843619F4818180931703F2E0CF0ED394D5
:102FF0007501D91418F382E00538180748F40D0D4F
:10300000111DF801108204C084E592E00E94F103D2
:1030100026960FB6F894DEBF0FBECDBFCF91DF91DD
:103020001F910F91FF90EF90DF90CF90BF90AF90E6
:103030009F907F906F900895A0E8B0E0E1E2F8E102
:103040003EC280912E03882309F455C0813011F5CA
:1030500080910F0390911003A0911103B09112037E
:1030600020918602281709F446C085E30E94BB011F
:10307000813129F48AE30E94D7010E9424028091C1
:103080000F0390911003A0911103B091120380934C
:10309000860231C08FE30E94BB01D82E87FD28C075
:1030A0002C988FEF0E94B5017E010894E11CF11C61
:1030B0008701CE2C06C080E00E94B501F801819303
:1030C0008F01802F8C198D15B0F32C9A81E080939D
:1030D000170105C0F70181917F010E94DA038E2D4F
:1030E0008C198D15B8F30E94ED038FEF80931701B3
:1030F00081E080932E03C058DF4FE8E0FCC10F93BE
:103100001F93CF93DF93EC01DC010D900020E9F7D2
:103110001197A81BB90B8981823751F487E390E09E
:103120000E94A8020E94240281E080932E0329C0FD
:10313000833729F50A2F2C988FE70E94B501802F3D
:1031400082500E94B50112E004C089810E94B5013D
:103150001F5F21961017C8F32C9A0E94380204C0F2
:1031600084E690E00E94CB038AE30E94BB0190E0DA
:103170008F779070892BA1F70E94240202C01092D1
:103180002E03DF91CF911F910F910895CF93DF937D
:1031900082E40E94DA03C0913504D0913604CE0156
:1031A00065E040E20E944B040E94ED0383E50E942B
:1031B000DA03809110019091110165E040E20E94D4
:1031C0004B040E94ED0385E40E94DA038091120112
:1031D0009091130165E040E20E944B040E94ED03D0
:1031E00086E40E94DA03209721F4C0911001D09167
:1031F000110120911201309113012115310541F483
:103200002DB73EB780910E0190910F01281B390B0D
:10321000C217D30718F080E090E003C0C9018C1BEF
:103220009D0B65E040E20E944B040E94ED03DF919C
:10323000CF9108959C0197FF04C082E08093C00065
:103240003F773093C5002093C40088E98093C10084
:1032500086E08093C2000895E0910B03F0910C0387
:1032600081E009958091C10085FD09C080913103FD
:10327000882329F08091C10080628093C100089565
:103280001F920F920FB60F920BB60F9211242F932D
:103290003F934F935F936F937F938F939F93AF93DE
:1032A000BF93EF93FF9382B192E0892782B9609137
:1032B000C6008091C000887121F482EB93E00E94E7
:1032C000DA05FF91EF91BF91AF919F918F917F911F
:1032D0006F915F914F913F912F910F900BBE0F9087
:1032E0000FBE0F901F9018951F920F920FB60F925E
:1032F0000BB60F9211242F933F934F935F936F93CD
:103300007F938F939F93AF93BF93EF93FF9380919E
:103310003103882339F08FE293E00E94EF05809318
:10332000C60005C08091C1008F7D8093C100FF91D0
:10333000EF91BF91AF919F918F917F916F915F912D
:103340004F913F912F910F900BBE0F900FBE0F909A
:103350001F9018950F931F93CF93DF93EC0100E01C
:10336000802F90E09C01220F331F280F391FF90195
:10337000E457FF4F1491F901E357FF4F2591349122
:10338000112399F0209739F480E20E94DA03812F0B
:103390000E94DA0308C08881811729F4CE01F9015F
:1033A000099581E003C00F5FDBCF80E0DF91CF9113
:1033B0001F910F9108951F9310911701809317018A
:1033C00035C082EB93E00E94EF058A3011F08D301A
:1033D00009F5E0918702EE2349F1F0E0E857FD4F4F
:1033E000108288E892E0B6DF882389F48AE792E0C9
:1033F0000E94F10388E892E00E94FE0382E692E0D8
:103400000E94F10380E090E0A5DF0E94ED0310929E
:1034100087020CC09091870297FD08C0E92FF0E069
:10342000E857FD4F80839F5F909387028091B4039C
:10343000882339F6109317011F910895E4E6F0E010
:1034400080818B7F80832F9A84B1806B84B926988A
:1034500080E58CBD8DB581608DBD0895AA1BBB1B19
:1034600051E107C0AA1FBB1FA617B70710F0A61B84
:10347000B70B881F991F5A95A9F780959095BC01A5
:10348000CD01089597FB092E07260AD077FD04D0B9
:10349000E5DF06D000201AF4709561957F4F0895FE
:1034A000F6F7909581959F4F08952F923F924F92F6
:1034B0005F926F927F928F929F92AF92BF92CF92C4
:1034C000DF92EF92FF920F931F93CF93DF93CDB7CD
:1034D000DEB7CA1BDB0B0FB6F894DEBF0FBECDBF45
:1034E00009942A88398848885F846E847D848C8416
:1034F0009B84AA84B984C884DF80EE80FD800C811F
:103500001B81AA81B981CE0FD11D0FB6F894DEBF01
:0C3510000FBECDBFED010895F894FFCF71
:10351C0078780002323100A401060010B07120004E
:04352C00390400005E
:00000001FF
