:10000000CEC10000ECC10000EAC10000E8C1000060
:10001000E6C10000E4C10000E2C10000E0C1000050
:10002000DEC10000DCC10000DAC10000D8C1000060
:10003000D6C10000D4C10000D2C10000D0C1000070
:10004000CEC10000CCC10000CAC10000C8C1000080
:10005000C6C10000C4C10000C2C10000C0C1000090
:10006000BEC100003EC30000BAC10000B8C100001C
:10007000B6C10000B4C10000B2C10000B0C10000B0
:10008000AEC10000ACC10000AAC10000A8C10000C0
:10009000A6C10000A4C10000A2C10000A0C10000D0
:1000A0009EC100009CC100009AC1000098C10000E0
:1000B00096C1000094C1000092C1000090C10000F0
:1000C0008EC100008CC100008AC1000088C1000000
:1000D00086C1000084C1000082C1000080C1000010
:1000E0007EC100007CC100007AC1000078C1000020
:1000F00076C1000074C1000072C1000070C1000030
:100100006EC100006CC100006AC1000068C100003F
:1001100066C1000064C1000062C1000060C100004F
:100120005EC100005CC100005AC1000058C100005F
:1001300056C1000054C1000052C1000050C100006F
:100140004EC100004CC100004AC1000048C100007F
:1001500046C1000044C1000042C1000040C100008F
:100160003EC100003CC100003AC1000038C100009F
:1001700036C1000034C1000032C1000030C10000AF
:100180002EC100002CC100002AC1000028C10000BF
:1001900026C1000024C1000022C1000020C10000CF
:1001A0001EC100001CC100001AC1000018C10000DF
:1001B00016C1000014C1000012C1000010C10000EF
:1001C0000EC100000CC100000AC1000008C10000FF
:1001D00006C1000004C1000002C1000000C100000F
:1001E000FEC00000FCC00000FAC00000F8C0000023
:1001F000F6C0000058C70000F2C00000F30312046C
:10020000D2041204D20453046704D204AF04B80425
:100210001C034C00550046004100200043004400F0
:1002200043002000440065006D006F0000001803CB
:100230004400650061006E002000430061006D0015
:1002400065007200610000000403090409023E0019
:10025000020100C03209040000010202010005246D
:10026000001001042402060524060001070582038C
:100270000800FF09040100020A000000070504024B
:10028000100005070583021000051201100102008D
:100290000008EB03442001000102DC016E616E00E6
:1002A000696E660000407A10F35A00A0724E180979
:1002B0000010A5D4E80000E87648170000E40B54CD
:1002C000020000CA9A3B000000E1F505000080969C
:1002D0009800000040420F000000A08601000000CE
:1002E000102700000000E803000000006400000088
:1002F00000000A00000000000100000000002C7651
:10030000D888DC674F0823DFC1DFAE59E1B1B7966B
:10031000E5E3E453C63AE651997696E8E6C28426C8
:10032000EB898C9B62ED407C6FFCEFBC9C9F40F2A4
:10033000BAA56FA5F490055A2AF75C936B6CF96720
:100340006DC11BFCE0E40D47FEF520E6B500D0EDE5
:10035000902E0300943577050080841E080000204D
:100360004E0A000000C80C333333330F986E1283EB
:100370001141EF8D2114893BE65516CFFEE6DB18BF
:10038000D1844B381BF77C1D901DA4BBE424203284
:1003900084725E228100C9F124ECA1E53D2711247D
:1003A0001FBECFEFCDBFDFE5DEBF00E00CBF10E228
:1003B000A0E0B0E2E6E3FFE100E00BBF02C007907F
:1003C0000D92AC31B107D9F725E2ACE1B0E201C042
:1003D0001D92AF31B207E1F76DD00C94990F10CE9A
:1003E00080E180935500809150008061809350009F
:1003F0008091510084FFFCCF2FB7F89434E088ED52
:1004000090E0A0E4B0E01BBEFD0184BF30832FBFAD
:100410008FE39FE10197F1F700C000008091400059
:10042000809150008260809350008091510081FF44
:10043000FCCF8091560084608093560080E88093C2
:1004400065008BEB8093660082E08093CA01EDE14A
:10045000F0E0E491E0936200ECE1F0E0E491E093FD
:1004600063001092CA0181E08093600087E080936E
:10047000A20090E29093610682E0809341069093FF
:1004800065068093460688E08093410684E0809369
:10049000420640E060EA78E08FE190E20E94500A74
:1004A000E0911F20F091202083818F7C80618383E5
:1004B0007894C4C595DF7894C0E0D0E212E080E083
:1004C00090E2FDD697FD12C020911C202223B9F3A3
:1004D000C11103C010934506C1E0D0936706209177
:1004E000A10825FFFCCF8093A008E9CFCC2359F0C9
:1004F0008091A10880648093A1088091A10886FF63
:10050000FCCF1093460680910120A3D380911C203C
:10051000811113C080E090E2B7D652D280911D20A5
:1005200090911E209C012F5F3F4F20931D20309300
:100530001E20892BB9F0C0E0C2CFB9D3882351F374
:10054000C1E18FE190E2BAD7882321F3C15011F3C2
:100550008FE190E2BED7682F80E090E230D6D09352
:100560006706EFCF80911C20882329F3D09367067C
:10057000E2CF0895089580E090E2FCC580E090E22B
:10058000F1C6FC01818D813021F0823021F020E024
:1005900003C020E301C020E2408D828D873049F006
:1005A000883029F0863009F09BC031E003C033E089
:1005B00001C032E084899589A689B789803850E7DF
:1005C0009507A105B10509F459C008F5803855E231
:1005D0009507A105B10509F448C068F4803659E0D3
:1005E0009507A105B105F1F1803C9241A105B10546
:1005F00009F456C00895803458E39507A105B10564
:10060000B9F181159B44A105B105A9F108958115A2
:100610005CE2950751E0A507B105C9F160F48115C9
:1006200056E99507A105B10561F18115914EA10526
:10063000B10551F10895811554E8950753E0A507D8
:10064000B10541F1811558E0950757E0A507B105BF
:1006500021F18115924CA140B10509F041C093E808
:100660008DEF20C09CE086E01DC09CE084E01AC0B5
:100670009AE880E017C09CE083E014C099E88FEF0F
:1006800011C09CE082E00EC097E88EEF0BC09CE0AA
:1006900081E008C09BE78CEF05C09BE68BEF02C0B2
:1006A0009CE085E0232B423011F448E001C040E09B
:1006B000422B4093A5089093A60820E18202C00136
:1006C00011248093A7088091A40880618093A408D6
:1006D0008091A40888608093A40881E080931C2006
:1006E00008951F920F920FB60F9211240BB60F921E
:1006F0002F933F934F935F936F937F938F939F932A
:10070000AF93BF93EF93FF938FE190E2EFD6FF910A
:10071000EF91BF91AF919F918F917F916F915F9179
:100720004F913F912F910F900BBE0F900FBE0F90E6
:100730001F901895292F33272230310559F0233087
:10074000310569F021303105F9F482E190E02AE8C1
:1007500032E01EC08EE390E02CE432E019C099270D
:100760008130910541F08230910541F0892B61F48F
:10077000E8E4F2E005C0EEE2F2E002C0E0E1F2E01F
:10078000849190E09F0104C080E090E020E030E0A0
:10079000FA012083318308950F931F93CF93DF9342
:1007A000CDB7DEB7EA97CDBFDEBF0BE212E231D2A2
:1007B000F80181938F01F2E203331F07C1F7DEDEF8
:1007C0009BD2882309F4EEC020912B2230912C2259
:1007D000832F90E08A30910508F0E4C0FC01E250DC
:1007E000FF4F0C94150E203891F0223809F0DAC032
:1007F00080912F228F702DD2E0913522F0913622F8
:10080000118112FB112710F980E023D206C010914C
:100810002722809128228111126087D2812F09D24C
:1008200080E0A2C0822F8D7F09F0BCC0222319F086
:10083000223061F0B7C080912D22813009F0B2C022
:10084000333009F080E08093282229C080912D2246
:10085000811125C010912F221F7009F4A3C0812F90
:10086000F8D180912C22833011F48BD218C0A09142
:100870003522B091362211968C9111978B7F11966B
:100880008C9324E8129FF0011124E758FD4D10824B
:10089000E0913522F091362280818E7F808380E046
:1008A000D8D143D263C021117DC010912D221F7772
:1008B0003CD23CD3FCD18823E9F31093C304112329
:1008C00011F083E001C082E080932A226BC020589F
:1008D000223008F067C080912D2290912E228C3D0D
:1008E000E3E09E0761F583E08A838AE389834FB75B
:1008F000F894DE01139620E038E052E05093CA01EC
:10090000E32FF0E0E4911092CA0120FF03C0E295CA
:10091000EF703F5FEF708E2F90E0EA3010F0C796D7
:1009200001C0C0968D939D932F5F2C3139F74FBF37
:10093000FCD16AE370E0CE01019653D00EC0AE0147
:100940004F5F5F4F60912F22F5DE8C01009751F1D0
:10095000ECD1B80189819A81BBD04CD123C0203819
:1009600009F5E3D18091262264D12BD1DFD21AC0C0
:10097000211118C080912D228230A0F4D6D180910F
:100980002D2280932622D2D280912622811104C06A
:100990008091C304882311F084E001C081E080933A
:1009A0002A22E9DDA9D1882311F0BFD1EAD1EA9644
:1009B000CDBFDEBFDF91CF911F910F9108950895B4
:1009C000CF9380912A22882351F0C091372280E072
:1009D00040D192D18111E0DE8C2FCF913AC1CF91DD
:1009E0000895DF92EF92FF920F931F93CF93DF93BF
:1009F000182F092FEB018091372280682AD120918E
:100A00003122309132222C173D0720F0209719F423
:100A1000D8D001C0E901E12EF02ED12C209709F4A5
:100A20003EC080912A22811102C082E049C08530F7
:100A300011F483E045C060D1811141C044D18111DE
:100A400039C035D1882351F3209137228091332248
:100A500090913422FC0127FF05C0EF5BFF4F00811E
:100A600010E013C0E05CFF4F00813196808110E000
:100A7000081B11090AC00830110548F4F7018191DB
:100A80007F01D7D021970F5F1F4F2097A1F7DD245B
:100A9000D3940830110509F0D12C93D0BFCFD110D9
:100AA000C0CF08C080912A22882309F4BECF8530A8
:100AB00009F4BFCF08D18823A9F380E001C081E009
:100AC000DF91CF911F910F91FF90EF90DF900895EC
:100AD000DF92EF92FF920F931F93CF93DF93182F24
:100AE000092FEB01809137228068B3D02091312209
:100AF000309132222C173D0720F0209719F461D055
:100B000001C0E901E12EF02ED12C209709F440C05C
:100B100080912A22811102C082E04BC0853011F4FD
:100B200083E047C0E9D0811143C0CDD081113BC0E3
:100B3000BED0882351F320913722809133229091A7
:100B40003422FC0127FF05C0EF5BFF4F008110E05E
:100B500015C0E05CFF4F00813196808110E0081BDA
:100B600011090CC00830110558F4F701849161D0C7
:100B7000FFEFEF1AFF0A21970F5F1F4F209791F7A2
:100B8000DD24D3940830110509F0D12C1AD0BDCF43
:100B9000D110BECF08C080912A22882309F4BCCF8F
:100BA000853009F4BDCF8FD08823A9F380E001C040
:100BB00081E0DF91CF911F910F91FF90EF90DF9037
:100BC0000895E0913522F0913622A0913322B09120
:100BD0003422AF5BBF4F8C9190E0828393838081FE
:100BE0008D798083E0913322F0913422EF5BFF4FC7
:100BF00010820895E0913522F091362280818D791E
:100C00008083E0913322F0913422EF5BFF4F10821A
:100C100008958091332290913422FC01EF5BFF4FC5
:100C2000208131E0320F3083FC01E20FF11D808121
:100C300008952091332230913422F901EF5BFF4F68
:100C4000908141E0490F4083F901E90FF11D808354
:100C5000089580933722482F4F7094E8499F900160
:100C60001124285C3D4D6091C6047091C70490E149
:100C7000499FA001112487FF0FC02E5B3F4F209397
:100C8000332230933422CA010896860F971F80932F
:100C900035229093362208952093332230933422C4
:100CA000460F571F40933522509336220895809166
:100CB00037228068CEDFE0913522F09136228081A4
:100CC000869581700895809137228F77C2DFE091F9
:100CD0003522F0913622808185FF0CC0209133228D
:100CE0003091342282819381F901E05CFF4F80834F
:100CF00081E0089580E00895809137228F77A9DF01
:100D0000E0913522F0913622808184FF0CC0209141
:100D100033223091342282819381F901E05CFF4FCC
:100D2000808381E0089580E00895809137228F7755
:100D300090DFE0913522F091362280818D7880839A
:100D4000E0913522F0913622808181608083E091AC
:100D50003322F0913422EF5BFF4F108280913722D3
:100D6000806877DFE0913522F091362280818160C2
:100D70008083E0913322F0913422EF5BFF4F1082A9
:100D80000895E0913522F09136228181846081833B
:100D9000E0913522F09136228181807C803459F4B3
:100DA00080913722805855DFE0913522F09136222C
:100DB00081818460818308951F93CF93DF931F9275
:100DC0001F92CDB7DEB7182F4A83698342DFE091C7
:100DD0003522F09136221182E0913522F0913622AF
:100DE000812F881F8827881F880F8083E0913522F4
:100DF000F091362269816183E0913522F0913622AB
:100E0000128213822091332230913422248335833D
:100E1000110F110B4A811423F901E05CFF4F10837D
:100E20003196108281E00F900F90DF91CF911F914A
:100E30000895CF92DF92EF92FF920F931F93CF937B
:100E4000DF931F921F92CDB7DEB7E62E6C01F12C17
:100E5000FE1409F444C0F60190819923D9F101816F
:100E6000128183812481223010F058E101C058E0C2
:100E700028E030E040E02017310720F44F5F220FD8
:100E8000331FF9CF452B292F2F7030E02530310546
:100E900014F080E025C0242F2F7E01341105C8F7FF
:100EA000882321F0813021F4206C0EC0206403C01F
:100EB0002068811109C0402F622F80E8890F2A83A2
:100EC00099837ADF99812A81402F622F892F74DFDD
:100ED0008823F9F2F394F5E0CF0ED11CB9CF81E06D
:100EE0000F900F90DF91CF911F910F91FF90EF9096
:100EF000DF90CF90089580E090E0E091C604F091FB
:100F0000C7049C0174E0220F331F7A95E1F7E20FCA
:100F1000F31F1186E091C604F091C704E20FF31F9E
:100F2000118201968530910541F7089580912B2219
:100F300087FD04C0BCDE882351F00EC0C4DE8111E1
:100F400005C080912A228111F9CF089553CE809156
:100F50002A228111EFCF089534CE1F93CF93DF93D0
:100F6000E091C604F091C704E05BFF4FC081D181DE
:100F700014E6809137228078803851F498DE811110
:100F800005C080912A22811105C021C080E024C0C3
:100F90009ADEF5CF8530E9F0E0913522F0913622E6
:100FA000818182FD18C0E091C604F091C704E05B26
:100FB000FF4F808191818C179D07D9F22FEF210F70
:100FC000112319F0EC01122FD4CF84E005C082E088
:100FD00003C083E001C081E0DF91CF911F910895AC
:100FE000CF93DF93E0E4F0E0148284818360848314
:100FF0004DD053D0C0ECD4E088818F77888388812E
:101000008068888310922A22109226221092282229
:101010001092272288818064888348E068E480E811
:10102000CBDE48E068E480E0C7DE8885806488879E
:10103000898181608983DF91CF9108952FB7F894DA
:1010400082E0E0ECF1E08287EAE1F0E0E491A0ECFC
:10105000B4E0DA96EC93DA97EBE1F0E0E491DB961A
:10106000EC93DB97E0ECF1E012868DEC94E28E7F5E
:1010700016968D939C93179784E18C9383E0189632
:101080008C932FBF81E080932922AACFE0ECF4E07B
:1010900080858370808711860895E0ECF4E08FEFFF
:1010A0008287848708951F920F920FB60F921124A2
:1010B0000BB60F922F933F934F935F936F937F9352
:1010C0008F939F93AF93BF93EF93FF938091CA0445
:1010D00087FF08C08091C80487FF04C080E8809320
:1010E000CA046DDC8091CA0486FF06C080E4809348
:1010F000CA0410922A223EDA8091CA0485FF11C0E8
:1011000080E28093CA0480912622811104C08091DC
:10111000C304882311F084E001C081E080932A2277
:1011200028DA8091CA0484FF12C080E18093CA0447
:1011300082E080932A2210922622DDDE48E068E4D5
:1011400080E83ADE48E068E480E036DE38DCFF9193
:10115000EF91BF91AF919F918F917F916F915F912F
:101160004F913F912F910F900BBE0F900FBE0F909C
:101170001F901895CF93DF93EC01FC0170968BE0E4
:10118000DF011D928A95E9F782E08C83898783E0ED
:101190008E8761E0CE0101964CDE882361F061E02C
:1011A000CE01069646DE882331F061E0CE010B9633
:1011B000DF91CF913ECE80E0DF91CF910895CF9324
:1011C000FC01C62F80912A228430F9F44489558984
:1011D00066897789452B462B472BB9F0818139DD0C
:1011E0002091332230913422F901EF5BFF4F90813F
:1011F00031978081981720F48C2F1BDD80E006C08A
:10120000E0DCABDE8823C1F301C082E0CF9108951A
:10121000CF93DF9320912A22243091F5FC01448959
:10122000558966897789452B462B472B49F1818162
:1012300010DD209137228091332290913422FC01DD
:1012400027FF05C0EF5BFF4F208130E008C0E05C66
:10125000FF4F20813196408130E0241B3109232B40
:1012600069F0FC01EF5BFF4FD0813197C081A9DCB1
:10127000DC1720F072DE811104C0A3DC80E001C025
:1012800082E0DF91CF910895CF93DF93EC018091BD
:101290002A22843089F44C895D896E897F89452BA7
:1012A000462B472B49F08981D4DC01DD882321F0CE
:1012B000CE01DF91CF91ACCFDF91CF910895CF9345
:1012C000DF9320912A22243019F08FEF9FEF46C040
:1012D000FC014489558966897789452B462B472B24
:1012E000A1F38681B6DCEFDC882379F38091372285
:1012F0002091332230913422F90187FF05C0EF5B42
:10130000FF4F808190E008C0E05CFF4F8081319604
:10131000208190E0821B9109892B21F07ADCC82F73
:10132000D0E002C0CFEFDFEF80913722209133224F
:1013300030913422F90187FF05C0EF5BFF4F8081B8
:1013400090E008C0E05CFF4F80813196208190E002
:10135000821B9109892B09F44DDCCE01DF91CF91DD
:1013600008950895FF920F931F93CF93DF93EC019D
:10137000C3DC882309F48EC0888190E020912F225D
:10138000309130222817390709F084C080912C222F
:10139000813259F018F4803249F17CC0823209F46C
:1013A00057C0833209F467C075C080912B22813AFF
:1013B00009F070C0BADC7BDC8823E9F38C89FD88F6
:1013C0000E891F8936DC8F2D34DC802F32DC812F93
:1013D00030DC888D2EDC898D2CDC8A8D2ADCF1DBDB
:1013E000DF91CF911F910F91FF90A0CD80912B2283
:1013F000813209F04FC099DC66DC811105C0809113
:101400002A228111F9CF46C004DC082F02DC182FF4
:1014100000DCF82EFEDB4F2D50E060E070E0BA01FA
:1014200055274427782B402B512B4C8B5D8B6E8B93
:101430007F8BEFDB888FEDDB898FEBDB8A8FDADB4D
:1014400075DDCE01DF91CF911F910F91FF9099C86B
:1014500080912B228132F1F468DC68DD80912D22AD
:1014600090912E22888B998BCE01DF91CF911F9185
:101470000F91FF9076CF80912B22813259F455DC69
:1014800055DD60912D22CE01DF91CF911F910F91FB
:10149000FF9067CFDF91CF911F910F91FF9008953B
:1014A000FC01608371834283EC5FFD4F10823197B2
:1014B000108233961082319710820895FC01ED5FFF
:1014C000FD4F20813196908181E0291301C080E099
:1014D0000895FC01EC5FFD4F2081DC01A20FB11DDE
:1014E00013968C9190819F5F90830895CF93DF93A3
:1014F000FC01ED5FFD4F20812F5FDC01AC5FBD4F34
:101500004C91EC01A881B9813C91241749F04081AC
:10151000DC01A40FB11D13963C93208381E001C030
:1015200080E0DF91CF9108952F923F924F925F928A
:101530006F927F928F929F92AF92BF92CF92DF92E3
:10154000EF92FF920F931F93CF93DF93CDB7DEB748
:101550006397CDBFDEBF7C011B016A01FC011682CF
:101560001782838181FF49C3BE016F5F7F4F4B01AB
:10157000F7019381F10193FD859193FF81911F0103
:10158000882309F436C3853239F493FD859193FF9E
:1015900081911F01853231F4B70190E03AD45601B0
:1015A0006501E6CF10E0512C20E02032A0F48B3210
:1015B00069F030F4803259F0833269F420612CC034
:1015C0008D3239F0803339F4216026C022602460E6
:1015D00023C0286021C027FD27C030ED380F3A30E6
:1015E00078F426FF06C0FAE01F9F300D1124132F58
:1015F00013C06AE0569E300D1124532E20620CC099
:101600008E3221F426FDF5C2206406C08C3611F41A
:10161000206802C0883641F4F10193FD859193FF63
:1016200081911F018111C1CF9BEB980F933018F46A
:101630002061805E06C09BE9980F933008F09AC144
:101640002F7E26FF16E02F73722E853621F4F22F9F
:10165000F0647F2E08C0863621F4622F6068762EF3
:1016600002C01111115077FE07C01C3348F4442406
:101670004394410E27E00BC0183030F4212F06C0F0
:1016800027E04CE3442E03C027E017E0412C56012D
:1016900074E0A70EB11CF601608171818281938193
:1016A000042DA401C8D26C01098100FF02C003FF10
:1016B00006C071FC07C072FC08C0612C08C03DE286
:1016C000632E05C02BE2622E02C090E2692E802FAD
:1016D0008C7081F1662011F084E001C083E08515F3
:1016E00010F0512C0AC0581A73FC07C0B70180E2F1
:1016F00090E08FD35A94D1F7F4CF662021F0B70150
:10170000862D90E086D303FD03C000EA12E002C0FC
:101710000CE912E0F72DF0717F2EF80184918823F7
:1017200009F45EC271108052B70190E072D30F5F6E
:101730001F4FF3CF77FE0FC04C0C04FF04C08A810B
:10174000813309F44A94141474F5F8E0F41578F52B
:1017500088E0482E2CC076FC2AC0812F90E08C15A2
:101760009D059CF06CEFC6166FEFD60674F0772DD2
:101770007068772E0AC0E2E0F0E0EC0FFD1FE10F89
:10178000F11D8081803319F411501111F4CF77FECF
:101790000EC044244394410E812F90E0C816D90610
:1017A0002CF41C1904C04424439401C010E077FEBB
:1017B00007C01C141D043CF496012F5F3F4F05C069
:1017C00025E030E002C021E030E0662011F02F5F1C
:1017D0003F4F112331F0412F50E04F5F5F4F240FF7
:1017E000351F452D50E02417350714F4521A01C057
:1017F000512C872D897041F4552031F0B70180E2DA
:1018000090E007D35A94F8CF662021F0B701862DD7
:1018100090E0FFD273FC08C0552031F0B70180E39F
:1018200090E0F7D25A94F8CF77FE5DC09C2D8D2DB5
:10183000D7FE02C090E080E0692E782E40E050E0B4
:10184000C601841991098C879D879601261937094D
:10185000280D391D812F90E0EE27FF27E81BF90B9B
:10186000EE87FF87FFEF6F167F0661F4B7018EE208
:1018700090E02B8B3A8B488B598BCBD25989488976
:101880003A892B89C614D70454F06C857D8566157A
:1018900077052CF4F901E40FF51F818101C080E385
:1018A00071E0671A71084F5F5F4FEE85FF856E1616
:1018B0007F0664F0B70190E02B8B3A8B488B598BF5
:1018C000A8D22B893A8948895989CCCF6C147D04D8
:1018D00039F49A81963318F4953311F404FF81E3B7
:1018E000B70190E045C08A81813309F00F7EB701CE
:1018F00090E08FD2111105C074FE16C085E490E00F
:1019000015C0B7018EE290E084D282E06624639431
:10191000680EF401E80FF11D8081B70190E079D2E3
:10192000115051F3862DF2CF85E690E0B70171D2C8
:10193000D7FC05C0C114D10439F404FF05C0D1940B
:10194000C194D1088DE201C08BE2B70190E061D271
:1019500080E36AE0C616D1042CF08F5FFAE0CF1A5C
:10196000D108F7CFB70190E054D2B701C601C096B5
:1019700050D236C1833631F0833779F0833509F0A0
:1019800054C020C0560172E0A70EB11CF601808140
:10199000898301E010E0640113C05601F2E0AF0E4C
:1019A000B11CF601C080D18026FF03C0612F70E01A
:1019B00002C06FEF7FEFC6012B8B20D28C012B89E9
:1019C0002F7714C05601F2E0AF0EB11CF601C080B3
:1019D000D18026FF03C0612F70E002C06FEF7FEF60
:1019E000C6012B8B00D28C012B892068722E23FD1F
:1019F00018C0852D90E00817190798F4B70180E208
:101A000090E007D25A94F5CFF60177FC859177FEE6
:101A100081916F01B70190E0FCD151105A940150AF
:101A200011090115110581F7DBC0843611F08936E3
:101A300049F5560127FF09C0F4E0AF0EB11CF601CD
:101A400060817181828193810AC0F2E0AF0EB11C86
:101A5000F60160817181882777FD8095982F022F8C
:101A60000F7697FF08C090958095709561957F4F90
:101A70008F4F9F4F00682AE030E0A401FCD1C82EB0
:101A8000C8183DC0022F853721F40F7E2AE030E0D0
:101A90001DC0097F8F3691F018F4883559F0A9C020
:101AA000803719F0883711F0A4C0006104FF09C025
:101AB000046007C024FF08C0066006C028E030E0CC
:101AC00005C020E130E002C020E132E0560107FF0E
:101AD00009C0F4E0AF0EB11CF60160817181828112
:101AE000938108C0F2E0AF0EB11CF60160817181F4
:101AF00080E090E0A401BFD1C82EC8180F7706FF80
:101B00000BC0202F2E7FC11650F404FF0AC002FD27
:101B100008C0202F2E7E05C0DC2C202F03C0DC2C1B
:101B200001C0D12E24FF0DC0FE01EC0DF11D8081FE
:101B3000803311F4297E09C022FF06C0D394D394C8
:101B400004C0822F867809F0D39423FD12C020FFB1
:101B500006C01C2DD51418F4150D1D19D52CD5143F
:101B600060F4B70180E290E02B8B53D1D3942B89A2
:101B7000F6CFD51410F45D1801C0512C24FF11C00C
:101B8000B70180E390E02B8B44D12B8922FF16C054
:101B900021FF03C088E590E002C088E790E0B7012C
:101BA0000CC0822F867851F021FD02C080E201C076
:101BB0008BE227FD8DE2B70190E02BD1C11630F406
:101BC000B70180E390E025D11150F8CFCA94F40119
:101BD000EC0DF11D8081B70190E01BD1C110F6CF53
:101BE000552009F4DDCCB70180E290E012D15A947F
:101BF000F7CFF7018681978102C08FEF9FEF639641
:101C0000CDBFDEBFDF91CF911F910F91FF90EF907D
:101C1000DF90CF90BF90AF909F908F907F906F900C
:101C20005F904F903F902F900895EE0FFF1F05900B
:101C3000F491E02D1994283008F027E03327DA01D9
:101C4000990F311D87FD916000966105710539F48A
:101C500032602E5F3D9330E32A95E1F708959F3F70
:101C600030F080387105610509F03C5F3C5F3D93C1
:101C7000913008F08068911DDF93CF931F930F93ED
:101C8000FF92EF92192F987F9695E92F969596954A
:101C9000E90FFF27E250FD4F99273327EE24FF2459
:101CA000A701E70105900894079428F4360FE71E72
:101CB000F81E491F511D660F771F881F991F069434
:101CC000A1F70590079428F4E70EF81E491F561F48
:101CD000C11D770F881F991F661F0694A1F70590F5
:101CE000079428F4F80E491F561FC71FD11D880FEF
:101CF000991F661F771F0694A1F70590079420F49B
:101D0000490F561FC71FD81F990F661F771F881FBF
:101D10000694A9F784911095177041F0D695C79550
:101D200057954795F794E7941A95C1F7E4EAF2E0DE
:101D300068941590159135916591959105907FE284
:101D40007395E118F10A430B560BC90BD009C0F784
:101D5000E10CF11E431F561FC91FD01D7EF47033C6
:101D600011F48A95E6CFE894015030F0080F0AF498
:101D70000027021708F4202F2395022F7A3328F02A
:101D800079E37D932A95E9F710C07D932A9589F62A
:101D9000069497956795379517951794E118F10A6A
:101DA000430B560BC90BD00998F023957E91739580
:101DB0007A3308F070E37C932013B8F77E9170615A
:101DC0007D9330F0839571E37D9370E32A95E1F77D
:101DD0001124EF90FF900F911F91CF91DF919927E0
:101DE00087FD90950895FC010590615070400110A9
:101DF000D8F7809590958E0F9F1F0895FC01615034
:101E0000704001900110D8F7809590958E0F9F1F1C
:101E100008950F931F93CF93DF93182F092FEB0192
:101E20008B8181FD03C08FEF9FEF20C082FF10C028
:101E30004E815F812C813D81421753077CF4E881FC
:101E4000F9819F012F5F3F4F28833983108306C09C
:101E5000E885F985812F1995892B29F72E813F81F6
:101E60002F5F3F4F2E833F83812F902FDF91CF91A4
:101E70001F910F910895FA01AA27283051F12031BE
:101E800081F1E8946F936E7F6E5F7F4F8F4F9F4F0E
:101E9000AF4FB1E03ED0B4E03CD0670F781F891F50
:101EA0009A1FA11D680F791F8A1F911DA11D6A0F1E
:101EB000711D811D911DA11D20D009F468943F91D1
:101EC0002AE0269F11243019305D3193DEF6CF01D0
:101ED0000895462F4770405D4193B3E00FD0C9F796
:101EE000F6CF462F4F70405D4A3318F0495D31FD03
:101EF0004052419302D0A9F7EACFB4E0A695979556
:101F0000879577956795BA95C9F70097610571052B
:101F100008959B01AC010A2E069457954795379575
:101F20002795BA95C9F7620F731F841F951FA01DCF
:061F30000895F894FFCFB4
:101F36000083100000010410000001820800000167
:0C1F46000000000000000000000000008F
:00000001FF
