:1000000009C1000023C1000021C100001FC1000080
:100010001DC100001BC1000019C1000017C1000074
:1000200015C1000013C10000ACC700006FC700007D
:100030000DC100000BC1000009C1000007C1000094
:1000400005C1000003C1000001C10000FFC00000A5
:10005000FDC00000FBC00000F9C00000F7C00000B8
:10006000F5C00000F3C00000F1C00000EFC00000C8
:10007000EDC00000EBC00000E9C00000E7C00000D8
:10008000E5C00000E3C00000E1C00000DFC00000E8
:10009000DDC00000DBC00000D9C00000D7C00000F8
:1000A000D5C00000D3C00000D1C0000010494916DF
:1000B000001040401600A811FF00010000E45A00A3
:1000C000880000000000008E0C0000000004028187
:1000D000011600000C000000000402810116008ED1
:1000E00000000000006F03D70105100101000000AF
:1000F0000000000000000000000000006F03D701B6
:1001000005100101000000000000000000008E0C3E
:10011000000000000302010116000C0000000003B3
:1001200002010116008E00000000006103000000C3
:1001300000000000610300008E0000000000650365
:10014000D5010510010000000000006503D5010580
:10015000100100860000000000008900000000007F
:100160006603D6010510010200890C00000000049E
:1001700002410116000089000000000063034000F6
:1001800021008900000000006603D601051001016E
:10019000001201100102000008EB034420010001DD
:1001A00002DC0109023E00020100C0320904000025
:1001B00001020201000524001001042402060524A6
:1001C000060001070583030800FF09040100020A75
:1001D000000000070502021000050705810210005B
:1001E00005040309041803620075007300770061B9
:1001F00000720065002E006400650000001C0346CC
:1002000000540031002E00320020004B004E0058F8
:100210000000000011241FBECFEFDAE0DEBFCDBF2B
:1002200011E0A0E0B1E0ECE1F7E102C005900D9231
:10023000AC31B107D9F714E0ACE1B1E001C01D92D7
:10024000AB30B107E1F720D20C948C0BD9CEFB0177
:10025000DC0104C08D910590801921F4415050407B
:10026000C8F7881B990B0895FB01DC0102C00590BB
:100270000D9241505040D8F70895FB01DC0102C0B7
:1002800001900D9241505040D8F70895CF93DF93DD
:10029000EC01E881F98160838881998101969983D5
:1002A00088832E813F818217930721F48C819D8161
:1002B000998388832FB7F8948A859B8501969B87BD
:1002C0008A872FBFDF91CF910895CF92DF92EF926F
:1002D000FF920F931F93CF93DF93F82ED92EC62E44
:1002E000E42E8DEA91E068E6D1DFEE2041F08DEA60
:1002F00091E06E2DCBDF8DEA91E06E2D09C01C2DB3
:100300001F5F8DEA91E0612FC1DF8DEA91E0612FDF
:10031000BDDF8DEA91E068E6B9DF9091200190FDA4
:1003200002C003EF01C003ED81E098279093200104
:100330008DEA91E0602FAADF2F2D3D2DC901EC0140
:1003400010E015C08DEA91E06881A0DFF88080910F
:100350001E01882349F0EE2039F481E0F81621F4DB
:100360008DEA91E060E092DF0F0D1F5F21961C1572
:1003700048F38DEA91E0602F89DF8DEA91E066E134
:1003800085DFDF91CF911F910F91FF90EF90DF906C
:10039000CF900895889808958898089580E091E016
:1003A0000C94DF0A80E091E00E94B80A91B381705A
:1003B0009E7F892B81BB08951F9384B7877F84BF5D
:1003C00018E10FB6F89410936000109260000FBE11
:1003D00080E090E020E80FB6F894209361008093CD
:1003E00061000FBE809A889874D587E690E090935C
:1003F000CD008093CC00EAECF0E086E0808382E0E0
:100400008093C8001093C900539A5A9A80818062E1
:1004100080831F9108951F93CF93DF93CCE7D3E0A0
:1004200081E4DE011D928A95E9F780913902853ECB
:1004300089F580911F01823071F0833018F481308A
:1004400031F505C0833081F0843009F516C0CE0146
:1004500062E871E015C0CE0166E771E04BE050E064
:1004600003DFCE016BE011C0CE0169E671E04CE024
:1004700050E0FADECE016CE008C0CE016AE571E022
:100480004EE050E0F1DECE016EE040E01EDF109263
:100490001F01F6C010921F0110913A0290913E0286
:1004A000933409F45FC0943430F4913159F09134AD
:1004B00009F0E6C05EC0943409F4C9C0973A09F067
:1004C000DFC0D1C080913F02806B80933F02909348
:1004D00040028FEF8093410290E05FEF212F30E0E8
:1004E0002250304013C08091C80085FFFCCF892F77
:1004F00080688093CE00E75CFD4F46818091C80004
:1005000085FFFCCF4093CE0054279F5FE92FF0E09A
:10051000E217F30744F38091C80085FFFCCF906495
:100520009093CE008091C80085FFFCCF5093CE0001
:100530008DEA91E065EEAADE412F425040931D0105
:10054000EDEBF3E081E4DF011D928A95E9F78EE29D
:100550008093BD0331962FE332E0CF01B90150E023
:100560008CDE8EC081E080931E01CE0163E571E0D8
:1005700074C011E010931E018FE392E066E471E015
:100580004CE050E064DE892B69F4CE0168E371E051
:100590004DE050E069DECE016DE040E096DE109364
:1005A0001F016EC08FE392E06FE271E048E050E01F
:1005B0004EDE892B61F4CE0165E271E049E050E046
:1005C00053DECE0169E040E080DE82E029C08FE3A7
:1005D00092E06AE171E04AE050E039DE892B61F493
:1005E000CE016EE071E04BE050E03EDECE016BE00C
:1005F00040E06BDE83E014C08FE392E067EF70E0D1
:1006000046E150E024DE892B71F4CE016FED70E0FD
:1006100047E150E029DECE0167E140E056DE84E0AC
:1006200080931F012DC08FE392E064ED70E04AE0FB
:1006300050E00DDE892B21F58CE793E067EC70E04C
:100640004CE050E011DE8CE793E06CE017C081E0F5
:1006500080931E01CE0160EC70E046E050E004DEC5
:10066000CE0166E00BC081E080931E01CE0166EBF7
:1006700070E049E050E0F8DDCE0169E040E025DEC1
:10068000DF91CF911F9108952F923F924F925F92E9
:100690006F927F928F929F92AF92BF92CF92DF9292
:1006A000EF92FF920F931F93DF93CF9300D0CDB7BC
:1006B000DEB782DEE1E2F1E02FB7F8948DE291E05F
:1006C0009183808393838283958384838DEA91E0F1
:1006D0009783868380E890E09187808713861286CF
:1006E0002FBFEDEAF1E02FB7F89489EB91E0918309
:1006F0008083938382839583848389E392E09783C5
:10070000868380E890E091878087138612862FBFCA
:10071000889878943AE3C32E33E0D32EC601C98279
:100720009A832EEB222E23E0322E56010894A11C30
:10073000B11C99E3E92E92E0F92E27010894411C9F
:10074000511C84E0882E912C8E0C9F1C34018091CA
:10075000C80087FFADC09091CE0080917B03E82F49
:10076000F0E0E65CFC4F90838F5F80937B03809189
:100770003A03883901F1893978F48B3809F477C064
:100780008C3820F48B3009F07DC07AC0803999F024
:10079000843909F077C00FC0843B69F0853B30F4A1
:1007A0008C3949F0803B09F06DC005C0883B19F0D9
:1007B0008C3B09F067C081E080931C0180917B0332
:1007C000853091F480913D03813109F071C08091B1
:1007D0003E038F3F09F06CC08091C80085FFFCCFBD
:1007E000A1E1A093CE0064C0883008F461C01091EC
:1007F0003F031F70185F811708F45AC0ECE7F3E05D
:1008000081E411928A95E9F7A9E2A0937C03ADE710
:10081000B3E020E030E0F901E65CFC4F80818D938D
:100820002F5F3F4F2117B8F380911D01882351F0AE
:10083000412F415040931D01C10169817A8150E0EF
:100840001CDD05C08CE793E0612F40E03EDD409168
:100850007B03411B40937B03212F30E0265C3C4F00
:10086000C601B90150E009DD10921C0121C0609160
:100870001D01662329F06F5F8DEB93E040E025DDDD
:1008800010921D0110921C0140917B034150409336
:100890007B03C601B50150E0F0DC0AC0809139034A
:1008A000E82FF0E0E75CFD4F20838F5F80933903F2
:1008B00080E091E0AED59C0197FFF0CF12C010917F
:1008C0003902183699F0103189F0153E09F4A3DD8C
:1008D00040913903415040933903C701B20150E0C0
:1008E000CCDC00913903002351F77FC0043008F4B9
:1008F0007CC089E392E061EB70E044E050E0A7DC6B
:10090000892B99F48DEA91E065EEC0DC10921D010F
:1009100010921C011092390310927B0310921E0159
:1009200081E291E061E0B2DC60C089E392E06CEAD0
:1009300070E044E050E08BDC892B99F48DEA91E083
:1009400060E1A4DC8DEA91E06BE8A0DC8DEA91E047
:100950006BE89CDC8DEA91E066E198DC409139031C
:1009600036C01836D1F580913C028836B1F5209119
:100970003A0280913B02281781F5122F1A5F011766
:10098000A0F1E12FF0E0E85CFD4F80818631F1F4C9
:1009900080913E02813149F480911C01882329F520
:1009A00080911D01882309F504C08DEA91E065EE70
:1009B0006DDC31DD40913903411B40933903212F18
:1009C00030E0275C3D4FC701B9010DC0402F4450B6
:1009D00040933903C701B30106C0402F44504093F0
:1009E0003903C701B40150E048DC8FB7F894009197
:1009F000B7011091B8018FBF0115110531F1889829
:100A0000E091AF01F091B00180E091E060818AD582
:100A10008823D9F4EDEAF1E08281938101969383F2
:100A20008283268137818217930721F484819581FF
:100A3000938382832FB7F894828593850197938758
:100A400082872FBF01501040D9F62FB7F8948091BC
:100A50002B0190912C012FBF892B79F18091C80037
:100A600085FF2BC041E251E0FA01AF010280F38122
:100A7000E02D3191DA011396FC93EE9312971696BE
:100A80008D919C911797E817F90741F414968D9171
:100A90009C91159713969C938E9312972FB7F89469
:100AA000FA01828593850197938782872FBF809172
:100AB000C80085FFFCCF3093CE0080E091E01AD5CE
:100AC00093D445CEDA01923049F0933061F0913001
:100AD000F9F4E1E9F1E022E130E01EC0E3EAF1E0FF
:100AE0002EE330E019C0813049F0813018F08230B7
:100AF00079F408C0E1EEF1E0849107C0E5EEF1E0A1
:100B0000849103C0EDEFF1E08491282F30E004C020
:100B1000E0E0F0E020E030E0ED93FC93C9010895BF
:100B20009C014091090450910A044617570718F494
:100B3000F90190E045C06115710511F0AB01F8CFE6
:100B40008091E8008E778093E80040E050E0F0CF9D
:100B500080910204882309F445C0853009F444C01B
:100B60008091E80083FF02C081E008958091E80051
:100B700082FD32C08091E80080FF22C08091F300A6
:100B80009091F200782F60E0292F30E0262B372B50
:100B900007C081918093F100415050402F5F3F4F3B
:100BA0004115510519F02830310598F390E02830AF
:100BB000310509F491E08091E8008E778093E80098
:100BC0004115510529F6992319F606C080910204B2
:100BD000882341F0853041F08091E80082FFF6CF14
:100BE00080E0089582E0089583E008959C0140919B
:100BF000090450910A044617570718F4F90190E0C8
:100C000046C06115710511F0AB01F8CF8091E80085
:100C10008E778093E80040E050E0F0CF80910204AE
:100C2000882309F447C0853009F446C08091E80064
:100C300083FF02C081E008958091E80082FD34C006
:100C40008091E80080FF23C08091F3009091F20032
:100C5000782F60E0292F30E0262B372B08C08491B5
:100C60008093F1003196415050402F5F3F4F411526
:100C7000510519F02830310590F390E02830310506
:100C800009F491E08091E8008E778093E8004115A7
:100C9000510521F6992309F0C1CF06C080910204C5
:100CA000882341F0853041F08091E80082FFF6CF43
:100CB00080E0089582E0089583E00895382F282F7A
:100CC0002EC0822F8F708093E900231721F4762F96
:100CD000942F50E006C07091EC009091ED0050917F
:100CE000F00091FF1BC08091EB008E7F8093EB00A2
:100CF0008091ED008D7F8093ED008091EB0081600D
:100D00008093EB007093EC009093ED005093F00013
:100D10008091EE0087FD02C080E008952F5F2730AC
:100D200080F23F703093E90081E008950F931F93A4
:100D3000CF93DF93062FEC0110E02AC0988199230E
:100D400029F16B81E981FA812C81892F8F7087309D
:100D500018F5223010F452E001C056E028E030E0EF
:100D600040E003C04F5F220F331F2E173F07D0F321
:100D70006295660F660F607C991F9927991F692BF2
:100D80004295407F452B9ADF882331F01F5F2596DF
:100D90001017A0F281E001C080E0DF91CF911F9198
:100DA0000F9108958091030488239CF404C08091DE
:100DB00002048823B9F08091E80082FFF8CF809187
:100DC000E8008B778093E8000895809102048823DF
:100DD00049F08091E80080FFF8CF8091E8008E779D
:100DE0008093E80008954091E4005091E50024E6E6
:100DF0008091EC0080FF24C08091E80080FD1EC03F
:100E000080910204882311F482E00895853011F462
:100E100083E008958091EB0085FF02C081E0089592
:100E20008091E4009091E5008417950709F322234F
:100E300011F484E008952150AC01DACF80E00895E8
:100E40008091E80082FFDCCFF9CFEF92FF920F9301
:100E50001F934FD056D008ED10E0F80180818F77B6
:100E6000808380818068808380818F7D808319BCAE
:100E7000109202041092FE03109200041092FF03DD
:100E800080EEE82EF12CF70180818B7F8083F801C2
:100E900080818160808380E060E042E00FDFE1EEEE
:100EA000F0E080818E7F8083E2EEF0E080818160DF
:100EB0008083808188608083F70180818E7F80833A
:100EC000F8018081806180831F910F91FF90EF90E6
:100ED0000895E8EDF0E080818F7E8083E7EDF0E01B
:100EE00080818160808384E082BF81E080930104FF
:100EF000ACCFE8EDF0E080818E7F80831092E2003D
:100F000008951092DA001092E10008951F920F9256
:100F10000FB60F9211241F932F933F934F935F931C
:100F20006F937F938F939F93AF93BF93EF93FF93B1
:100F30001091E9008091EC001092E9008091F0009E
:100F4000877F8093F0007894E5D01092E90080913B
:100F5000F00088608093F0001F701093E900FF910B
:100F6000EF91BF91AF919F918F917F916F915F9121
:100F70004F913F912F911F910F900FBE0F901F9097
:100F800018951F920F920FB60F9211242F933F9333
:100F90004F935F936F937F938F939F93AF93BF9381
:100FA000EF93FF938091E10082FF0AC08091E200FD
:100FB00082FF06C08091E1008B7F8093E10013D215
:100FC0008091DA0080FF1DC08091D80080FF19C099
:100FD0008091DA008E7F8093DA008091D90080FFC3
:100FE0000CC080E189BD82E189BD09B400FEFDCF5E
:100FF00081E080930204CED904C019BC109202048F
:10100000CBD98091E10080FF18C08091E20080FF81
:1010100014C08091E2008E7F8093E2008091E20014
:1010200080618093E2008091D80080628093D80034
:1010300019BC85E080930204D6D18091E10084FF41
:101040002DC08091E20084FF29C080E189BD82E14A
:1010500089BD09B400FEFDCF8091D8008F7D8093BB
:10106000D8008091E1008F7E8093E1008091E200C2
:101070008F7E8093E2008091E20081608093E200A5
:101080008091FE03882331F48091E30087FD02C044
:1010900081E001C084E080930204A5D18091E10049
:1010A00083FF27C08091E20083FF23C08091E1008D
:1010B000877F8093E10082E0809302041092FE0318
:1010C0008091E1008E7F8093E1008091E2008E7F2D
:1010D0008093E2008091E20080618093E20080E0F2
:1010E00060E042E0EBDD8091F00088608093F000EA
:1010F0007AD1FF91EF91BF91AF919F918F917F91A5
:101100006F915F914F913F912F910F900FBE0F9074
:101110001F9018951F93DF93CF93CDB7DEB7AC9791
:101120000FB6F894DEBF0FBECDBFE3E0F4E08091D0
:10113000F100819324E0EB30F207C9F72FD98091B9
:10114000E80083FF38C180910304309104043530F6
:1011500009F487C0363040F43130C9F1313070F0D5
:10116000333009F028C133C0383009F4F5C03930C4
:1011700009F404C1363009F01EC196C0803821F050
:10118000823809F018C108C09091FF0380910004D3
:10119000882399F0926011C0809107048F7080932A
:1011A000E9008091EB0090E025E0969587952A95DF
:1011B000E1F7982F91701092E9008091E800877F05
:1011C0008093E8009093F1001092F100D0C0882342
:1011D00019F0823009F0EFC090E08F7190700097A5
:1011E00021F0029709F0E7C00CC08091050481301E
:1011F00009F0E1C010920004333069F580930004D7
:101200002AC080910504882331F5209107042F70AE
:1012100009F4D1C02093E9008091EB0080FF1BC04E
:10122000333021F48091EB00806213C08091EB0099
:1012300080618093EB0081E090E002C0880F991FED
:101240002A95E2F78093EA001092EA008091EB0081
:1012500088608093EB001092E9008091E800877F1E
:1012600089C0882309F0A7C0109105041F778091D9
:10127000E3008078812B8093E3008091E800877FF2
:101280008093E8008FDD8091E80080FFFCCF8091A3
:10129000E30080688093E300112311F482E001C031
:1012A00083E08093020487C08058823008F083C0B6
:1012B000809105049091060423E08C3D920709F08B
:1012C00033C083E08C838AE28B837FB7F894DE019E
:1012D00015966EE040E050E011E2E62FF0E010934A
:1012E0005700849140FF03C082958F706F5F8F70AD
:1012F000282F30E08A3018F0C901C79602C0C90112
:10130000C0968D939D934F5F5F4F4431510529F7F0
:101310007FBF8091E800877F8093E800CE0103962D
:101320006AE270E0FDDB12C060910704AE014F5F1E
:101330005F4FC8DBBC01009709F43DC08091E80015
:10134000877F8093E80089819A8150DC8091E80052
:101350008B778093E8002FC0803869F58091E80092
:10136000877F8093E8008091FE038093F100809155
:10137000E8008E778093E80015DD1DC08823D9F43E
:10138000909105049230B8F48091E800877F8093B3
:10139000E8009093FE0306DD8091FE03882331F47C
:1013A0008091E30087FD02C081E001C084E080936A
:1013B00002040E94D2018091E80083FF0AC080915C
:1013C000E800877F8093E8008091EB008062809343
:1013D000EB00AC960FB6F894DEBF0FBECDBFCF9139
:1013E000DF911F91089508951F938091020488232F
:1013F00071F01091E9008091EC001092E900809169
:10140000E80083FF01C086DE1F701093E9001F9182
:101410000895FC0180910204843099F584899589AE
:10142000A689B7890097A105B10559F186818F700A
:101430008093E9008091E80082FF23C04091F3008F
:101440002091F200942F80E030E0822B932B892BA7
:1014500019F46FEF7FEF04C08091F100682F70E006
:101460004091F3002091F200942F80E030E0822B35
:10147000932B892B41F48091E8008B778093E800CF
:1014800002C06FEF7FEFCB0108950895FC018091BA
:101490000204843051F584899589A689B78900971B
:1014A000A105B10511F181818F708093E900409110
:1014B000F3002091F200942F80E030E0822B932BF8
:1014C000892BA9F09091E8008091E8008E778093B5
:1014D000E80095FD0CC087DC982F882349F48091A3
:1014E000E8008E778093E80003C092E001C090E0AE
:1014F000892F0895FC0180910204843091F484893D
:101500009589A689B7890097A105B10551F0818118
:101510008F708093E9008091E80080FF02C0CF01C6
:10152000B5CF08951F93FC01162F809102048430DB
:10153000E1F484899589A689B7890097A105B10549
:10154000A1F081818F708093E9008091E80085FD92
:1015500008C08091E8008E778093E80044DC8823FF
:1015600029F41093F10080E001C082E01F910895FA
:10157000CF93DF93EC014096FC018BE0DF011D92DD
:101580008A95E9F782E08C83898783E08E87CE0194
:10159000019661E0CBDB882371F0CE01069661E015
:1015A000C5DB882341F0CE010B9661E0BFDB8823C9
:1015B00019F081E001C080E0DF91CF910895CF93D1
:1015C000DF93EC018091E80083FFA3C0888190E065
:1015D00020910704309108042817390709F099C0B1
:1015E00080910404813269F0823220F4803209F063
:1015F00090C03CC0823209F46BC0833209F089C0CC
:101600007AC080910304813A09F083C08091E80098
:10161000877F8093E8008091E80080FFFCCF8C8971
:101620009D89AE89BF898093F100292F3A2F4B2FD6
:1016300055272093F1009D01442755272093F10061
:101640008B2F9927AA27BB278093F100888D809341
:10165000F100898D8093F1008A8D8093F100809153
:10166000E8008E778093E8009DDB53C080910304EF
:10167000813209F04EC08091E800877F8093E800B6
:1016800005C080910204882309F443C08091E800DA
:1016900082FFF7CF8091F1009091F1002091F1004D
:1016A0003091F1008C8B9D8B2E8B3F8B8091F100C4
:1016B000888F8091F100898F8091F1008A8F8091CD
:1016C000E8008B778093E8006DDBCE01DEDE21C081
:1016D000809103048132E9F48091E800877F809350
:1016E000E80060DB8091050490910604998B888B5B
:1016F000CE01CBDE0EC080910304813251F4809183
:10170000E800877F8093E8004DDBCE0160910504FF
:0C171000BCDEDF91CF910895F894FFCF6C
:10171C00008110000001021000000183080000018C
:0C172C00000000000000000000000000B1
:00000001FF
