:10000000E2C10000FCC10000FAC10000F8C100001C
:10001000F6C10000F4C10000F2C10000F0C1000010
:10002000EEC10000ECC100000C94360E0C94FB0DE8
:10003000E6C10000E4C10000E2C10000E0C1000030
:10004000DEC10000DCC10000DAC10000D8C1000040
:10005000D6C10000D4C10000D2C10000D0C1000050
:10006000CEC10000CCC10000CAC10000C8C1000060
:10007000C6C10000C4C10000C2C10000C0C1000070
:10008000BEC10000BCC10000BAC10000B8C1000080
:10009000B6C10000B4C10000B2C10000B0C1000090
:1000A000AEC10000ACC10000AAC10000436F6E7475
:1000B000726F6C4C696E65733A20253032580D0AA8
:1000C00000746F205450554152543A202530325814
:1000D0000D0A002D2073656E6420746F2046543124
:1000E0003220686F73740D0A002530325820005298
:1000F000656365697665642062726F6B656E204624
:10010000543132206D657373616765206C656E3A9A
:10011000202564202D20454F4D3A2025640D0A00EE
:1001200052656365697665642046543132206D6599
:100130007373616765206C656E3A2025640D0A0053
:100140001049491600526563656976656420465416
:1001500031322072657365740D0A0010404016003C
:10016000253032582000756E68616E646C656420BD
:1001700054505541525420636F64653A2025303203
:10018000580D0A00436F6E6669726D696E6720666E
:1001900072616D652073656E74202E2E2E0D0A001F
:1001A000454942206D65737361676520636F6D70AB
:1001B0006C657465206C656E6774683A2025640D03
:1001C0000A00746F205450554152543A2025303261
:1001D000580D0A0066726F6D205450554152543AC2
:1001E00020253032580D0A00A811FF00010000E45C
:1001F0005A00880000000000004E6F206D6174639B
:100200006820666F7220307834312D5265717565C3
:1002100073740D0A008E0C000000000402810116A8
:1002200000000C000000000402810116008E000096
:100230000000006F03D7010510010100000000005D
:10024000000000000000000000006F03D70105104F
:100250000101000000000000000000008E0C000002
:1002600000000302010116000C000000000302015F
:100270000116008E00000000006103000000000075
:100280000000610300008E00000000006503D5013E
:100290000510010000000000006503D501051001F4
:1002A00000860000000000006D6577206D657373A7
:1002B00061676520746F205450554152540D0A00F7
:1002C0008900000000006603D601051001020089C4
:1002D0000C0000000004024101160000890000002B
:1002E0000000630340002100890000000000660355
:1002F000D601051001010012011001EF020108EB07
:10030000034E2001000102DC010902830004010008
:10031000C032080B000202020100090400000102C1
:100320000201000524001001042402060524060031
:1003300001070583030800FF09040100020A000009
:1003400000070502021000050705810210000508DC
:100350000B02020202010009040200010202010074
:1003600005240010010424020605240602030705E3
:1003700086030800FF09040300020A0000000705C5
:100380000502100005070584021000050403090496
:100390001803620075007300770061007200650049
:1003A0002E006400650000001C034600540031006C
:1003B0002E00320020004B004E0058002000440068
:1003C00042004700000011241FBECFEFDAE0DEBF7D
:1003D000CDBF11E0A0E0B1E0E2E0F5E202C005909F
:1003E0000D92A434B107D9F714E0A4E4B1E001C040
:1003F0001D92AD33B107E1F775D60C947F1200CE94
:10040000FB01DC0104C08D910590801921F441505D
:100410005040C8F7881B990B0895FB01DC0102C00E
:1004200005900D9241505040D8F70895FB01DC0132
:1004300002C001900D9241505040D8F70895DC0160
:1004400001C06D9341505040E0F708950F931F9302
:10045000CF93DF938C01EB01009731F461157105A7
:1004600019F420E030E037C06EE070E081E090E009
:100470002FD2FC019C01009771F180E883832097C3
:1004800071F0D387C28781E8838380913304909190
:100490003404892B21F4F0933404E09333040115E0
:1004A0001105C9F011870087838182608383809161
:1004B000350490913604892B71F4F0933604E0935F
:1004C00035048091370490913804892B21F4F093FE
:1004D0003804E0933704C901DF91CF911F910F9148
:1004E0000895A0E0B0E0E7E7F2E00C945812FE01B6
:1004F000359661917191A0913504B09136041396AF
:100500008C911397886013968C93AF01809135047A
:10051000909136040BD0E0913504F091360423819C
:10052000277F23832096E2E00C947412ABE0B0E0C6
:10053000ECE9F2E00C9448123C012B015A01FC0159
:1005400017821682838181FD03C06FEF7FEFBBC1ED
:100550009AE0892E1E010894211C311CF30123818D
:10056000F20123FD859123FF81912F01882309F456
:10057000A7C1853239F423FD859123FF81912F0195
:10058000853221F4B30190E0D5D2E8CF982FDD2455
:10059000CC249924FFE1FD15D0F09B3269F09C3208
:1005A00028F4903259F0933291F40EC09D3249F004
:1005B000903369F441E024C052E0D52A84E0D82A7F
:1005C00028C098E0D92A25C0E0E1DE2A22C0D7FC65
:1005D00029C0892F80538A3070F4D6FE05C0989CBC
:1005E000902C1124980E15C0C89CC02C1124C80E44
:1005F000F0E2DF2A0EC09E3229F4D6FC61C140E44D
:10060000D42A07C09C3619F450E8D52A02C098367F
:1006100049F4F20123FD959123FF91912F01992334
:1006200009F0B8CF892F8554833018F08052833079
:1006300038F444E050E0A40EB51E5FE359830FC0C8
:10064000933631F0933779F0933509F052C01FC0DB
:10065000F5018081898342E050E0A40EB51E71014E
:1006600001E010E011C0F501E080F180D6FC03C08C
:100670006FEF7FEF02C0692D70E042E050E0A40E02
:10068000B51EC7014CD28C015FE7D52213C0F5011E
:10069000E080F180D6FC03C06FEF7FEF02C0692DD0
:1006A00070E042E050E0A40EB51EC7012DD28C01CF
:1006B00050E8D52AD3FE06C018C0B30180E290E00E
:1006C00039D2CA948C2D90E008171907B0F30DC0E9
:1006D000F701D7FC8591D7FE81917F01B30190E0AE
:1006E00029D2C110CA94015010400115110581F79B
:1006F000E4C0943611F0993669F5D7FE08C0F501CB
:10070000E080F1800281138144E050E00AC0F501ED
:10071000808191817C010027F7FC0095102F42E039
:1007200050E0A40EB51E5FE6D52217FF0AC0109553
:100730000095F094E094E11CF11C011D111D80E86E
:10074000D82A2AE030E0A101C801B7011FD2F82E53
:10075000F2183FC0953729F41D2D1F7E2AE030E0A6
:100760001DC01D2D197F9F3661F0903720F49835FC
:1007700009F0A6C00FC0903739F0983709F0A0C033
:1007800004C028E030E00AC0106114FD146020E1CC
:1007900030E004C014FD166020E132E017FF08C00D
:1007A000F501608171818281938144E050E008C04D
:1007B000F50180819181BC0180E090E042E050E051
:1007C000A40EB51EA101E2D1F82EF2188FE7D82EA3
:1007D000D122D6FE0BC05EEFD522F91438F4D4FE38
:1007E00007C0D2FC05C08FEED82202C01F2D01C069
:1007F000192DD4FE0DC0FE01EF0DF11D8081803357
:1008000019F499EED92208C01F5FD2FE05C003C0BB
:100810008D2D867809F01F5F0D2DD3FC13C0D0FEFF
:100820000EC01C1510F09F2C0AC09F2C9C0C911A16
:100830001C2D05C0B30180E290E07CD11F5F1C1528
:10084000C8F304C01C1510F4C11A01C0CC2404FF65
:100850000FC0B30180E390E06DD102FF1CC001FD29
:1008600003C088E790E002C088E590E0B3010CC0C7
:10087000802F867881F001FF02C08BE201C080E208
:10088000D7FC8DE2B30190E055D105C0B30180E300
:1008900090E050D19A94F914C8F3FA94F101EF0D55
:1008A000F11DB301808190E045D1FF20B1F705C073
:1008B000B30180E290E03ED1CA94CC20C9F74ECE7D
:1008C000F30166817781CB012B96E2E10C946412EF
:1008D0000F931F93CF93DF93689F8001699F100D43
:1008E000789F100D1124C8010DD0EC01009721F064
:1008F000A80160E070E0A3DDCE01DF91CF911F91F0
:100900000F910895CF93DF93BC018230910510F4CD
:1009100062E070E0A0913B04B0913C04ED01E0E0A6
:10092000F0E040E050E021C0888199818617970768
:1009300069F48A819B81309719F09383828304C084
:1009400090933C0480933B04FE0134C06817790700
:1009500038F44115510519F08417950708F4AC01D6
:10096000FE018A819B819C01E9012097E9F64115EE
:100970005105A9F1CA01861B970B049708F4BA0127
:10098000E0E0F0E02AC08D919C91119784179507C3
:10099000F9F46417750781F412968D919C91139761
:1009A000309719F09383828304C090933C04809322
:1009B0003B04FD0132964CC0CA01861B970BFD011A
:1009C000E80FF91F6193719302978D939C9340C038
:1009D000FD01828193819C01D9011097A1F680913C
:1009E000390490913A04892B41F48091400190910F
:1009F000410190933A04809339044091420150910F
:100A000043014115510541F44DB75EB780913E0158
:100A100090913F01481B590B2091390430913A04C1
:100A2000CA01821B930B8617970780F0AB014E5FBC
:100A30005F4F8417950750F0420F531F50933A04AD
:100A400040933904F9016193719302C0E0E0F0E052
:100A5000CF01DF91CF910895CF93DF93009709F4F1
:100A600050C0EC0122971B821A82A0913B04B091E6
:100A70003C04109709F140E050E0AC17BD0708F1C5
:100A8000BB83AA83FE0121913191E20FF31FAE17C0
:100A9000BF0779F48D919C911197280F391F2E5F14
:100AA0003F4F3983288312968D919C9113979B8396
:100AB0008A834115510571F4D0933C04C0933B04E3
:100AC00020C012968D919C911397AD01009711F063
:100AD000DC01D3CFFA01D383C28321913191E20F9C
:100AE000F31FCE17DF0769F488819981280F391F1A
:100AF0002E5F3F4FFA01318320838A819B8193834C
:100B00008283DF91CF910895FC0105906150704080
:100B10000110D8F7809590958E0F9F1F0895FC01C6
:100B20006150704001900110D8F7809590958E0F1C
:100B30009F1F08950F931F93CF93DF938C01EB01B9
:100B40008B8181FF1BC082FF0DC02E813F818C8174
:100B50009D812817390764F4E881F9810193F983AD
:100B6000E88306C0E885F985802F0995892B31F443
:100B70008E819F8101969F838E8302C00FEF1FEFAE
:100B8000C801DF91CF911F910F910895FA01AA2713
:100B9000283051F1203181F1E8946F936E7F6E5FC0
:100BA0007F4F8F4F9F4FAF4FB1E03ED0B4E03CD06E
:100BB000670F781F891F9A1FA11D680F791F8A1F51
:100BC000911DA11D6A0F711D811D911DA11D20D0B8
:100BD00009F468943F912AE0269F11243019305D72
:100BE0003193DEF6CF010895462F4770405D419363
:100BF000B3E00FD0C9F7F6CF462F4F70405D4A33B0
:100C000018F0495D31FD4052419302D0A9F7EACF77
:100C1000B4E0A6959795879577956795BA95C9F7A6
:100C200000976105710508959B01AC010A2E069499
:100C30005795479537952795BA95C9F7620F731F52
:100C4000841F951FA01D0895CF93DF93EC01E881C9
:100C5000F9816083888199810196998388832E81A7
:100C60003F818217930721F48C819D81998388832A
:100C70002FB7F8948A859B8501969B878A872FBF1B
:100C8000DF91CF910895CF92DF92EF92FF920F9371
:100C90001F93CF93DF93F82ED92EC62EE42E85ED29
:100CA00091E068E6D1DFEE2041F085ED91E06E2D18
:100CB000CBDF85ED91E06E2D09C01C2D1F5F85ED0A
:100CC00091E0612FC1DF85ED91E0612FBDDF85ED02
:100CD00091E068E6B9DF9091480190FD02C003EF12
:100CE00001C003ED81E098279093480185ED91E0E4
:100CF000602FAADF2F2D3D2DC901EC0110E015C09A
:100D000085ED91E06881A0DFF8808091460188231D
:100D100049F0EE2039F481E0F81621F485ED91E0F8
:100D200060E092DF0F0D1F5F21961C1548F385EDE3
:100D300091E0602F89DF85ED91E066E185DFDF914D
:100D4000CF911F910F91FF90EF90DF90CF9008957A
:100D50008898089588980895CF93DF93EC0188814F
:100D60008823C9F400D000D08CEA90E0EDB7FEB73C
:100D7000928381838889998994838383B2DB8A896A
:100D80009B8983609B8B8A8B0F900F900F900F90A5
:100D9000CE010E94BC10DF91CF91089580E091E0D8
:100DA0000E949A118BE191E00C949A111F9380E0BC
:100DB00091E00E947311182F8BE191E00E94731152
:100DC00091B3182311709E7F912B91BB1F910895B1
:100DD0001F9384B7877F84BF18E10FB6F8941093F0
:100DE0006000109260000FBE80E090E020E80FB637
:100DF000F89420936100809361000FBE809A8898D8
:100E0000DDD68CE197E060E070E020DB87E690E0E3
:100E10009093CD008093CC00EAECF0E086E08083F4
:100E200082E08093C8001093C900539A5A9A808137
:100E3000806280831F910895682F8BE191E00E946A
:100E40004D1180E090E008951F93CF93DF93C4EAA3
:100E5000D3E081E4DE011D928A95E9F78091610279
:100E6000853E89F580914701823071F0833018F416
:100E7000813031F505C0833081F0843009F516C02A
:100E8000CE0168EE72E015C0CE016CED72E04BE071
:100E900050E0C3DACE016BE011C0CE016FEC72E01E
:100EA0004CE050E0BADACE016CE008C0CE0160EC54
:100EB00072E04EE050E0B1DACE016EE040E0E3DEF9
:100EC000109247010BC1109247011091620290915C
:100ED0006602933409F469C0943430F4913159F0C6
:100EE000913409F0FBC068C0943409F4DEC0973A2D
:100EF00009F0F4C0E6C080916702806B80936702BE
:100F0000909368028FEF8093690200D088EA92E0A4
:100F1000EDB7FEB792838183E4DA90E05FEF0F9044
:100F20000F90212F30E02250304013C08091C80034
:100F300085FFFCCF892F80688093CE00EF59FD4F4D
:100F400046818091C80085FFFCCF4093CE00542796
:100F50009F5FE92FF0E0E217F30744F38091C800A8
:100F600085FFFCCF90649093CE008091C80085FFF0
:100F7000FCCF5093CE0085ED91E065EE65DE412F0C
:100F8000425040934501E5EEF3E081E4DF011D921C
:100F90008A95E9F78EE28093E503319627E632E001
:100FA000CF01B90150E042DA99C081E08093460157
:100FB000CE0161EA72E07FC011E01093460187E63E
:100FC00092E064E972E04CE050E01ADA892B69F4AF
:100FD000CE0166E872E04DE050E01FDACE016DE030
:100FE00040E051DE1093470179C087E692E06DE75B
:100FF00072E048E050E004DA892B61F4CE0163E747
:1010000072E049E050E009DACE0169E040E03BDE01
:1010100082E029C087E692E068E672E04AE050E0AC
:10102000EFD9892B61F4CE016CE572E04BE050E022
:10103000F4D9CE016BE040E026DE83E014C087E601
:1010400092E065E472E046E150E0DAD9892B71F470
:10105000CE016DE272E047E150E0DFD9CE0167E1F9
:1010600040E011DE84E08093470138C087E692E0DB
:1010700062E272E04AE050E0C3D9892B59F484EA75
:1010800093E065E172E04CE050E0C7D984EA93E078
:101090006CE022C000D089EF91E0EDB7FEB79283FB
:1010A00081831FDA0F900F9019C081E08093460171
:1010B000CE0162EF71E046E050E0AFD9CE0166E0CC
:1010C0000BC081E080934601CE0168EE71E049E0FB
:1010D00050E0A3D9CE0169E040E0D5DDDF91CF91AA
:1010E0001F9108952F923F924F925F926F927F923D
:1010F0008F929F92AF92BF92CF92DF92EF92FF9228
:101100000F931F93CF93DF9363DEE9E4F1E02FB7F2
:10111000F89485E591E0918380839383828395831E
:10112000848385ED91E09783868380E890E09187C2
:101130008087138612862FBFE5EDF1E02FB7F89474
:1011400081EE91E09183808393838283958384836E
:1011500081E692E09783868380E890E0918780879C
:10116000138612862FBF8898789442E6C42E43E0F7
:10117000D42E36EE432E33E0532E46010894811CC4
:10118000911C21E6E22E22E0F22E37010894611C28
:10119000711C94E0A92EB12CAE0CBF1C81EC282E42
:1011A00080E0382E8BE191E0AAD78091C80087FFBC
:1011B00025C11091CE0000D000D0EDB7FEB731961A
:1011C00044ED51E0ADB7BEB712965C934E931197C4
:1011D0001283138286D98091A303E82FF0E0EE59A1
:1011E000FC4F10838F5F8093A3030F900F900F909D
:1011F0000F9080916203883901F1893978F48B3836
:1012000009F4A0C08C3820F48B3009F0B8C0ADC010
:10121000803999F0843909F0B2C00FC0843B69F07D
:10122000853B30F48C3949F0803B09F0A8C005C0FB
:10123000883B19F08C3B09F0A2C081E08093440107
:101240008091A303853021F580916503813101F5FB
:10125000809166038F3FE1F48091C80085FFFCCF49
:1012600081E18093CE0000D000D0E2ECF1E0ADB798
:10127000BEB71296FC93EE93119781E190E014961D
:101280009C938E9313972DD90F900F900F900F90E2
:101290008091A303883008F4B1C0109167031F70D8
:1012A000185F811708F4AAC000D000D0EDB7FEB7D0
:1012B000319640EA51E0ADB7BEB712965C934E93BB
:1012C0001197128313820DD981E4A4EAB3E01D9231
:1012D0008A95E9F789E28093A403A5EAB3E020E0C8
:1012E00030E00F900F900F900F90C2E6D3E0F9011D
:1012F000EC0FFD1F80818D932F5F3F4F2117A8F3C7
:1013000080914501882349F0412F41504093450188
:10131000C201BE0150E08AD805C084EA93E0612F83
:1013200040E0B1DC4091A303411B4093A303212F74
:1013300030E02E593C4FC601B90150E077D81092E9
:1013400044015CC000D044E851E0EDB7FEB75283E1
:101350004183C7D8609145010F900F90662329F013
:101360006F5F85EE93E040E08EDC109245011092B5
:1013700044014091A30341504093A3031DC0109228
:10138000440100D000D0EDB7FEB7319646E651E0FB
:10139000ADB7BEB712965C934E93119780916203DE
:1013A000828313829ED84091A30341504093A303AC
:1013B0000F900F900F900F90C601B40150E036D8F7
:1013C0001DC080916103E82FF0E0EF59FD4F2083AD
:1013D0008F5F8093610300D000D0E0E6F1E0ADB70D
:1013E000BEB71296FC93EE93119714963C932E93EE
:1013F000139777D80F900F900F900F9080E091E0A7
:101400007ED69C0197FFDDCF13C010916102183684
:10141000A1F0103191F0153E09F416DD4091610301
:10142000415040936103C701B30150E00E9416028E
:1014300000916103002349F7CCC0043008F4C9C00F
:1014400081E692E06BE571E044E050E00E9400022A
:10145000892BF9F400D0E5E4F1E0ADB7BEB7129600
:10146000FC93EE9311973DD80F900F9085ED91E08E
:1014700065EEEADB1092450110924401109261037F
:101480001092A3031092460189E491E061E0DCDB55
:10149000A0C081E692E060E471E044E050E00E9488
:1014A0000002892BB1F485ED91E060E1CDDB85EDA3
:1014B00091E06BE8C9DB85ED91E06BE8C5DB85ED7C
:1014C00091E066E1C1DB40916103445040936103C8
:1014D00072C0183609F072C080916402883609F033
:1014E0006DC02091620280916302281709F066C0E6
:1014F000122F1A5F011708F46CC0212F30E0F90198
:10150000E05AFD4F80818631A9F5809166028131D4
:1015100051F480914401882309F05BC0809145011A
:10152000882309F056C000D000D0E0E2F1E0ADB76A
:10153000BEB71296FC93EE93119714963C932E939C
:1015400013970E9471020F900F900F900F9080914F
:101550006602813121F085ED91E065EE75DB74DC8A
:1015600040916103411B40936103212F30E02F59CB
:101570003D4F2AC000D000D000D0EDB7FEB7319665
:101580004FEE50E0ADB7BEB712965C934E931197F5
:1015900033832283848315820E9471024091610308
:1015A0004450409361038DB79EB706960FB6F894EA
:1015B0009EBF0FBE8DBFC701B50108C0402F44506C
:1015C0004093610325E632E0C701B90150E00E9473
:1015D00016028FB7F8940091DF011091E0018FBFE0
:1015E0000115110509F44BC08898E091D701F091DD
:1015F000D80180E091E0608150D6882309F032C0A4
:10160000C5EDD1E0EA81FB814191FB83EA838E81C4
:101610009F81E817F90721F48C819D819B838A8340
:101620008FB7F8942A853B85215030403B872A8725
:101630008FBF00D000D0EDB7FEB7319689EE90E0B5
:10164000ADB7BEB712969C938E93119742831382C7
:101650000E947102015010400F900F900F900F9058
:1016600009F0C3CF00D0E3EDF0E0ADB7BEB71296FE
:10167000FC93EE9311970E9471020F900F902FB779
:10168000F89480915301909154012FBF892B09F454
:1016900035C08091C80085FF31C0C9E4D1E0EA813E
:1016A000FB813191FB83EA838E819F81E817F907E3
:1016B00021F48C819D819B838A832FB7F8948A853E
:1016C0009B8501979B878A872FBF8091C80085FFE4
:1016D000FCCF3093CE0000D000D0EDB7FEB73196EE
:1016E000ADB7BEB712963C922E92119732831382F9
:1016F0000E9471020F900F900F900F9080E091E088
:10170000B4D58BE191E0B1D5E5D44CCDDA0192307E
:1017100049F0933061F09130F9F4E7EFF2E022E123
:1017200030E01EC0E9E0F3E023E830E019C081308A
:1017300049F0813018F0823079F408C0ECE8F3E029
:10174000849107C0E0E9F3E0849103C0E8EAF3E0A4
:101750008491282F30E004C0E0E0F0E020E030E0A9
:10176000ED93FC93C90108959C014091310450917F
:1017700032044617570718F4F90190E045C0611587
:10178000710511F0AB01F8CF8091E8008E7780935E
:10179000E80040E050E0F0CF80912A04882309F46B
:1017A00045C0853009F444C08091E80083FF02C041
:1017B00081E008958091E80082FD32C08091E800C8
:1017C00080FF22C08091F3009091F200782F60E0BA
:1017D000292F30E0262B372B07C081918093F10011
:1017E000415050402F5F3F4F4115510519F02830AF
:1017F000310598F390E02830310509F491E08091AB
:10180000E8008E778093E8004115510529F6992369
:1018100019F606C080912A04882341F0853041F0F2
:101820008091E80082FFF6CF80E0089582E008957D
:1018300083E008959C014091310450913204461791
:10184000570718F4F90190E046C06115710511F0D1
:10185000AB01F8CF8091E8008E778093E80040E0FC
:1018600050E0F0CF80912A04882309F447C08530E6
:1018700009F446C08091E80083FF02C081E008952A
:101880008091E80082FD34C08091E80080FF23C091
:101890008091F3009091F200782F60E0292F30E0E2
:1018A000262B372B08C084918093F100319641504C
:1018B00050402F5F3F4F4115510519F02830310539
:1018C00090F390E02830310509F491E08091E80030
:1018D0008E778093E8004115510521F6992309F090
:1018E000C1CF06C080912A04882341F0853041F0A1
:1018F0008091E80082FFF6CF80E0089582E00895AD
:1019000083E00895BF92CF92DF92EF92FF920F9300
:101910001F93CF93DF93182F092F7B016A01D8D033
:10192000B82E8823A9F5812F902F9C01E901C114BD
:10193000D10439F0F60180819181E81AF90AC80FC3
:10194000D91F00E010E021C08091E80085FD15C09E
:101950008091E8008E778093E800C114D10449F0AB
:10196000F60180819181800F911F9183808385E0B2
:1019700010C0AED0882349F00CC089918093F1004B
:101980000894E108F1080F5F1F4FE114F104E1F63C
:101990008B2DDF91CF911F910F91FF90EF90DF90F2
:1019A000CF90BF900895382F282F2EC0822F8F7090
:1019B0008093E900231721F4762F942F50E006C07E
:1019C0007091EC009091ED005091F00091FF1BC0E0
:1019D0008091EB008E7F8093EB008091ED008D7FF6
:1019E0008093ED008091EB0081608093EB00709319
:1019F000EC009093ED005093F0008091EE0087FD95
:101A000002C080E008952F5F273080F23F7030934E
:101A1000E90081E008950F931F93CF93DF93062F82
:101A2000EC0110E02AC09881992329F16B81E981AA
:101A3000FA812C81892F8F70873018F5223010F4AD
:101A400052E001C056E028E030E040E003C04F5FC4
:101A5000220F331F2E173F07D0F36295660F660FD4
:101A6000607C991F9927991F692B4295407F452BD0
:101A70009ADF882331F01F5F25961017A0F281E0CE
:101A800001C080E0DF91CF911F910F910895809167
:101A90002B0488239CF404C080912A048823B9F085
:101AA0008091E80082FFF8CF8091E8008B778093E7
:101AB000E800089580912A04882349F08091E80085
:101AC00080FFF8CF8091E8008E778093E80008953A
:101AD0004091E4005091E50024E68091EC0080FF05
:101AE00024C08091E80080FD1EC080912A048823D4
:101AF00011F482E00895853011F483E00895809117
:101B0000EB0085FF02C081E008958091E400909190
:101B1000E5008417950709F3222311F484E0089562
:101B20002150AC01DACF80E008958091E80082FF77
:101B3000DCCFF9CFEF92FF920F931F934FD056D087
:101B400008ED10E0F80180818F77808380818068C4
:101B5000808380818F7D808319BC10922A0410922B
:101B60002604109228041092270480EEE82EF12C0F
:101B7000F70180818B7F8083F80180818160808381
:101B800080E060E042E00FDFE1EEF0E080818E7FF8
:101B90008083E2EEF0E080818160808380818860D4
:101BA0008083F70180818E7F8083F801808180614E
:101BB00080831F910F91FF90EF900895E8EDF0E082
:101BC00080818F7E8083E7EDF0E08081816080837B
:101BD00084E082BF81E080932904ACCFE8EDF0E09F
:101BE00080818E7F80831092E20008951092DA0047
:101BF0001092E10008951F920F920FB60F921124D8
:101C00001F932F933F934F935F936F937F938F9384
:101C10009F93AF93BF93EF93FF931091E90080914F
:101C2000EC001092E9008091F000877F8093F00033
:101C30007894E5D01092E9008091F000886080935C
:101C4000F0001F701093E900FF91EF91BF91AF91E9
:101C50009F918F917F916F915F914F913F912F91C4
:101C60001F910F900FBE0F901F9018951F920F920B
:101C70000FB60F9211242F933F934F935F936F935F
:101C80007F938F939F93AF93BF93EF93FF93809135
:101C9000E10082FF0AC08091E20082FF06C08091CD
:101CA000E1008B7F8093E10014D28091DA0080FF05
:101CB0001DC08091D80080FF19C08091DA008E7F0E
:101CC0008093DA008091D90080FF0CC080E189BD4B
:101CD00082E189BD09B400FEFDCF81E080932A0432
:101CE00037D804C019BC10922A0434D88091E1007E
:101CF00080FF18C08091E20080FF14C08091E20054
:101D00008E7F8093E2008091E20080618093E20008
:101D10008091D80080628093D80019BC85E08093C0
:101D20002A04D7D18091E10084FF2DC08091E20088
:101D300084FF29C080E189BD82E189BD09B400FE2C
:101D4000FDCF8091D8008F7D8093D8008091E100F5
:101D50008F7E8093E1008091E2008F7E8093E2008D
:101D60008091E20081608093E200809126048823C4
:101D700031F48091E30087FD02C081E001C084E07E
:101D800080932A04A6D18091E10083FF27C080912F
:101D9000E20083FF23C08091E100877F8093E10010
:101DA00082E080932A04109226048091E1008E7FC5
:101DB0008093E1008091E2008E7F8093E200809129
:101DC000E20080618093E20080E060E042E0EBDDD1
:101DD0008091F00088608093F0007BD1FF91EF91BB
:101DE000BF91AF919F918F917F916F915F914F9133
:101DF0003F912F910F900FBE0F901F9018951F933A
:101E0000DF93CF93CDB7DEB7AC970FB6F894DEBFB4
:101E10000FBECDBFEBE2F4E08091F100819324E0AE
:101E2000E333F207C9F70E94CE068091E80083FFF2
:101E300038C180912B0430912C04353009F487C0CF
:101E4000363040F43130C9F1313070F0333009F0C0
:101E500028C133C0383009F4F5C0393009F404C161
:101E6000363009F01EC196C0803821F0823809F062
:101E700018C108C09091270480912804882399F004
:101E8000926011C080912F048F708093E90080913F
:101E9000EB0090E025E0969587952A95E1F7982F3D
:101EA00091701092E9008091E800877F8093E800AC
:101EB0009093F1001092F100D0C0882319F0823085
:101EC00009F0EFC090E08F719070009721F00297B9
:101ED00009F0E7C00CC080912D04813009F0E1C009
:101EE00010922804333069F5809328042AC0809129
:101EF0002D04882331F520912F042F7009F4D1C0CF
:101F00002093E9008091EB0080FF1BC0333021F467
:101F10008091EB00806213C08091EB008061809320
:101F2000EB0081E090E002C0880F991F2A95E2F74C
:101F30008093EA001092EA008091EB008860809321
:101F4000EB001092E9008091E800877F89C0882328
:101F500009F0A7C010912D041F778091E3008078CD
:101F6000812B8093E3008091E800877F8093E800D5
:101F70008EDD8091E80080FFFCCF8091E3008068D7
:101F80008093E300112311F482E001C083E0809389
:101F90002A0487C08058823008F083C080912D04C5
:101FA00090912E0423E08C3D920709F033C083E02A
:101FB0008C838AE28B837FB7F894DE0115966EE0FE
:101FC00040E050E011E2E62FF0E0109357008491DA
:101FD00040FF03C082958F706F5F8F70282F30E0B5
:101FE0008A3018F0C901C79602C0C901C0968D9306
:101FF0009D934F5F5F4F4431510529F77FBF80911B
:10200000E800877F8093E800CE0103966AE270E0E3
:10201000ABDB12C060912F04AE014F5F5F4F76DBE8
:10202000BC01009709F43DC08091E800877F809350
:10203000E80089819A81FEDB8091E8008B778093AC
:10204000E8002FC0803869F58091E800877F809391
:10205000E800809126048093F1008091E8008E775B
:102060008093E80014DD1DC08823D9F490912D04DD
:102070009230B8F48091E800877F8093E8009093D5
:10208000260405DD80912604882331F48091E30045
:1020900087FD02C081E001C084E080932A040E9491
:1020A000D6068091E80083FF0AC08091E800877F10
:1020B0008093E8008091EB0080628093EB00AC9607
:1020C0000FB6F894DEBF0FBECDBFCF91DF911F9149
:1020D000089508951F9380912A04882371F0109128
:1020E000E9008091EC001092E9008091E80083FF04
:1020F00001C085DE1F701093E9001F910895FC0157
:1021000080912A04843099F584899589A689B789B4
:102110000097A105B10559F186818F708093E90080
:102120008091E80082FF23C04091F3002091F200EB
:10213000942F80E030E0822B932B892B19F46FEFE2
:102140007FEF04C08091F100682F70E04091F300B0
:102150002091F200942F80E030E0822B932B892B8A
:1021600041F48091E8008B778093E80002C06FEF24
:102170007FEFCB01089508950F931F93DF93CF93C3
:10218000CDB7DEB728970FB6F894DEBF0FBECDBF30
:102190008C0180912A04843049F5F801848995895D
:1021A000A689B7890097A105B10501F183858F70D4
:1021B0008093E900DE011196E6E3F1E088E001900A
:1021C0000D928150E1F7CE01019668E070E040E0A9
:1021D00050E098DBC801429662E070E040E050E0D9
:1021E00091DB8091E8008E778093E80028960FB607
:1021F000F894DEBF0FBECDBFCF91DF911F910F913D
:102200000895FC0180912A04843051F584899589D0
:10221000A689B7890097A105B10511F181818F7059
:102220008093E9004091F3002091F200942F80E028
:1022300030E0822B932B892BA9F09091E8008091BC
:10224000E8008E778093E80095FD0CC041DC982F64
:10225000882349F48091E8008E778093E80003C0DA
:1022600092E001C090E0892F0895FC0180912A043A
:10227000843091F484899589A689B7890097A1054E
:10228000B10551F081818F708093E9008091E80061
:1022900080FF02C0CF01B5CF08951F93FC01162F18
:1022A00080912A048430E1F484899589A689B789CC
:1022B0000097A105B105A1F081818F708093E9009D
:1022C0008091E80085FD08C08091E8008E778093BA
:1022D000E800FEDB882329F41093F10080E001C0C0
:1022E00082E01F910895CF93DF93EC014096FC01AB
:1022F0008BE0DF011D928A95E9F782E08C83898764
:1023000083E08E87CE01019661E085DB882371F042
:10231000CE01069661E07FDB882341F0CE010B966B
:1023200061E079DB882319F081E001C080E0DF9172
:10233000CF910895CF93DF93EC018091E80083FF64
:10234000A4C0888190E020912F0430913004281798
:10235000390709F09AC080912C04813269F08232E9
:1023600020F4803209F091C03CC0823209F46BC085
:10237000833209F08AC07BC080912B04813A09F036
:1023800084C08091E800877F8093E8008091E80016
:1023900080FFFCCF8C899D89AE89BF898093F10035
:1023A000292F3A2F4B2F55272093F1009D014427C9
:1023B00055272093F1008B2F9927AA27BB278093BD
:1023C000F100888D8093F100898D8093F1008A8DD2
:1023D0008093F1008091E8008E778093E80057DBCE
:1023E00054C080912B04813209F04FC08091E800E5
:1023F000877F8093E80005C080912A04882309F430
:1024000044C08091E80082FFF7CF8091F100909165
:10241000F1002091F1003091F1008C8B9D8B2E8B7F
:102420003F8B8091F100888F8091F100898F80919E
:10243000F1008A8F8091E8008B778093E80027DB9A
:10244000CE0199DE22C080912B048132F1F480917B
:10245000E800877F8093E8001ADB80912D0490913B
:102460002E04998B888BCE010E94AC060EC0809101
:102470002B04813251F48091E800877F8093E8003B
:1024800006DBCE0160912D0476DEDF91CF910895B9
:102490002F923F924F925F926F927F928F929F9274
:1024A000AF92BF92CF92DF92EF92FF920F931F9362
:1024B000CF93DF93CDB7DEB7CA1BDB0B0FB6F89413
:1024C000DEBF0FBECDBF09942A88398848885F8453
:1024D0006E847D848C849B84AA84B984C884DF80C4
:1024E000EE80FD800C811B81AA81B981CE0FD11DA8
:1024F0000FB6F894DEBF0FBECDBFED010895F8947E
:02250000FFCF0B
:102502000081100000010210000001830800000198
:102512000000000000000000000000028410000023
:102522000105100000018608000001000000000003
:10253200000000000000A1200000000002002000B6
:042542003D04000054
:00000001FF
