:1000000093C00000ACC00000AAC00000A8C000005F
:10001000A6C00000A4C00000A2C00000A0C0000054
:100020009EC000009CC000008EC4000051C40000AF
:1000300096C0000094C0000092C0000090C0000074
:100040008EC000008CC000008AC0000088C0000084
:1000500086C0000084C0000082C0000080C0000094
:100060007EC000007FC000007AC0000078C00000A1
:1000700076C0000074C0000072C0000070C00000B4
:100080006EC000006CC000006AC0000068C00000C4
:1000900066C0000064C0000062C0000060C00000D4
:1000A0005EC000005CC000005AC0000012011001D8
:1000B00002000008EB034B2001000102DC010902F1
:1000C0003E00020100C032090400000102020100EA
:1000D000052400100104240206052406000107057A
:1000E00082030800FF09040100020A00000007055E
:1000F0000402100001070583021000010403090433
:1001000018036200750073007700610072006500DB
:100110002E006400650000003003540043004D00D1
:10012000330031003000000011241FBECFEFDAE0B1
:10013000DEBFCDBF11E0A0E0B1E0E8EEF0E102C02B
:1001400005900D92A632B107D9F712E0A6E2B1E010
:1001500001C01D92AA34B107E1F773D0C3C750CFD5
:10016000089508951F920F920FB60F9211242F93A6
:100170003F938F939F93CF93DF93EF93FF93909150
:10018000CE008EB38430D9F4C2EBD1E0E881F9819E
:100190009083888199810196998388832E813F81FC
:1001A0008217930721F48C819D81998388832FB7CF
:1001B000F8948A859B8501969B878A872FBFFF913C
:1001C000EF91DF91CF919F918F913F912F910F9060
:1001D0000FBE0F901F901895089580E091E0C2C661
:1001E00080E091E098C684B7877F84BF88E10FB62E
:1001F000F89480936000109260000FBE80E090E061
:1002000020E80FB6F89420936100809361000FBE40
:100210006E9A769A729A6A98579A5F9A3CD384E05B
:1002200085BD80E190E09093CD008093CC0086E086
:100230008093CA0082E08093C80088E98093C90057
:1002400008952F923F924F925F926F927F928F927A
:100250009F92AF92BF92CF92DF92EF92FF920F9355
:100260001F93DF93CF93CDB7DEB72A970FB6F894DD
:10027000DEBF0FBECDBFDE011196EBE1F1E08AE0FB
:1002800001900D928150E1F7AEDFE6E2F1E02FB789
:10029000F89482E391E091838083938382839583B2
:1002A000848382EB91E09783868380E890E0918756
:1002B0008087138612862FBFE2EBF1E02FB7F89408
:1002C0008EEB91E0918380839383828395838483F3
:1002D0008EE392E09783868380E890E09187808721
:1002E000138612862FBF7894CC24DD24EE24FF24BD
:1002F00046E2A42E41E0B42E32EB232E31E0332E21
:100300002E010894411C511C2BE0622E712C6C0EA6
:100310007D1E98EC892E912CE114F10441F48EB3EA
:10032000843019F4769A5F9802C076985F9A8FB7F6
:10033000F89420913001309131018FBF80912E01CE
:1003400090912F012817390749F180E091E038D5C5
:1003500097FD24C0F501AF010190F081E02D80836D
:10036000DA018D919C911197019611969C938E9331
:1003700016962D913C9117978217930731F4149696
:100380008D919C9115978D939C932FB7F894FA01BA
:10039000828593850196938782872FBF8FB7F894C4
:1003A0000091BC011091BD018FBFA89904C0093C08
:1003B000110508F45EC0A89A0894C11CD11CE11470
:1003C000F10461F4629B18C0F9EECF16F3E0DF068A
:1003D00008F44CC08EB3843079F448C0C6016AE793
:1003E00070E06CD6892B21F48EB190E489278EB908
:1003F00081E0E82EF12C3AC05F9B08C05F9886EF41
:1004000099E0F4013197F1F70197D9F7F201908162
:100410008091C80085FFFCCF9093CE003196E61501
:10042000F705A9F7E5CFE091B401F091B50180E0BF
:1004300091E060814BD58823E1F4F10182819381C1
:10044000019693838283268137818217930721F453
:1004500084819581938382832FB7F89482859385D5
:100460000197938782872FBF015010400115110516
:10047000D1F62FB7F89480913001909131012FBFC0
:10048000892B49F1F501AF010280F381E02D319113
:10049000DA011396FC93EE93129716968D919C9128
:1004A0001797E817F90741F414968D919C911597C9
:1004B00013969C938E9312972FB7F894FA01828526
:1004C00093850197938782872FBF8091C80085FF0E
:1004D000FCCF3093CE0080E091E0E1D45DD41CCF1E
:1004E000DA01923049F0933061F09130F9F4ECEA9E
:1004F000F0E022E130E01EC0EEEBF0E02EE330E071
:1005000019C0813049F0813018F0823079F408C088
:10051000ECEFF0E0849107C0E0E0F1E0849103C0EB
:10052000E8E1F1E08491282F30E004C0E0E0F0E061
:1005300020E030E0ED93FC93C90108959C014091C7
:100540004802509149024617570718F4F90190E004
:1005500044C06115710511F0AB01F8CF8091E8003E
:100560008E778093E80040E050E0F0CF8EB3882390
:1005700009F444C0853009F443C08091E80083FF4A
:1005800002C081E008958091E80082FD31C0809131
:10059000E80080FF22C08091F3009091F200782F54
:1005A00060E0292F30E0262B372B07C08191809304
:1005B000F100415050402F5F3F4F4115510519F058
:1005C0002830310598F390E02830310509F491E0A6
:1005D0008091E8008E778093E8004115510531F64F
:1005E000992321F605C08EB3882341F0853041F070
:1005F0008091E80082FFF7CF80E0089582E00895BF
:1006000083E008959C0140914802509149024617A9
:10061000570718F4F90190E045C06115710511F014
:10062000AB01F8CF8091E8008E778093E80040E03E
:1006300050E0F0CF8EB3882309F446C0853009F42A
:1006400045C08091E80083FF02C081E00895809159
:10065000E80082FD33C08091E80080FF23C08091D4
:10066000F3009091F200782F60E0292F30E0262BE4
:10067000372B08C084918093F1003196415050404F
:100680002F5F3F4F4115510519F02830310590F388
:1006900090E02830310509F491E08091E8008E77F0
:1006A0008093E8004115510529F6992309F0C2CF3E
:1006B00005C08EB3882341F0853041F08091E80079
:1006C00082FFF7CF80E0089582E0089583E00895E7
:1006D0008F708093E9008091EB0081608093EB0044
:1006E0001092ED006093EC004093ED008091EE00DD
:1006F000881F8827881F08950F931F93CF93DF9338
:10070000062FEC0110E02AC09881992329F16B8112
:10071000E981FA812C81892F8F70873018F522307A
:1007200010F452E001C056E040E028E030E003C0A1
:100730004F5F220F331F2E173F07D0F36295660FCE
:10074000660F607C991F9927991F692B4295407FFE
:10075000452BBEDF882331F01F5F25961017A0F2CE
:1007600081E001C080E0DF91CF911F910F9108954A
:100770008091420288238CF403C08EB38823B1F0A9
:100780008091E80082FFF9CF8091E8008B77809319
:10079000E80008958EB3882349F08091E80080FF37
:1007A000F9CF8091E8008E778093E800089540911A
:1007B000E4005091E50024E68091EC0080FF23C026
:1007C0008091E80080FD1DC08EB3882311F482E083
:1007D0000895853011F483E008958091EB0085FF42
:1007E00002C081E008958091E4009091E5008417B3
:1007F000950711F3222311F484E008952150AC01F0
:10080000DBCF80E008958091E80082FFDDCFF9CF53
:10081000EF92FF920F931F934ED055D008ED10E04A
:10082000F80180818F7780838081806880838081D8
:100830008F7D808319BC1EBA10923E021092400236
:1008400010923F0280EEE82EF12CF70180818B7F21
:100850008083F80180818160808380E060E042E0F5
:1008600037DFE1EEF0E080818E7F8083E2EEF0E022
:10087000808181608083808188608083F7018081AE
:100880008E7F8083F8018081806180831F910F912A
:10089000FF90EF900895E8EDF0E080818F7E8083F7
:1008A000E7EDF0E080818160808384E082BF81E0B9
:1008B00080934102ADCFE8EDF0E080818E7F8083B0
:1008C0001092E20008951092DA001092E10008956B
:1008D0001F920F920FB60F9211241F932F933F93E5
:1008E0004F935F936F937F938F939F93AF93BF9338
:1008F000EF93FF931091E9008091EC001092E900D2
:100900008091F000877F8093F0007894DED0109281
:10091000E9008091F00088608093F0001F701093D0
:10092000E900FF91EF91BF91AF919F918F917F91DE
:100930006F915F914F913F912F911F910F900FBE3B
:100940000F901F9018951F920F920FB60F921124BF
:100950002F933F934F935F936F937F938F939F93C7
:10096000AF93BF93EF93FF938091E10082FF0AC0A2
:100970008091E20082FF06C08091E1008B7F80932E
:10098000E10009D28091DA0080FF1AC08091D8007E
:1009900080FF16C08091DA008E7F8093DA0080910C
:1009A000D90080FF0AC019BC82E089BD09B400FEED
:1009B000FDCF81E08EBBD4DB03C019BC1EBAD1DBF6
:1009C0008091E10080FF17C08091E20080FF13C09A
:1009D0008091E2008E7F8093E2008091E20080614E
:1009E0008093E2008091D80080628093D80019BC87
:1009F00085E08EBBD0D18091E10084FF2BC0809137
:100A0000E20084FF27C019BC82E089BD09B400FE62
:100A1000FDCF8091D8008F7D8093D8008091E10038
:100A20008F7E8093E1008091E2008F7E8093E200D0
:100A30008091E20081608093E20080913E028823F1
:100A400031F48091E30087FD02C081E001C084E0C1
:100A50008EBBA1D18091E10083FF26C08091E2008E
:100A600083FF22C08091E100877F8093E10082E0D4
:100A70008EBB10923E028091E1008E7F8093E10058
:100A80008091E2008E7F8093E2008091E20080619D
:100A90008093E20080E060E042E01ADE8091F000A6
:100AA00088608093F00077D1FF91EF91BF91AF9173
:100AB0009F918F917F916F915F914F913F912F9176
:100AC0000F900FBE0F901F9018951F93DF93CF9339
:100AD000CDB7DEB7AC970FB6F894DEBF0FBECDBF73
:100AE000E2E4F2E08091F100819322E0EA34F2073F
:100AF000C9F773DB8091E80083FF35C18091420222
:100B000030914302353009F487C0363040F431303B
:100B1000C9F1313070F0333009F025C133C03830BD
:100B200009F4F4C0393009F403C1363009F01BC1AF
:100B300095C0803821F0823809F015C108C0909125
:100B40003F0280914002882399F0926011C0809109
:100B500046028F708093E9008091EB0090E025E0E1
:100B6000969587952A95E1F7982F91701092E90054
:100B70008091E800877F8093E8009093F1001092C5
:100B8000F100CFC0882319F0823009F0ECC090E06A
:100B90008F719070009721F0029709F0E4C00CC0AB
:100BA00080914402813009F0DEC01092400233305F
:100BB00069F5809340022AC080914402882331F570
:100BC000209146022F7009F4CEC02093E900809155
:100BD000EB0080FF1BC0333021F48091EB0080627A
:100BE00013C08091EB0080618093EB0081E090E086
:100BF00002C0880F991F2A95E2F78093EA001092AD
:100C0000EA008091EB0088608093EB001092E9008D
:100C10008091E800877F88C0882309F0A4C01091E4
:100C200044021F778091E3008078812B8093E3005A
:100C30008091E800877F8093E8009ADD8091E8004A
:100C400080FFFCCF8091E30080688093E300112354
:100C500011F482E001C083E08EBB85C080588230F1
:100C600008F081C0809144029091450223E08C3DC0
:100C7000920709F033C083E08C838AE28B837FB7CD
:100C8000F894DE0115966EE040E050E011E2E62FA8
:100C9000F0E010935700849140FF03C082958F705D
:100CA0006F5F8F70282F30E08A3018F0C901C79627
:100CB00002C0C901C0968D939D934F5F5F4F443131
:100CC000510529F77FBF8091E800877F8093E80076
:100CD000CE0103966AE270E031DC12C060914602F8
:100CE000AE014F5F5F4FFCDBBC01009709F43BC0D6
:100CF0008091E800877F8093E80089819A8182DC77
:100D00008091E8008B778093E8002DC0803859F5FA
:100D10008091E800877F8093E80080913E02809375
:100D2000F1008091E8008E778093E80021DD1BC000
:100D30008823C9F4909144029230A8F48091E8008D
:100D4000877F8093E80090933E0212DD80913E02FF
:100D5000882331F48091E30087FD02C081E001C067
:100D600084E08EBB3DDA8091E80083FF0AC0809169
:100D7000E800877F8093E8008091EB008062809399
:100D8000EB00AC960FB6F894DEBF0FBECDBFCF918F
:100D9000DF911F91089508951F938EB3882371F0FA
:100DA0001091E9008091EC001092E9008091E80038
:100DB00083FF01C08ADE1F701093E9001F91089520
:100DC000FC018EB3843099F584899589A689B78909
:100DD0000097A105B10559F186818F708093E900D4
:100DE0008091E80082FF23C04091F3002091F2003F
:100DF000942F80E030E0822B932B892B19F46FEF36
:100E00007FEF04C08091F100682F70E04091F30003
:100E10002091F200942F80E030E0822B932B892BDD
:100E200041F48091E8008B778093E80002C06FEF77
:100E30007FEFCB0108950895FC018EB3843051F506
:100E400084899589A689B7890097A105B10511F113
:100E500081818F708093E9004091F3002091F2002E
:100E6000942F80E030E0822B932B892BA9F0909176
:100E7000E8008091E8008E778093E80095FD0CC033
:100E800096DC982F882349F48091E8008E77809330
:100E9000E80003C092E001C090E0892F0895FC01B2
:100EA0008EB3843091F484899589A689B789009797
:100EB000A105B10551F081818F708093E900809187
:100EC000E80080FF02C0CF01B7CF08951F93FC0157
:100ED000162F8EB38430E1F484899589A689B78969
:100EE0000097A105B105A1F081818F708093E90081
:100EF0008091E80085FD08C08091E8008E7780939E
:100F0000E80055DC882329F41093F10080E001C04B
:100F100082E01F910895CF93DF93EC014096FC018E
:100F20008BE0DF011D928A95E9F782E08C83898747
:100F300083E08E87CE01019661E0DEDB882371F0CD
:100F4000CE01069661E0D8DB882341F0CE010B96F6
:100F500061E0D2DB882319F081E001C080E0DF91FD
:100F6000CF910895CF93DF93EC018091E80083FF48
:100F7000A2C0888190E02091460230914702281754
:100F8000390709F098C080914302813269F08232BA
:100F900020F4803209F08FC03CC0823209F46AC06C
:100FA000833209F088C079C080914202813A09F009
:100FB00082C08091E800877F8093E8008091E800FC
:100FC00080FFFCCF8C899D89AE89BF898093F10019
:100FD000292F3A2F4B2F55272093F1009D014427AD
:100FE00055272093F1008B2F9927AA27BB278093A1
:100FF000F100888D8093F100898D8093F1008A8DB6
:101000008093F1008091E8008E778093E800B0DB58
:1010100052C080914202813209F04DC08091E800B7
:10102000877F8093E80004C08EB3882309F443C00F
:101030008091E80082FFF8CF8091F1009091F1005B
:101040002091F1003091F1008C8B9D8B2E8B3F8B8A
:101050008091F100888F8091F100898F8091F1005B
:101060008A8F8091E8008B778093E80081DBCE0146
:10107000B3D821C0809142028132E9F48091E80026
:10108000877F8093E80074DB809144029091450251
:10109000998B888BCE01CFDE0EC0809142028132C7
:1010A00051F48091E800877F8093E80061DBCE01F6
:1010B00060914402C0DEDF91CF910895AA1BBB1B53
:1010C00051E107C0AA1FBB1FA617B70710F0A61B48
:1010D000B70B881F991F5A95A9F780959095BC0169
:0810E000CD010895F894FFCF43
:1010E80000831000000104100000018208000001C4
:1010F800000000000000000000000055000300058B
:06110800A6090101280008
:00000001FF
