:1000000093C00000ACC00000AAC00000A8C000005F
:10001000A6C00000A4C00000A2C00000A0C0000054
:100020009EC000009CC00000F9C20000BEC20000DB
:1000300096C0000094C0000092C0000090C0000074
:100040008EC000008CC000008AC0000088C0000084
:1000500086C0000084C0000082C0000080C0000094
:100060007EC000007FC000007AC0000078C00000A1
:1000700076C0000074C0000072C0000070C00000B4
:100080006EC000006CC000006AC0000068C00000C4
:1000900066C0000064C0000062C0000060C00000D4
:1000A0005EC000005CC000005AC0000012011001D8
:1000B00002000008EB034B2001000102DC010902F1
:1000C0003E00020100C032090400000102020100EA
:1000D000052400100104240206052406000107057A
:1000E00082030800FF09040100020A00000007055E
:1000F0000402100001070583021000010403090433
:1001000018036200750073007700610072006500DB
:100110002E006400650000003003540043004D00D1
:10012000330031003000000011241FBECFEFDAE0B1
:10013000DEBFCDBF11E0A0E0B1E0EEE5FFE002C020
:1001400005900D92A831B107D9F712E0A8E1B1E00E
:1001500001C01D92AC33B107E1F76FD0FEC650CF9E
:10016000089508951F920F920FB60F9211242F93A6
:100170003F938F939F93CF93DF93EF93FF93909150
:10018000CE008EB38430D9F4C4EAD1E0E881F9819D
:100190009083888199810196998388832E813F81FC
:1001A0008217930721F48C819D81998388832FB7CF
:1001B000F8948A859B8501969B878A872FBFFF913C
:1001C000EF91DF91CF919F918F913F912F910F9060
:1001D0000FBE0F901F901895089580E091E016C60D
:1001E00080E091E0C3C584B7877F84BF88E10FB604
:1001F000F89480936000109260000FBE80E090E061
:1002000020E80FB6F89420936100809361000FBE40
:100210006E9A769AB2D184E085BD80E190E09093A9
:10022000CD008093CC0086E08093CA0082E080936A
:10023000C80088E98093C9000895EF92FF920F9358
:100240001F93CF93DF93CFDFE8E1F1E02FB7F8946E
:1002500084E291E091838083938382839583848376
:1002600084EA91E09783868380E890E09187808795
:10027000138612862FBFE4EAF1E02FB7F89480EBE3
:1002800091E091838083938382839583848380E349
:1002900092E09783868380E890E091878087138639
:1002A00012862FBF789408E111E084EAE82E81E0FD
:1002B000F82E8EB3843011F4769A01C076988FB7F9
:1002C000F89420912201309123018FBF8091200169
:1002D0009091210128173907F9F080E091E0A6D428
:1002E00097FD1AC0E801E881F981808388819981AE
:1002F0000196998388832E813F818217930721F489
:100300008C819D81998388832FB7F8948A859B85FA
:1003100001969B878A872FBF8FB7F894C091AE0153
:10032000D091AF018FBFA89903C0C93CD10530F16E
:10033000A89A22C0E091A601F091A70180E091E087
:100340006081F0D48823D1F4F701828193810196F2
:1003500093838283268137818217930721F48481D6
:100360009581938382832FB7F89482859385019733
:10037000938782872FBF21972097E1F62FB7F894B4
:1003800080912201909123012FBF892BE9F0E80190
:10039000EA81FB813191FB83EA838E819F81E8179B
:1003A000F90721F48C819D819B838A832FB7F89470
:1003B0008A859B8501979B878A872FBF8091C8007C
:1003C00085FFFCCF3093CE0080E091E09CD41CD41C
:1003D00070CFDA01923049F0933061F09130F9F446
:1003E000ECEAF0E022E130E01EC0EEEBF0E02EE3BC
:1003F00030E019C0813049F0813018F0823079F452
:1004000008C0ECEFF0E0849107C0E0E0F1E08491F7
:1004100003C0E8E1F1E08491282F30E004C0E0E07F
:10042000F0E020E030E0ED93FC93C9010895809363
:10043000E9008091EB0081608093EB001092ED0069
:100440006093EC004093ED008091EE00881F8827B8
:10045000881F08958091340288238CF403C08EB3E2
:100460008823B1F08091E80082FFF9CF8091E80005
:100470008B778093E80008958EB3882349F08091AC
:10048000E80080FFF9CF8091E8008E778093E80044
:1004900008954091E4005091E50024E68091EC003D
:1004A00080FF23C08091E80080FD1DC08EB38823AB
:1004B00011F482E00895853011F483E0089580916D
:1004C000EB0085FF02C081E008958091E4009091E7
:1004D000E5008417950711F3222311F484E00895B1
:1004E0002150AC01DBCF80E008958091E80082FFCD
:1004F000DDCFF9CFEF92FF920F931F9349D050D0E9
:1005000008ED10E0F80180818F778083808180681A
:10051000808380818F7D808319BC1EBA1092300247
:10052000109232021092310280EEE82EF12CF70187
:1005300080818B7F8083F80180818160808380E06F
:1005400060E042E074DFE1EEF0E080818E7F808346
:10055000E2EEF0E08081816080838081886080832A
:10056000F70180818E7F8083F801808180618083A4
:100570001F910F91FF90EF900895E7EDF0E08081DB
:100580008160808384E082BF81E080933302B2CFB8
:10059000E8EDF0E080818E7F80831092E200089584
:1005A0001092DA001092E10008951F920F920FB698
:1005B0000F9211241F932F933F934F935F936F9349
:1005C0007F938F939F93AF93BF93EF93FF93E9EE46
:1005D000F0E010811F701082E0EFF0E08081877FF3
:1005E00080837894A7D1A9EEB0E01C92E0EFF0E010
:1005F0008081886080831C93FF91EF91BF91AF91C0
:100600009F918F917F916F915F914F913F912F912A
:100610001F910F900FBE0F901F9018951F920F9271
:100620000FB60F9211242F933F934F935F936F93C5
:100630007F938F939F93AF93BF93EF93FF9380919B
:10064000E10082FF0AC08091E20082FF06C0809133
:10065000E1008B7F8093E100D6D28091DA0080FFA9
:100660001AC08091D80080FF16C08091DA008E7F7A
:100670008093DA008091D90080FF0AC019BC82E023
:1006800089BD09B400FEFDCF81E08EBB69DD03C0EA
:1006900019BC1EBA66DD8091E10080FF17C0809111
:1006A000E20080FF13C08091E2008E7F8093E20021
:1006B0008091E20080618093E2008091D8008062A6
:1006C0008093D80019BC85E08EBB9DD28091E1005B
:1006D00084FF2BC08091E20084FF27C019BC82E018
:1006E00089BD09B400FEFDCF8091D8008F7D809335
:1006F000D8008091E1008F7E8093E1008091E2003C
:100700008F7E8093E2008091E20081608093E2001E
:1007100080913002882331F48091E30087FD02C08C
:1007200081E001C084E08EBB6ED28091E10083FF46
:1007300026C08091E20083FF22C08091E100877F84
:100740008093E10082E08EBB109230028091E10044
:100750008E7F8093E1008091E2008E7F8093E200A3
:100760008091E20080618093E20080E060E042E0FE
:100770005EDE8091F00088608093F00044D2FF91AB
:10078000EF91BF91AF919F918F917F916F915F9109
:100790004F913F912F910F900FBE0F901F90189582
:1007A0009C0140913A0250913B024617570718F4BA
:1007B000F90190E044C06115710511F0AB01F8CF6B
:1007C0008091E8008E778093E80040E050E0F0CF21
:1007D0008EB3882309F444C0853009F443C0809166
:1007E000E80083FF02C081E008958091E80082FD67
:1007F00031C08091E80080FF22C08091F300909189
:10080000F200782F60E0292F30E0262B372B07C02D
:1008100081918093F100415050402F5F3F4F41152F
:10082000510519F02830310598F390E02830310552
:1008300009F491E08091E8008E778093E8004115FB
:10084000510531F6992321F605C08EB3882341F076
:10085000853041F08091E80082FFF7CF80E0089575
:1008600082E0089583E008959C0140913A025091FE
:100870003B024617570718F4F90190E045C061158F
:10088000710511F0AB01F8CF8091E8008E7780936D
:10089000E80040E050E0F0CF8EB3882309F446C072
:1008A000853009F445C08091E80083FF02C081E0F3
:1008B00008958091E80082FD33C08091E80080FFB8
:1008C00023C08091F3009091F200782F60E0292FEF
:1008D00030E0262B372B08C084918093F1003196AD
:1008E000415050402F5F3F4F4115510519F02830BE
:1008F000310590F390E02830310509F491E08091C2
:10090000E8008E778093E8004115510529F6992378
:1009100009F0C2CF05C08EB3882341F0853041F085
:100920008091E80082FFF7CF80E0089582E008958B
:1009300083E008950F931F93DF93CF93CDB7DEB776
:10094000AC970FB6F894DEBF0FBECDBFE4E3F2E084
:100950008091F100819322E0EC33F207C9F73DDC8E
:100960008091E80083FF36C18091340230913502D6
:10097000353009F487C0363040F43130C9F13130B8
:1009800070F0333009F026C133C0383009F4F5C0B7
:10099000393009F404C1363009F01CC196C08038E2
:1009A00021F0823809F016C108C09091310280917F
:1009B0003202882399F0926011C0809138028F70C2
:1009C0008093E9008091EB0090E025E09695879573
:1009D0002A95E1F7982F91701092E9008091E80034
:1009E000877F8093E8009093F1001092F100D0C0CF
:1009F000882319F0823009F0EDC090E08F7190707B
:100A0000009721F0029709F0E5C00CC080913602F2
:100A1000813009F0DFC010923202333069F58093E3
:100A200032022AC080913602882331F520913802A3
:100A30002F7009F4CFC02093E9008091EB0080FF74
:100A40001BC0333021F48091EB00806213C0809191
:100A5000EB0080618093EB0081E090E002C0880FA2
:100A6000991F2A95E2F78093EA001092EA0080919C
:100A7000EB0088608093EB001092E9008091E80021
:100A8000877F89C0882309F0A5C0109136021F779F
:100A90000FB7F8948091E800877F8093E800DADC54
:100AA0008091E80080FFFCCF8091E3008078812B6B
:100AB0008093E30080688093E300112311F482E0C7
:100AC00001C083E08EBB0FBF85C08058823008F024
:100AD00081C0809136029091370223E08C3D9207CD
:100AE00009F033C083E08C838AE28B837FB7F8946C
:100AF000DE0115966EE040E050E011E2E62FF0E0F6
:100B000010935700849140FF03C082958F706F5FF0
:100B10008F70282F30E08A3018F0C901C79602C0C4
:100B2000C901C0968D939D934F5F5F4F443151052E
:100B300029F77FBF8091E800877F8093E800CE018E
:100B400003966AE270E02CDE12C060913802AE01BA
:100B50004F5F5F4F3EDCBC01009709F43BC08091C2
:100B6000E800877F8093E80089819A817DDE80910B
:100B7000E8008B778093E8002DC0803859F580918C
:100B8000E800877F8093E800809130028093F10035
:100B90008091E8008E778093E8005CDC1BC088239E
:100BA000C9F4909136029230A8F48091E800877FD2
:100BB0008093E800909330024DDC809130028823CE
:100BC00031F48091E30087FD02C081E001C084E040
:100BD0008EBB06DB8091E80083FF0AC08091EB00AA
:100BE00080628093EB008091E800877F8093E8002B
:100BF000AC960FB6F894DEBF0FBECDBFCF91DF919C
:100C00001F910F91089508951F938EB3882361F06B
:100C10001091E9001092E9008091E80083FF01C083
:100C200089DE1F701093E9001F910895FC018EB3B7
:100C3000843091F581899289A389B4890097A105AF
:100C4000B10551F185818093E9008091E80082FF30
:100C500023C04091F3002091F200942F80E030E017
:100C6000822B932B892B19F46FEF7FEF04C08091B7
:100C7000F100682F70E04091F3002091F200942F72
:100C800080E030E0822B932B892B41F48091E800A7
:100C90008B778093E80002C06FEF7FEFCB01089560
:100CA0000895FC018EB3843049F581899289A38926
:100CB000B4890097A105B10509F181818093E9000C
:100CC0004091F3002091F200942F80E030E0822BDD
:100CD000932B892BA9F09091E8008091E8008E7702
:100CE0008093E80095FD0CC0D4DB982F882349F44D
:100CF0008091E8008E778093E80003C092E001C005
:100D000090E0892F0895FC018EB3843051F48189DD
:100D10009289A389B4890097A105B10511F0CF018B
:100D2000C0CF08951F93FC01162F8EB38430D9F4E1
:100D300081899289A389B4890097A105B10599F0A9
:100D400081818093E9008091E80085FD08C0809151
:100D5000E8008E778093E8009CDB882329F41093C9
:100D6000F10080E001C082E01F9108951F93CF93AE
:100D7000DF93EC010D96FC018BE0DF011D928A955B
:100D8000E9F711E08981181729F46A817B818C8148
:100D900050E807C08D81181731F46E817F818885F6
:100DA00050E032E008C08985181739F56A857B85DF
:100DB0008C8550E833E0882311F440E001C044E022
:100DC00020E088E090E003C02F5F880F991F86170E
:100DD0009707D0F3832F90E036E0880F991F3A955C
:100DE000E1F760E0511161E0682B42602295207FBD
:100DF000422B812F1CDB882329F01F5F173009F05D
:100E0000C1CF81E0DF91CF911F910895CF93DF9300
:100E1000EC018091E80083FF9DC0888190E02091E3
:100E20003802309139022817390709F093C08091B0
:100E30003502813269F0823220F4803209F08AC0B2
:100E40003CC0823209F465C0833209F083C074C0AB
:100E500080913402813A09F07DC08091E800877F5B
:100E60008093E8008091E80080FFFCCF89899A890F
:100E7000AB89BC898093F100292F3A2F4B2F55273E
:100E80002093F1009D01442755272093F1008B2FDB
:100E90009927AA27BB278093F1008D898093F100C1
:100EA0008E898093F1008F898093F1008091E80012
:100EB0008E778093E800CEDA4DC080913402813283
:100EC00009F048C08091E800877F8093E800809116
:100ED000E80082FFFCCF8091F1009091F100209119
:100EE000F1003091F100898B9A8B2B8B3C8B809198
:100EF000F1008D8B8091F1008E8B8091F1008F8BB2
:100F00008091E8008B778093E800A4DACE0164D961
:100F100021C0809134028132E9F48091E800877F1A
:100F20008093E80097DA80913602909137029E878D
:100F30008D87CE01B5DE0EC080913402813251F42E
:100F40008091E800877F8093E80084DACE01609189
:0E0F50003602A6DEDF91CF910895F894FFCF10
:100F5E000003100000041000000208000000000052
:080F6E0000000000000000007B
:00000001FF
