:1000000093C00000ACC00000AAC00000A8C000005F
:10001000A6C00000A4C00000A2C00000A0C0000054
:100020009EC000009CC000006EC3000033C30000EF
:1000300096C0000094C0000092C0000090C0000074
:100040008EC000008CC000008AC0000088C0000084
:1000500086C0000084C0000082C0000080C0000094
:100060007EC000007FC000007AC0000078C00000A1
:1000700076C0000074C0000072C0000070C00000B4
:100080006EC000006CC000006AC0000068C00000C4
:1000900066C0000064C0000062C0000060C00000D4
:1000A0005EC000005CC000005AC0000012011001D8
:1000B00002000008EB034B2001000102DC010902F1
:1000C0003E00020100C032090400000102020100EA
:1000D000052400100104240206052406000107057A
:1000E00082030800FF09040100020A00000007055E
:1000F0000402100001070583021000010403090433
:1001000018036200750073007700610072006500DB
:100110002E006400650000003003540043004D00D1
:10012000330031003000000011241FBECFEFDAE0B1
:10013000DEBFCDBF11E0A0E0B1E0E0E7F0E102C03A
:1001400005900D92A232B107D9F712E0A2E2B1E018
:1001500001C01D92A634B107E1F76FD087C750CF19
:10016000089508951F920F920FB60F9211242F93A6
:100170003F938F939F93CF93DF93EF93FF93909150
:10018000CE008EB38430D9F4CEEAD1E0E881F98193
:100190009083888199810196998388832E813F81FC
:1001A0008217930721F48C819D81998388832FB7CF
:1001B000F8948A859B8501969B878A872FBFFF913C
:1001C000EF91DF91CF919F918F913F912F910F9060
:1001D0000FBE0F901F901895089580E091E08BC698
:1001E00080E091E038C684B7877F84BF88E10FB68E
:1001F000F89480936000109260000FBE80E090E061
:1002000020E80FB6F89420936100809361000FBE40
:100210006E9A769A27D284E085BD80E190E0909333
:10022000CD008093CC0086E08093CA0082E080936A
:10023000C80088E98093C90008952F923F924F9299
:100240005F926F927F928F929F92AF92BF92CF9266
:10025000DF92EF92FF920F931F93DF93CF93CDB76F
:10026000DEB72A970FB6F894DEBF0FBECDBFDE0112
:100270001196E8E1F1E08AE001900D928150E1F7FA
:10028000B2DFE2E2F1E02FB7F8948EE291E09183E1
:10029000808393838283958384838EEA91E097831E
:1002A000868380E890E091878087138612862FBF2F
:1002B000EEEAF1E02FB7F8948AEB91E09183808326
:1002C00093838283958384838AE392E097838683F2
:1002D00080E890E091878087138612862FBF7894FC
:1002E000EE24FF24AA24BB2432E2832E31E0932E95
:1002F0002EEA222E21E0322E2E010894411C511CA0
:100300009BE0692E712C6C0E7D1EA114B10431F49A
:100310008EB3843011F4769A01C076988FB7F89432
:1003200020912C0130912D018FBF80912A01909155
:100330002B012817390749F180E091E0ECD497FDB3
:1003400024C0F401AF010190F081E02D8083DA0137
:100350008D919C911197019611969C938E93169670
:100360002D913C9117978217930731F414968D9134
:100370009C9115978D939C932FB7F894FA018285E1
:1003800093850196938782872FBF8FB7F89400914A
:10039000B8011091B9018FBFA89904C0093C11059B
:1003A00008F455C0A89A67010894C11CD11CF9EE45
:1003B000EF16F3E0FF0608F446C08EB3843009F46C
:1003C00042C0A114B10461F0C6016AE770E03AD6F8
:1003D000892B09F038C08EB190E489278EB933C0DB
:1003E000F20190818091C80085FFFCCF9093CE00F0
:1003F0003196E615F705A9F781E0A82EB12C23C0A8
:10040000E091B001F091B10180E091E06081FFD412
:100410008823E1F4F10182819381019693838283A1
:10042000268137818217930721F4848195819383F4
:1004300082832FB7F894828593850197938782876B
:100440002FBF0150104001151105D1F676012FB7CD
:10045000F89480912C0190912D012FBF892B49F1A7
:10046000F401AF010280F381E02D3191DA0113969E
:10047000FC93EE93129716968D919C911797E8171F
:10048000F90741F414968D919C91159713969C93BE
:100490008E9312972FB7F894FA018285938501976E
:1004A000938782872FBF8091C80085FFFCCF309350
:1004B000CE0080E091E09CD41CD427CFDA019230AA
:1004C00049F0933061F09130F9F4ECEAF0E022E188
:1004D00030E01EC0EEEBF0E02EE330E019C08130DA
:1004E00049F0813018F0823079F408C0ECEFF0E088
:1004F000849107C0E0E0F1E0849103C0E8E1F1E01D
:100500008491282F30E004C0E0E0F0E020E030E00B
:10051000ED93FC93C90108958093E9008091EB006D
:1005200081608093EB001092ED006093EC004093AB
:10053000ED008091EE00881F8827881F0895809124
:100540003E0288238CF403C08EB38823B1F08091DF
:10055000E80082FFF9CF8091E8008B778093E80074
:1005600008958EB3882349F08091E80080FFF9CF89
:100570008091E8008E778093E80008954091E40030
:100580005091E50024E68091EC0080FF23C080912B
:10059000E80080FD1DC08EB3882311F482E0089529
:1005A000853011F483E008958091EB0085FF02C04F
:1005B00081E008958091E4009091E500841795070B
:1005C00011F3222311F484E008952150AC01DBCF14
:1005D00080E008958091E80082FFDDCFF9CFEF92AF
:1005E000FF920F931F9349D050D008ED10E0F8010F
:1005F00080818F77808380818068808380818F7DF8
:10060000808319BC1EBA10923A0210923C021092DA
:100610003B0280EEE82EF12CF70180818B7F8083F6
:10062000F80180818160808380E060E042E074DFD7
:10063000E1EEF0E080818E7F8083E2EEF0E0808169
:1006400081608083808188608083F70180818E7FD4
:100650008083F8018081806180831F910F91FF90DA
:10066000EF900895E7EDF0E080818160808384E081
:1006700082BF81E080933D02B2CFE8EDF0E080815F
:100680008E7F80831092E20008951092DA0010921B
:10069000E10008951F920F920FB60F9211241F933D
:1006A0002F933F934F935F936F937F938F939F937A
:1006B000AF93BF93EF93FF93E9EEF0E010811F70CB
:1006C0001082E0EFF0E08081877F80837894A7D16B
:1006D000A9EEB0E01C92E0EFF0E0808188608083BA
:1006E0001C93FF91EF91BF91AF919F918F917F915B
:1006F0006F915F914F913F912F911F910F900FBE7E
:100700000F901F9018951F920F920FB60F92112401
:100710002F933F934F935F936F937F938F939F9309
:10072000AF93BF93EF93FF938091E10082FF0AC0E4
:100730008091E20082FF06C08091E1008B7F809370
:10074000E100D6D28091DA0080FF1AC08091D800F3
:1007500080FF16C08091DA008E7F8093DA0080914E
:10076000D90080FF0AC019BC82E089BD09B400FE2F
:10077000FDCF81E08EBBF4DC03C019BC1EBAF1DCF6
:100780008091E10080FF17C08091E20080FF13C0DC
:100790008091E2008E7F8093E2008091E200806190
:1007A0008093E2008091D80080628093D80019BCC9
:1007B00085E08EBB9DD28091E10084FF2BC08091AB
:1007C000E20084FF27C019BC82E089BD09B400FEA5
:1007D000FDCF8091D8008F7D8093D8008091E1007B
:1007E0008F7E8093E1008091E2008F7E8093E20013
:1007F0008091E20081608093E20080913A02882338
:1008000031F48091E30087FD02C081E001C084E003
:100810008EBB6ED28091E10083FF26C08091E20002
:1008200083FF22C08091E100877F8093E10082E016
:100830008EBB10923A028091E1008E7F8093E1009E
:100840008091E2008E7F8093E2008091E2008061DF
:100850008093E20080E060E042E05EDE8091F000A4
:1008600088608093F00044D2FF91EF91BF91AF91E7
:100870009F918F917F916F915F914F913F912F91B8
:100880000F900FBE0F901F9018959C01409144024D
:10089000509145024617570718F4F90190E044C0FB
:1008A0006115710511F0AB01F8CF8091E8008E77EA
:1008B0008093E80040E050E0F0CF8EB3882309F445
:1008C00044C0853009F443C08091E80083FF02C032
:1008D00081E008958091E80082FD31C08091E800B8
:1008E00080FF22C08091F3009091F200782F60E0A9
:1008F000292F30E0262B372B07C081918093F10000
:10090000415050402F5F3F4F4115510519F028309D
:10091000310598F390E02830310509F491E0809199
:10092000E8008E778093E8004115510531F6992350
:1009300021F605C08EB3882341F0853041F08091C7
:10094000E80082FFF7CF80E0089582E0089583E019
:1009500008959C0140914402509145024617570763
:1009600018F4F90190E045C06115710511F0AB0173
:10097000F8CF8091E8008E778093E80040E050E067
:10098000F0CF8EB3882309F446C0853009F445C002
:100990008091E80083FF02C081E008958091E80023
:1009A00082FD33C08091E80080FF23C08091F30076
:1009B0009091F200782F60E0292F30E0262B372B22
:1009C00008C084918093F1003196415050402F5FD0
:1009D0003F4F4115510519F02830310590F390E053
:1009E0002830310509F491E08091E8008E778093FA
:1009F000E8004115510529F6992309F0C2CF05C039
:100A00008EB3882341F0853041F08091E80082FF69
:100A1000F7CF80E0089582E0089583E008950F9372
:100A20001F93DF93CF93CDB7DEB7AC970FB6F89493
:100A3000DEBF0FBECDBFEEE3F2E08091F100819307
:100A400022E0E634F207C9F7C8DB8091E80083FFB3
:100A500036C180913E0230913F02353009F487C0A3
:100A6000363040F43130C9F1313070F0333009F0B4
:100A700026C133C0383009F4F5C0393009F404C157
:100A8000363009F01CC196C0803821F0823809F058
:100A900016C108C090913B0280913C02882399F0D6
:100AA000926011C0809142028F708093E900809122
:100AB000EB0090E025E0969587952A95E1F7982F31
:100AC00091701092E9008091E800877F8093E800A0
:100AD0009093F1001092F100D0C0882319F0823079
:100AE00009F0EDC090E08F719070009721F00297AF
:100AF00009F0E5C00CC080914002813009F0DFC0F0
:100B000010923C02333069F580933C022AC08091F8
:100B10004002882331F5209142022F7009F4CFC0A2
:100B20002093E9008091EB0080FF1BC0333021F45B
:100B30008091EB00806213C08091EB008061809314
:100B4000EB0081E090E002C0880F991F2A95E2F740
:100B50008093EA001092EA008091EB008860809315
:100B6000EB001092E9008091E800877F89C088231C
:100B700009F0A5C0109140021F770FB7F89480913B
:100B8000E800877F8093E800DADC8091E80080FF4E
:100B9000FCCF8091E3008078812B8093E300806814
:100BA0008093E300112311F482E001C083E08EBB47
:100BB0000FBF85C08058823008F081C0809140020C
:100BC0009091410223E08C3D920709F033C083E00D
:100BD0008C838AE28B837FB7F894DE0115966EE0F2
:100BE00040E050E011E2E62FF0E0109357008491CE
:100BF00040FF03C082958F706F5F8F70282F30E0A9
:100C00008A3018F0C901C79602C0C901C0968D93F9
:100C10009D934F5F5F4F4431510529F77FBF80910E
:100C2000E800877F8093E800CE0103966AE270E0D7
:100C30002CDE12C060914202AE014F5F5F4F3EDC7E
:100C4000BC01009709F43BC08091E800877F809346
:100C5000E80089819A817DDE8091E8008B7780931E
:100C6000E8002DC0803859F58091E800877F809397
:100C7000E80080913A028093F1008091E8008E773D
:100C80008093E8005CDC1BC08823C9F4909140028B
:100C90009230A8F48091E800877F8093E8009093D9
:100CA0003A024DDC80913A02882331F48091E300CE
:100CB00087FD02C081E001C084E08EBB91DA8091A3
:100CC000E80083FF0AC08091EB0080628093EB0014
:100CD0008091E800877F8093E800AC960FB6F89487
:100CE000DEBF0FBECDBFCF91DF911F910F91089551
:100CF00008951F938EB3882361F01091E90010923C
:100D0000E9008091E80083FF01C089DE1F70109325
:100D1000E9001F910895FC018EB3843091F581891B
:100D20009289A389B4890097A105B10551F1858104
:100D30008093E9008091E80082FF23C04091F30096
:100D40002091F200942F80E030E0822B932B892BAE
:100D500019F46FEF7FEF04C08091F100682F70E00D
:100D60004091F3002091F200942F80E030E0822B3C
:100D7000932B892B41F48091E8008B778093E800D6
:100D800002C06FEF7FEFCB0108950895FC018EB391
:100D9000843049F581899289A389B4890097A10596
:100DA000B10509F181818093E9004091F300209120
:100DB000F200942F80E030E0822B932B892BA9F056
:100DC0009091E8008091E8008E778093E80095FD8F
:100DD0000CC0D4DB982F882349F48091E8008E77EB
:100DE0008093E80003C092E001C090E0892F08954D
:100DF000FC018EB3843051F481899289A389B4892E
:100E00000097A105B10511F0CF01C0CF08951F9340
:100E1000FC01162F8EB38430D9F481899289A3897D
:100E2000B4890097A105B10599F081818093E9000B
:100E30008091E80085FD08C08091E8008E7780935E
:100E4000E8009CDB882329F41093F10080E001C0C6
:100E500082E01F9108951F93CF93DF93EC010D96CD
:100E6000FC018BE0DF011D928A95E9F711E0898191
:100E7000181729F46A817B818C8152E010C08D8122
:100E8000181731F46E817F81888552E030E008C008
:100E90008985181739F56A857B858C8553E030E89C
:100EA000882311F440E001C044E020E088E090E0B5
:100EB00003C02F5F880F991F86179707D0F3852FE0
:100EC00090E056E0880F991F5A95E1F760E03111E4
:100ED00061E0682B42602295207F422B812F1CDB32
:100EE000882329F01F5F173009F0C1CF81E0DF911F
:100EF000CF911F910895CF93DF93EC018091E8008B
:100F000083FF9DC0888190E020914202309143028E
:100F10002817390709F093C080913F02813269F0A8
:100F2000823220F4803209F08AC03CC0823209F457
:100F300065C0833209F083C074C080913E02813A5B
:100F400009F07DC08091E800877F8093E800809160
:100F5000E80080FFFCCF89899A89AB89BC8980939E
:100F6000F100292F3A2F4B2F55272093F1009D0197
:100F7000442755272093F1008B2F9927AA27BB27B9
:100F80008093F1008D898093F1008E898093F10028
:100F90008F898093F1008091E8008E778093E8003C
:100FA000CEDA4DC080913E02813209F048C0809176
:100FB000E800877F8093E8008091E80082FFFCCF03
:100FC0008091F1009091F1002091F1003091F100B9
:100FD000898B9A8B2B8B3C8B8091F1008D8B809130
:100FE000F1008E8B8091F1008F8B8091E8008B77E0
:100FF0008093E800A4DACE01EFD821C080913E02B0
:101000008132E9F48091E800877F8093E80097DAE5
:1010100080914002909141029E878D87CE01B5DE7E
:101020000EC080913E02813251F48091E800877FAA
:101030008093E80084DACE0160914002A6DEDF9161
:10104000CF910895AA1BBB1B51E107C0AA1FBB1F6C
:10105000A617B70710F0A61BB70B881F991F5A9544
:10106000A9F780959095BC01CD010895F894FFCF24
:10107000000310000004100000020800000000003F
:1010800000000000000000005500030005A6090153
:02109000012835
:00000001FF
