:1000000093C00000ACC00000AAC00000A8C000005F
:10001000A6C00000A4C00000A2C00000A0C0000054
:100020009EC000009CC00000F4C20000B9C20000E5
:1000300096C0000094C0000092C0000090C0000074
:100040008EC000008CC000008AC0000088C0000084
:1000500086C0000084C0000082C0000080C0000094
:100060007EC000007FC000007AC0000078C00000A1
:1000700076C0000074C0000072C0000070C00000B4
:100080006EC000006CC000006AC0000068C00000C4
:1000900066C0000064C0000062C0000060C00000D4
:1000A0005EC000005CC000005AC0000012011001D8
:1000B00002000008EB034B2001000102DC010902F1
:1000C0003E00020100C032090400000102020100EA
:1000D000052400100104240206052406000107057A
:1000E00082030800FF09040100020A00000007055E
:1000F0000402100001070583021000010403090433
:1001000018036200750073007700610072006500DB
:100110002E006400650000003003540043004D00D1
:10012000330031003000000011241FBECFEFDAE0B1
:10013000DEBFCDBF11E0A0E0B1E0E6E9FFE002C024
:1001400005900D92A631B107D9F712E0A6E1B1E012
:1001500001C01D92A833B107E1F76FD01AC750CF85
:10016000089508951F920F920FB60F9211242F93A6
:100170003F938F939F93CF93DF93EF93FF93909150
:10018000CE008EB38430D9F4C1EAD1E0E881F981A0
:100190009083888199810196998388832E813F81FC
:1001A0008217930721F48C819D81998388832FB7CF
:1001B000F89489859A8501969A8789872FBFFF9140
:1001C000EF91DF91CF919F918F913F912F910F9060
:1001D0000FBE0F901F901895089580E091E06CC6B7
:1001E00080E091E019C684B7877F84BF88E10FB6AD
:1001F000F89480936000109260000FBE80E090E061
:1002000020E80FB6F89420936100809361000FBE40
:100210006E9A769AADD184E085BD80E190E09093AE
:10022000CD008093CC0086E08093CA0082E080936A
:10023000C80088E98093C9000895EF92FF920F9358
:100240001F93CF93DF93CFDFE6E1F1E02FB7F89470
:1002500081E291E091838083938382839583848379
:1002600081EA91E09783868380E8808712861186F1
:100270002FBFE1EAF1E02FB7F8948CEA91E0918387
:10028000808393838283958384838CE292E0978337
:10029000868380E88087128611862FBF789406E1D6
:1002A00011E081EAE82E81E0F82E8EB3843011F45B
:1002B000769A01C076988FB7F89420911F013091FB
:1002C00020018FBF80911E0190E028173907F9F0B7
:1002D00080E091E001D597FD1AC0E801E881F9813D
:1002E0008083888199810196998388832E813F81BB
:1002F0008217930721F48C819D81998388832FB77E
:10030000F89489859A8501969A8789872FBF8FB738
:10031000F894C091AA01D091AB018FBFA89903C0F6
:10032000C93CD10530F1A89A22C0E091A301F09117
:10033000A40180E091E060814BD58823D1F4F701DE
:1003400082819381019693838283268137818217EC
:10035000930721F484819581938382832FB7F89446
:10036000818592850197928781872FBF219720975A
:10037000E1F62FB7F89480911F01909120012FBFD3
:10038000892BE9F0E801EA81FB813191FB83EA8363
:100390008E819F81E817F90721F48C819D819B83D1
:1003A0008A832FB7F89489859A8501979A878987D8
:1003B0002FBF8091C80085FFFCCF3093CE0080E036
:1003C00091E0F7D477D471CFDA01923049F09330CD
:1003D00061F09130F9F4ECEAF0E022E130E01EC087
:1003E000EEEBF0E02EE330E019C0813049F08130CF
:1003F00018F0823079F408C0ECEFF0E0849107C087
:10040000E0E0F1E0849103C0E8E1F1E08491282F7D
:1004100030E004C0E0E0F0E020E030E0ED93FC9359
:10042000C90108958093E9008091EB008160809379
:10043000EB001092ED006093EC004093ED00809192
:10044000EE00881F8827881F089580913002882336
:100450008CF403C08EB38823B1F08091E80082FF52
:10046000F9CF8091E8008B778093E80008958EB3F0
:10047000882349F08091E80080FFF9CF8091E8005F
:100480008E778093E80008954091E4005091E50054
:1004900024E68091EC0080FF23C08091E80080FD7D
:1004A0001DC08EB3882311F482E00895853011F4C5
:1004B00083E008958091EB0085FF02C081E00895FC
:1004C0008091E4009091E5008417950711F32223B1
:1004D00011F484E008952150AC01DBCF80E0089551
:1004E0008091E80082FFDDCFF9CFEF92FF920F936A
:1004F0001F9349D050D008ED10E0F80180818F772C
:10050000808380818068808380818F7D808319BC17
:100510001EBA10922C0210922E0210922D0280EE22
:10052000E82EF12CF70180818B7F8083F801808198
:100530008160808380E060E042E074DFE1EEF0E023
:1005400080818E7F8083E2EEF0E080818160808315
:10055000808188608083F70180818E7F8083F801AD
:100560008081806180831F910F91FF90EF900895AB
:10057000E7EDF0E08081816080838AE482BF81E0E2
:1005800080932F02B2CFE8EDF0E080818E7F8083F0
:100590001092E20008951092DA001092E10008959E
:1005A0001F920F920FB60F9211241F932F933F9318
:1005B0004F935F936F937F938F939F93AF93BF936B
:1005C000EF93FF93E9EEF0E0108117701082E0EFF7
:1005D000F0E08081877F80837894EBD1A9EEB0E052
:1005E0001C92E0EFF0E08081886080831C93FF9193
:1005F000EF91BF91AF919F918F917F916F915F919B
:100600004F913F912F911F910F900FBE0F901F9010
:1006100018951F920F920FB60F9211242F933F93AC
:100620004F935F936F937F938F939F93AF93BF93FA
:10063000EF93FF938091E10082FF0AC08091E20076
:1006400082FF06C08091E1008B7F8093E10031D36F
:100650008091DA0080FF1AC08091D80080FF16C018
:100660008091DA008E7F8093DA008091D90080FF3C
:100670000AC019BC82E089BD09B400FEFDCF81E04B
:100680008EBB6EDD03C019BC1EBA6BDD8091E1002C
:1006900080FF17C08091E20080FF13C08091E200CC
:1006A0008E7F8093E2008091E20080618093E2007F
:1006B0008091D80080628093D80019BC85E08EBB01
:1006C000F8D28091E10084FF2BC08091E20084FF8A
:1006D00027C019BC82E089BD09B400FEFDCF80911E
:1006E000D8008F7D8093D8008091E1008F7E809329
:1006F000E1008091E2008F7E8093E2008091E20031
:1007000081608093E20080912C02882331F48091F3
:10071000E30087FD02C081E001C084E08EBBC9D246
:100720008091E10083FF26C08091E20083FF22C018
:100730008091E100877F8093E10082E08EBB109280
:100740002C028091E1008E7F8093E1008091E20095
:100750008E7F8093E2008091E20080618093E200CE
:1007600080E060E042E05EDE8091F000886080938F
:10077000F0009FD2FF91EF91BF91AF919F918F9128
:100780007F916F915F914F913F912F910F900FBE8D
:100790000F901F9018959C0140913602509137029E
:1007A0004617570718F4F90190E044C06115710528
:1007B00011F0AB01F8CF8091E8008E778093E800CC
:1007C00040E050E0F0CF8EB3882309F444C0853078
:1007D00009F443C08091E80083FF02C081E00895DE
:1007E0008091E80082FD31C08091E80080FF22C046
:1007F0008091F3009091F200782F60E0292F30E093
:10080000262B372B07C081918093F1004150504037
:100810002F5F3F4F4115510519F02830310598F3EE
:1008200090E02830310509F491E08091E8008E775E
:100830008093E8004115510531F6992321F605C052
:100840008EB3882341F0853041F08091E80082FF2B
:10085000F7CF80E0089582E0089583E008959C0139
:100860006115710529F48091E8008B778093E80089
:10087000F90126C08EB3882391F1853091F18091E2
:10088000E80083FF02C081E008958091E80082FFC4
:10089000F1CF06C08091F10081936150704059F012
:1008A0002091F3008091F200322F20E090E0822B23
:1008B000932B892B79F78091E8008B778093E80060
:1008C00061157105B9F605C08EB3882341F08530F6
:1008D00041F08091E80080FFF7CF80E0089582E04A
:1008E000089583E008959C014091360250913702AB
:1008F0004617570718F4F90190E045C061157105D6
:1009000011F0AB01F8CF8091E8008E778093E8007A
:1009100040E050E0F0CF8EB3882309F446C0853024
:1009200009F445C08091E80083FF02C081E008958A
:100930008091E80082FD33C08091E80080FF23C0F1
:100940008091F3009091F200782F60E0292F30E041
:10095000262B372B08C084918093F10031964150AB
:1009600050402F5F3F4F4115510519F02830310598
:1009700090F390E02830310509F491E08091E8008F
:100980008E778093E8004115510529F6992309F0E7
:10099000C2CF05C08EB3882341F0853041F08091ED
:1009A000E80082FFF7CF80E0089582E0089583E0B9
:1009B00008950F931F93DF93CF93CDB7DEB7AC9716
:1009C0000FB6F894DEBF0FBECDBF8091F1008093CB
:1009D00030028091F100809331028091F10090917A
:1009E000F100E2E3F2E080933202909333028091CF
:1009F000F1009091F1008093340293838091F10093
:100A00009091F100809336029583E7DB8091E800B6
:100A100083FF36C18091300230913102353009F4C4
:100A200087C0363040F43130C9F1313070F03330A6
:100A300009F026C133C0383009F4F5C0393009F463
:100A400004C1363009F01CC196C0803821F08238CC
:100A500009F016C108C090912D0280912E028823C2
:100A600099F0926011C08091340287708093E90000
:100A70008091EB0090E025E0969587952A95E1F727
:100A8000982F91701092E9008091E800877F809301
:100A9000E8009093F1001092F100D0C0882319F083
:100AA000823009F0EDC090E08F719070009721F0D6
:100AB000029709F0E5C00CC080913202813009F044
:100AC000DFC010922E02333069F580932E022AC0C7
:100AD00080913202882331F520913402277009F485
:100AE000CFC02093E9008091EB0080FF1BC0333022
:100AF00021F48091EB00806213C08091EB00806153
:100B00008093EB0081E090E002C0880F991F2A9546
:100B1000E2F78093EA001092EA008091EB0088608F
:100B20008093EB001092E9008091E800877F89C0F4
:100B3000882309F0A5C0109132021F770FB7F894EF
:100B40008091E800877F8093E8007FDC8091E80057
:100B500080FFFCCF8091E3008078812B8093E300BD
:100B600080688093E300112311F482E001C083E0E8
:100B70008EBB0FBF85C08058823008F081C0809145
:100B800032029091330223E08C3D920709F033C08A
:100B900083E08C838AE28B837FB7F894DE0115961D
:100BA0006EE040E050E011E2E62FF0E010935700D5
:100BB000849140FF03C082958F706F5F8F70282FE4
:100BC00030E08A3018F0C901C79602C0C901C0964A
:100BD0008D939D934F5F5F4F4431510529F77FBF40
:100BE0008091E800877F8093E800CE0103966AE257
:100BF00070E0D1DD12C060913402AE014F5F5F4FF3
:100C0000E3DBBC01009709F43BC08091E800877FDB
:100C10008093E80089819A8166DE8091E8008B7775
:100C20008093E8002DC0803859F58091E800877FD7
:100C30008093E80080912C028093F1008091E8007D
:100C40008E778093E80001DC1BC08823C9F4909163
:100C500032029230A8F48091E800877F8093E80008
:100C600090932C02F2DB80912C02882331F4809146
:100C7000E30087FD02C081E001C084E08EBBB0DAF2
:100C80008091E80083FF0AC08091EB00806280932E
:100C9000EB008091E800877F8093E800AC960FB668
:100CA000F894DEBF0FBECDBFCF91DF911F910F91A2
:100CB000089508951F938EB3882361F01091E90081
:100CC0001092E9008091E80083FF01C072DE177086
:100CD0001093E9001F910895FC018EB3843091F5C3
:100CE00087859089A189B2890097A105B10551F145
:100CF00085818093E9008091E80082FF23C04091C4
:100D0000F3002091F200942F80E030E0822B932BAF
:100D1000892B19F46FEF7FEF04C08091F100682FE9
:100D200070E04091F3002091F200942F80E030E0D9
:100D3000822B932B892B41F48091E8008B77809351
:100D4000E80002C06FEF7FEFCB0108950895FC012A
:100D50008EB3843049F587859089A189B28900973F
:100D6000A105B10509F181818093E9004091F3006B
:100D70002091F200942F80E030E0822B932B892B7E
:100D8000A9F09091E8008091E8008E778093E800C8
:100D900095FD0CC079DB982F882349F48091E800F9
:100DA0008E778093E80003C092E001C090E0892F25
:100DB0000895FC018EB3843051F487859089A18910
:100DC000B2890097A105B10511F0CF01C0CF0895F8
:100DD0001F93FC01162F8EB38430D9F48785908938
:100DE000A189B2890097A105B10599F0818180930D
:100DF000E9008091E80085FD08C08091E8008E77C9
:100E00008093E80041DB882329F41093F10080E00F
:100E100001C082E01F9108951F93CF93DF93EC01EF
:100E20000D96FC0189E0DF011D928A95E9F711E03A
:100E30008981181729F46A817B818C8152E010C066
:100E40008D81181731F46E817F81888552E030E002
:100E500008C08985181739F56A857B858C8553E02C
:100E600030E8882311F440E001C044E020E088E04D
:100E700090E003C02F5F880F991F86179707D0F364
:100E8000852F90E056E0880F991F5A95E1F760E0B2
:100E9000311161E0682B42602295207F422B812F27
:100EA000C1DA882329F01F5F173009F0C1CF81E034
:100EB000DF91CF911F910895CF93DF93EC01809143
:100EC000E80083FF63C0888190E020913402309174
:100ED00035022817390709F059C080913102813253
:100EE00061F0823220F4803209F050C01BC082329F
:100EF00079F1833209F04AC03BC080913002813AD7
:100F000009F044C08091E800877F8093E800CE011B
:100F10000F9667E070E03FDC8091E8008B7780936C
:100F2000E80034C080913002813281F58091E80080
:100F3000877F8093E800CE010F9667E070E08FDC3A
:100F40008091E8008E778093E800CE0145D91EC0DD
:100F5000809130028132D1F48091E800877F8093C4
:100F6000E80073DA809132028D87CE01EFDE0EC089
:100F700080913002813251F48091E800877F809324
:100F8000E80063DACE0160913202E0DEDF91CF91BA
:060F90000895F894FFCF64
:100F9600000310000004100000020800000000001A
:060FA60000000000000045
:00000001FF
