:100000005CC0000078C0000076C0000074C0000032
:1000100072C0000077C300006EC000006CC000001A
:100020006AC0000068C0000066C0000064C0000034
:1000300062C0000009C200005EC000005CC0000099
:100040005AC0000058C0000056C0000054C0000054
:1000500068C0000096C000004EC000004CC0000008
:100060004AC0000048C0000046C0000044C0000074
:1000700000C100002EC100003EC000003CC00000D6
:100080003AC0000038C0000036C0000025730D0AD9
:1000900000562025642E25640D0A004C20253032A0
:1000A000580D0A007265626F6F74696E670D0A0001
:1000B0003F20253032580D0A000011241FBECFEF1B
:1000C000D0E4DEBFCDBF11E0A0E0B1E0E4EAF1E1B1
:1000D00000E00BBF02C007900D92AC30B107D9F71A
:1000E00013E0ACE0B1E001C01D92AE33B107E1F71F
:1000F00003D00C94D00884CF2EE088E190E00FB6B6
:10010000F894A895809360000FBE20936000A7D359
:10011000E2D112D123D23CD37894A8951AD17ED3C0
:10012000FCCF1F920F920FB60F9211240BB60F92B5
:100130001BBE2F938F939F93EF93FF938091C000EB
:100140009091C6008871E0915301EF5FEF712091AB
:100150005201E21739F0E0935301F0E0EA5AFE4F02
:10016000908301C082E080935101FF91EF919F91B4
:100170008F912F910F900BBE0F900FBE0F901F907D
:1001800018951F920F920FB60F9211240BB60F9273
:100190001BBE8F939F93EF93FF9390915501809196
:1001A0005401981769F0E0915401EF5FEF71E0930B
:1001B0005401F0E0EA58FE4F80818093C60005C0EC
:1001C0008091C1008F7D8093C100FF91EF919F913D
:1001D0008F910F900BBE0F900FBE0F901F90189530
:1001E0001092550110925401109253011092520135
:1001F00097FF04C022E02093C0009F779093C50032
:100200008093C40088E98093C10086E08093C20097
:1002100008959091530180915201981789F0E091CF
:100220005201EF5FEF71E0935201F0E0EA5AFE4FA6
:10023000808190915101392F20E0280F311D02C09B
:1002400020E031E0C9010895909155019F5F9F71B1
:10025000209154019217E1F3E92FF0E0EA58FE4FA4
:100260008083909355018091C10080628093C1008A
:1002700008951F920F920FB60F9211240BB60F9292
:100280001BBE2F938F939F93EF93FF938091C80092
:100290009091CE008871E0910E01EF5FEF71209197
:1002A0000D01E21739F0E0930E01F0E0EF5EFE4F32
:1002B000908301C082E080930C01FF91EF919F91A8
:1002C0008F912F910F900BBE0F900FBE0F901F902C
:1002D00018951F920F920FB60F9211240BB60F9222
:1002E0001BBE8F939F93EF93FF939091100180918A
:1002F0000F01981769F0E0910F01EF5FEF71E09344
:100300000F01F0E0EF5CFE4F80818093CE0005C0CE
:100310008091C9008F7D8093C900FF91EF919F91DB
:100320008F910F900BBE0F900FBE0F901F901895DE
:100330008BDF80E090E0089589E190E851DF60E094
:1003400070E088E991E0AFD2109296011092960287
:1003500008955FDF811521E09207C9F09C012227F3
:10036000232BB9F78A309105A1F38038910588F7DE
:10037000E0919602AE2FB0E0AA56BE4F8C93EF5F8D
:10038000E0939602F0E0EA56FE4F1082E2CFE09151
:100390009602EE2309F457C0AE2FB0E086E991E053
:1003A000AB56BE4F2C912D3009F04DC0E150E0937B
:1003B0009602F0E0E80FF91F10822091960128358F
:1003C00059F138F42C3411F1263579F02E3261F5DB
:1003D00007C0263751F02837F9F02C3629F516C01A
:1003E0009F938F938CE890E023C01F921F921F92DF
:1003F00081E08F9381E990E09F938F93B4D20F9027
:100400000F900F900F900F900F9019C083B11F9213
:100410008F938BE990E00CC084EA90E09F938F93D8
:10042000A2D20F900F90FFCF1F922F9380EB90E0FE
:100430009F938F9398D20F900F900F900F901092E0
:1004400096011092960208951F920F920FB60F9286
:1004500011242F938F939F93AF93BF9380919B020F
:1004600090919C02019690939C0280939B02883EFF
:10047000934030F18091970290919802A091990257
:10048000B0919A020196A11DB11D8093970290939D
:100490009802A0939902B0939A0210929C02109233
:1004A0009B0280912F0390913003892B49F080911A
:1004B0003203909133030196909333038093320378
:1004C000B19ABF91AF919F918F912F910F900FBED5
:1004D0000F901F9018951092850010928400109232
:1004E00080008AE08093810088EE93E090938900F9
:1004F0008093880082E080936F0010929C0210929B
:100500009B021092970210929802109299021092F8
:100510009A021092300310922F031092330310921C
:10052000320308950F931F93E0919B02F0919C0278
:1005300020919702309198024091990250919A022D
:10054000A8EEB3E09AD18B019C010E0F1F1F211D55
:10055000311DB801C9011F910F91089588C1BF9243
:10056000CF92DF92EF92FF920F931F93CF93DF937F
:10057000B82ED8DF6B017C0123E02B1508F4B8C03E
:100580000B2D10E034E2B39EE0011124C356DD4F81
:100590004C8D5D8D6E8D7F8D46505F4F6F4F7F4FC1
:1005A000C416D506E606F70608F4A2C0C8018F5B9C
:1005B0009F4F9F938F9386E091E09F938F93BDD140
:1005C000488159816A817B814F5F5F4F6F4F7F4FB9
:1005D000488359836A837B83488D598D6A8D7B8DCF
:1005E0004F5F5F4F6F4F7F4F488F598F6A8F7B8F61
:1005F0008C8D9D8DAE8DBF8D0F900F900F900F90B5
:10060000892B8A2B8B2B09F45CC08C8D9D8DAE8D34
:10061000BF8DA7019601281B390B4A0B5B0B2C8B56
:100620003D8B4E8B5F8B4C815D816E817F814F5FF7
:100630005F4F6F4F7F4F4C835D836E837F838885D1
:100640009985AA85BB854C895D896E897F89480F0C
:10065000591F6A1F7B1F488759876A877B874C8988
:100660005D896E897F898C859D85AE85BF85841760
:100670009507A607B70740F08C899D89AE89BF8989
:100680008C879D87AE87BF8784E2809FF001819F22
:10069000F00D1124E356FD4F448955896689778909
:1006A00080899189A289B389481759076A077B070E
:1006B00040F04489558966897789408B518B628BDC
:1006C000738B84E2809FF001819FF00D1124E3562B
:1006D000FD4FC48ED58EE68EF78E81E090E001C08E
:1006E000880FBA94EAF790913103982B90933103D5
:1006F000DF91CF911F910F91FF90EF90DF90CF90FE
:10070000BF9008951F920F920FB60F9211240BB64F
:100710000F921BBE2F933F934F935F936F937F93E3
:100720008F939F93AF93BF93CF93DF93EF93FF93F9
:10073000D3B1DE71D695C0912D0380912D03CD27C5
:10074000C823C1FF02C080E00ADFC0FF02C081E011
:1007500006DFC2FF02C082E002DFC3FF02C083E007
:10076000FEDED0932D03FF91EF91DF91CF91BF91EA
:10077000AF919F918F917F916F915F914F913F9139
:100780002F910F900BBE0F900FBE0F901F901895DA
:10079000CF938FEF80932D0320E030E0C4E24FEF42
:1007A0005FEFBA0181E090E0A0E0B0E0C29FF0010D
:1007B000C39FF00D1124E356FD4F10821182128267
:1007C0001382108E118E128E138E148A158A168A39
:1007D000178A4487558766877787108A118A128A15
:1007E000138A148215821682178210861186128649
:1007F000138680A391A3A2A3B3A32F5F3F4F2430FE
:100800003105A1F614B815B88EE180936C00809183
:100810006800826080936800CF9108950895909158
:100820002E039817D9F080FF02C028E001C020E015
:1008300081FD246082FD226083FD216092B1937C62
:1008400092B992B144E0249F900111242C73332774
:10085000922B92B98093310380932E03089581B136
:100860008C6381B981E080932E038FE0D8CF109202
:10087000B90080E28093B800089509D0A59F900D3B
:10088000B49F900DA49F800D911D11240895A29FE7
:10089000B001B39FC001A39F01D0B29F700D811D15
:1008A0001124911D08950F931F93CF93DF93EC01B3
:1008B0008B01009731F46115710519F4E0E0F0E067
:1008C00036C06EE070E081E090E06ED2FC010097EF
:1008D000A9F380E883830115110571F0138702875E
:1008E00081E883838091340390913503892B21F42F
:1008F000F0933503E09334032097C9F0D187C08784
:100900008381826083838091360390913703892BA2
:1009100071F4F0933703E09336038091380390919C
:100920003903892B21F4F0933903E0933803CF0185
:10093000DF91CF911F910F910895CF93DF9300D056
:10094000CDB7DEB7FE01379661917191FA83E983E5
:10095000AF0180913603909137032DD00F900F9007
:10096000DF91CF9108950F931F93CF93DF9300D022
:10097000CDB7DEB7FE01399661917191FA83E983B3
:1009800006E313E0D8018D919C91DC0113962C9124
:100990001397286013962C93AF010DD0D801ED91D9
:1009A000FC912381277F23830F900F90DF91CF91BC
:1009B0001F910F9108952F923F924F925F926F92E5
:1009C0007F928F929F92AF92BF92CF92DF92EF92DF
:1009D000FF920F931F93CF93DF93CDB7DEB72C9782
:1009E0000FB6F894DEBF0FBECDBF7C016B018A014C
:1009F000FC0117821682838181FFBAC18824839407
:100A0000912C8C0E9D1EF7019381F60193FD85912B
:100A100093FF81916F01882309F4A6C1853239F4CF
:100A200093FD859193FF81916F01853221F4B70188
:100A300090E02CD3E8CF712C312C20E02032A8F4A8
:100A40008B3261F028F4803251F0833271F40BC0A4
:100A50008D3239F0803349F4216028C0226024604F
:100A600025C0286023C0206121C027FD27C0382F62
:100A700030533A3078F426FF06C0FAE07F9E300DFE
:100A80001124732E13C08AE0389E300D1124332EAA
:100A900020620CC08E3221F426FD66C1206406C09F
:100AA0008C3611F4206802C0883641F4F60193FDBB
:100AB000859193FF81916F018111C0CF982F95543B
:100AC000933018F09052933028F40C5F1F4FFFE3DF
:100AD000F9830DC0833631F0833771F0833509F027
:100AE0005AC022C0F801808189830E5F1F4F66249F
:100AF0006394712C540114C02801F2E04F0E511C74
:100B0000F801A080B18026FF03C0672D70E002C00D
:100B10006FEF7FEFC5012C87AED23C0182012C859F
:100B20006FE7262E222217C02801F2E04F0E511C3B
:100B3000F801A080B18026FF03C0672D70E002C0DD
:100B40006FEF7FEFC5012C8784D23C012C8550E8E4
:100B5000252E222A820123FC1AC005C0B70180E29B
:100B600090E094D23A94832D90E068167906B0F321
:100B70000EC0F50127FC859127FE81915F01B70129
:100B800090E084D231103A94F1E06F1A7108611448
:100B9000710479F7E6C0843611F0893639F5F80129
:100BA00027FF07C060817181828193810C5F1F4F95
:100BB00008C060817181882777FD8095982F0E5F2E
:100BC0001F4F4FE6642E622297FF09C090958095D3
:100BD000709561957F4F8F4F9F4FF0E86F2A2AE005
:100BE00030E0A4017FD2A82EA81843C0853731F485
:100BF0003FEEB32EB2222AE030E024C099EFB92EA6
:100C0000B2228F36B9F020F4883509F0ADC00DC09E
:100C1000803721F0883709F0A7C002C020E1B22A4E
:100C2000B4FE0BC084E0B82A08C024FF09C0E6E087
:100C3000BE2A06C028E030E005C020E130E002C056
:100C400020E132E0F801B7FE07C060817181828146
:100C500093810C5F1F4F06C06081718180E090E03E
:100C60000E5F1F4FA4013ED2A82EA8188FE7682E52
:100C70006B2066FE0BC0362D3E7FA71450F464FE39
:100C80000AC062FC08C0362D3E7E05C0BA2C362D47
:100C900003C0BA2C01C0B72C34FF0DC0FE01EA0D11
:100CA000F11D8081803311F4397E09C032FF06C006
:100CB000B394B39404C0832F867809F0B39433FDC2
:100CC00013C030FF0EC07A2CB31458F4730C7B1889
:100CD000B32C07C0B70180E290E03C87D7D1B39432
:100CE0003C85B314B8F304C0B31410F43B1801C02E
:100CF000312C34FF11C0B70180E390E03C87C6D1AE
:100D00003C8532FF1CC031FF03C088E590E002C083
:100D100088E790E0B7010CC0832F867881F031FD21
:100D200002C080E201C08BE237FD8DE2B70190E0A6
:100D3000ADD105C0B70180E390E0A8D17A94A714A3
:100D4000C8F3AA94F401EA0DF11DB701808190E087
:100D50009DD1A110F6CF05C0B70180E290E096D1F9
:100D60003A943110F9CF4FCEF7012681378102C076
:100D70002FEF3FEFC9012C960FB6F894DEBF0FBEE0
:100D8000CDBFDF91CF911F910F91FF90EF90DF903A
:100D9000CF90BF90AF909F908F907F906F905F901B
:100DA0004F903F902F9008950F931F93CF93DF9311
:100DB000689F8001699F100D789F100D1124C80154
:100DC0000FD0C82FD92F209729F0A80160E070E03C
:100DD0008C2F4AD1CE01DF91CF911F910F910895B1
:100DE0000F931F93CF93DF938230910510F482E02D
:100DF00090E0E0913C03F0913D0320E030E0C0E062
:100E0000D0E023C04081518148175907A8F0481706
:100E1000590761F482819381209719F09B838A831B
:100E20002EC090933D0380933C0329C021153105CA
:100E300029F04217530710F0A90102C0BE01DF01DB
:100E400002811381EF019A01F8013097D9F621153B
:100E5000310509F1281B390B2430310590F4129625
:100E60008D919C9113976115710521F0FB0193837E
:100E7000828304C090933D0380933C03FD0132962E
:100E800044C0FD01E20FF31F819391932250310979
:100E90002D933C933AC020913A0330913B03232B8E
:100EA00041F4209102013091030130933B032093E0
:100EB0003A0320910001309101012115310541F4DF
:100EC0002DB73EB74091040150910501241B350B0D
:100ED000E0913A03F0913B03E217F307A0F42E1BD5
:100EE0003F0B2817390778F0AC014E5F5F4F24178E
:100EF000350748F04E0F5F1F50933B0340933A0372
:100F00008193919302C0E0E0F0E0CF01DF91CF91B7
:100F10001F910F910895EF92FF920F931F93CF931C
:100F2000DF93009709F48EC0DC01129713961C9290
:100F30001E921297E0903C03F0903D03E114F104FF
:100F400089F42D913C911197280F391F80913A0314
:100F500090913B038217930789F5B0933B03A093CD
:100F60003A0370C0E70120E030E001C0EA01CA178F
:100F7000DB0738F44A815B819E0141155105B1F7C9
:100F800022C0AC0142505109FA01D383C2830081CF
:100F90001181BC01600F711F6C177D0761F46881BE
:100FA0007981600F711F6E5F7F4F718360836A81EB
:100FB0007B81738362832115310529F4B0933D034E
:100FC000A0933C033FC0F901B383A283E901499197
:100FD0005991C40FD51FAC17BD0771F4DC019E9168
:100FE0008E91840F951F02969183808312968D9126
:100FF0009C91139793838283A0E0B0E002C0D70155
:101000007C01F701828193810097C9F7C70102969D
:1010100020813181820F931F20913A0330913B034D
:101020002817390779F4109729F410923D0310928C
:101030003C0304C013961C921E921297F0923B033D
:10104000E0923A03DF91CF911F910F91FF90EF90C3
:101050000895FC010590615070400110D8F780950B
:1010600090958E0F9F1F0895DC0101C06D93415034
:101070005040E0F70895FC0161507040019001106C
:10108000D8F7809590958E0F9F1F08950F931F930B
:10109000CF93DF938C01EB018B8181FD03C00FEFB8
:1010A0001FEF1AC082FF0DC02E813F818C819D8170
:1010B0002817390764F4E881F9810193F983E883FB
:1010C00006C0E885F985802F0995892B41F78E8127
:1010D0009F8101969F838E83C801DF91CF911F91DD
:1010E0000F910895FA01AA27283051F1203181F19A
:1010F000E8946F936E7F6E5F7F4F8F4F9F4FAF4F20
:10110000B1E03ED0B4E03CD0670F781F891F9A1F32
:10111000A11D680F791F8A1F911DA11D6A0F711DE6
:10112000811D911DA11D20D009F468943F912AE0F2
:10113000269F11243019305D3193DEF6CF010895DA
:10114000462F4770405D4193B3E00FD0C9F7F6CF0B
:10115000462F4F70405D4A3318F0495D31FD4052D3
:10116000419302D0A9F7EACFB4E0A6959795879569
:1011700077956795BA95C9F7009761057105089548
:101180009B01AC010A2E06945795479537952795F4
:10119000BA95C9F7620F731F841F951FA01D08958C
:0411A000F894FFCFF1
:0C11A40000003E03200025630D0A00003F
:00000001FF
